{
  "address": "0x039CaAb2470f224465259bEF01ef0dE279990eb3",
  "abi": [
    {
      "anonymous": false,
      "inputs": [
        {
          "indexed": true,
          "internalType": "address",
          "name": "clearingHouse",
          "type": "address"
        }
      ],
      "name": "ClearingHouseChanged",
      "type": "event"
    },
    {
      "anonymous": false,
      "inputs": [
        {
          "indexed": true,
          "internalType": "address",
          "name": "previousOwner",
          "type": "address"
        },
        {
          "indexed": true,
          "internalType": "address",
          "name": "newOwner",
          "type": "address"
        }
      ],
      "name": "OwnershipTransferred",
      "type": "event"
    },
    {
      "anonymous": false,
      "inputs": [
        {
          "indexed": true,
          "internalType": "address",
          "name": "trader",
          "type": "address"
        },
        {
          "indexed": false,
          "internalType": "int256",
          "name": "amount",
          "type": "int256"
        }
      ],
      "name": "PnlRealized",
      "type": "event"
    },
    {
      "anonymous": false,
      "inputs": [
        {
          "indexed": true,
          "internalType": "address",
          "name": "vault",
          "type": "address"
        }
      ],
      "name": "VaultChanged",
      "type": "event"
    },
    {
      "inputs": [],
      "name": "candidate",
      "outputs": [
        {
          "internalType": "address",
          "name": "",
          "type": "address"
        }
      ],
      "stateMutability": "view",
      "type": "function"
    },
    {
      "inputs": [
        {
          "internalType": "address",
          "name": "trader",
          "type": "address"
        },
        {
          "internalType": "address",
          "name": "baseToken",
          "type": "address"
        }
      ],
      "name": "deregisterBaseToken",
      "outputs": [],
      "stateMutability": "nonpayable",
      "type": "function"
    },
    {
      "inputs": [
        {
          "internalType": "address",
          "name": "trader",
          "type": "address"
        },
        {
          "internalType": "address",
          "name": "baseToken",
          "type": "address"
        }
      ],
      "name": "getAccountInfo",
      "outputs": [
        {
          "components": [
            {
              "internalType": "int256",
              "name": "takerPositionSize",
              "type": "int256"
            },
            {
              "internalType": "int256",
              "name": "takerOpenNotional",
              "type": "int256"
            },
            {
              "internalType": "int256",
              "name": "lastTwPremiumGrowthGlobalX96",
              "type": "int256"
            }
          ],
          "internalType": "struct AccountMarket.Info",
          "name": "",
          "type": "tuple"
        }
      ],
      "stateMutability": "view",
      "type": "function"
    },
    {
      "inputs": [
        {
          "internalType": "address",
          "name": "trader",
          "type": "address"
        },
        {
          "internalType": "address",
          "name": "baseToken",
          "type": "address"
        }
      ],
      "name": "getBase",
      "outputs": [
        {
          "internalType": "int256",
          "name": "",
          "type": "int256"
        }
      ],
      "stateMutability": "view",
      "type": "function"
    },
    {
      "inputs": [
        {
          "internalType": "address",
          "name": "trader",
          "type": "address"
        }
      ],
      "name": "getBaseTokens",
      "outputs": [
        {
          "internalType": "address[]",
          "name": "",
          "type": "address[]"
        }
      ],
      "stateMutability": "view",
      "type": "function"
    },
    {
      "inputs": [],
      "name": "getClearingHouse",
      "outputs": [
        {
          "internalType": "address",
          "name": "",
          "type": "address"
        }
      ],
      "stateMutability": "view",
      "type": "function"
    },
    {
      "inputs": [],
      "name": "getClearingHouseConfig",
      "outputs": [
        {
          "internalType": "address",
          "name": "",
          "type": "address"
        }
      ],
      "stateMutability": "view",
      "type": "function"
    },
    {
      "inputs": [
        {
          "internalType": "address",
          "name": "trader",
          "type": "address"
        },
        {
          "internalType": "address",
          "name": "baseToken",
          "type": "address"
        },
        {
          "internalType": "int256",
          "name": "accountValue",
          "type": "int256"
        }
      ],
      "name": "getLiquidatablePositionSize",
      "outputs": [
        {
          "internalType": "int256",
          "name": "",
          "type": "int256"
        }
      ],
      "stateMutability": "view",
      "type": "function"
    },
    {
      "inputs": [
        {
          "internalType": "address",
          "name": "trader",
          "type": "address"
        }
      ],
      "name": "getMarginRequirementForLiquidation",
      "outputs": [
        {
          "internalType": "int256",
          "name": "",
          "type": "int256"
        }
      ],
      "stateMutability": "view",
      "type": "function"
    },
    {
      "inputs": [],
      "name": "getOrderBook",
      "outputs": [
        {
          "internalType": "address",
          "name": "",
          "type": "address"
        }
      ],
      "stateMutability": "view",
      "type": "function"
    },
    {
      "inputs": [
        {
          "internalType": "address",
          "name": "trader",
          "type": "address"
        }
      ],
      "name": "getPnlAndPendingFee",
      "outputs": [
        {
          "internalType": "int256",
          "name": "",
          "type": "int256"
        },
        {
          "internalType": "int256",
          "name": "",
          "type": "int256"
        },
        {
          "internalType": "uint256",
          "name": "",
          "type": "uint256"
        }
      ],
      "stateMutability": "view",
      "type": "function"
    },
    {
      "inputs": [
        {
          "internalType": "address",
          "name": "trader",
          "type": "address"
        },
        {
          "internalType": "address",
          "name": "baseToken",
          "type": "address"
        }
      ],
      "name": "getQuote",
      "outputs": [
        {
          "internalType": "int256",
          "name": "",
          "type": "int256"
        }
      ],
      "stateMutability": "view",
      "type": "function"
    },
    {
      "inputs": [
        {
          "internalType": "address",
          "name": "trader",
          "type": "address"
        },
        {
          "internalType": "address",
          "name": "baseToken",
          "type": "address"
        }
      ],
      "name": "getTakerOpenNotional",
      "outputs": [
        {
          "internalType": "int256",
          "name": "",
          "type": "int256"
        }
      ],
      "stateMutability": "view",
      "type": "function"
    },
    {
      "inputs": [
        {
          "internalType": "address",
          "name": "trader",
          "type": "address"
        },
        {
          "internalType": "address",
          "name": "baseToken",
          "type": "address"
        }
      ],
      "name": "getTakerPositionSize",
      "outputs": [
        {
          "internalType": "int256",
          "name": "",
          "type": "int256"
        }
      ],
      "stateMutability": "view",
      "type": "function"
    },
    {
      "inputs": [
        {
          "internalType": "address",
          "name": "trader",
          "type": "address"
        }
      ],
      "name": "getTotalAbsPositionValue",
      "outputs": [
        {
          "internalType": "uint256",
          "name": "",
          "type": "uint256"
        }
      ],
      "stateMutability": "view",
      "type": "function"
    },
    {
      "inputs": [
        {
          "internalType": "address",
          "name": "trader",
          "type": "address"
        }
      ],
      "name": "getTotalDebtValue",
      "outputs": [
        {
          "internalType": "uint256",
          "name": "",
          "type": "uint256"
        }
      ],
      "stateMutability": "view",
      "type": "function"
    },
    {
      "inputs": [
        {
          "internalType": "address",
          "name": "trader",
          "type": "address"
        },
        {
          "internalType": "address",
          "name": "baseToken",
          "type": "address"
        }
      ],
      "name": "getTotalOpenNotional",
      "outputs": [
        {
          "internalType": "int256",
          "name": "",
          "type": "int256"
        }
      ],
      "stateMutability": "view",
      "type": "function"
    },
    {
      "inputs": [
        {
          "internalType": "address",
          "name": "trader",
          "type": "address"
        },
        {
          "internalType": "address",
          "name": "baseToken",
          "type": "address"
        }
      ],
      "name": "getTotalPositionSize",
      "outputs": [
        {
          "internalType": "int256",
          "name": "",
          "type": "int256"
        }
      ],
      "stateMutability": "view",
      "type": "function"
    },
    {
      "inputs": [
        {
          "internalType": "address",
          "name": "trader",
          "type": "address"
        },
        {
          "internalType": "address",
          "name": "baseToken",
          "type": "address"
        }
      ],
      "name": "getTotalPositionValue",
      "outputs": [
        {
          "internalType": "int256",
          "name": "",
          "type": "int256"
        }
      ],
      "stateMutability": "view",
      "type": "function"
    },
    {
      "inputs": [],
      "name": "getVault",
      "outputs": [
        {
          "internalType": "address",
          "name": "",
          "type": "address"
        }
      ],
      "stateMutability": "view",
      "type": "function"
    },
    {
      "inputs": [
        {
          "internalType": "address",
          "name": "trader",
          "type": "address"
        }
      ],
      "name": "hasOrder",
      "outputs": [
        {
          "internalType": "bool",
          "name": "",
          "type": "bool"
        }
      ],
      "stateMutability": "view",
      "type": "function"
    },
    {
      "inputs": [
        {
          "internalType": "address",
          "name": "clearingHouseConfigArg",
          "type": "address"
        },
        {
          "internalType": "address",
          "name": "orderBookArg",
          "type": "address"
        }
      ],
      "name": "initialize",
      "outputs": [],
      "stateMutability": "nonpayable",
      "type": "function"
    },
    {
      "inputs": [
        {
          "internalType": "address",
          "name": "trader",
          "type": "address"
        },
        {
          "internalType": "int256",
          "name": "amount",
          "type": "int256"
        }
      ],
      "name": "modifyOwedRealizedPnl",
      "outputs": [],
      "stateMutability": "nonpayable",
      "type": "function"
    },
    {
      "inputs": [
        {
          "internalType": "address",
          "name": "trader",
          "type": "address"
        },
        {
          "internalType": "address",
          "name": "baseToken",
          "type": "address"
        },
        {
          "internalType": "int256",
          "name": "base",
          "type": "int256"
        },
        {
          "internalType": "int256",
          "name": "quote",
          "type": "int256"
        }
      ],
      "name": "modifyTakerBalance",
      "outputs": [
        {
          "internalType": "int256",
          "name": "",
          "type": "int256"
        },
        {
          "internalType": "int256",
          "name": "",
          "type": "int256"
        }
      ],
      "stateMutability": "nonpayable",
      "type": "function"
    },
    {
      "inputs": [],
      "name": "owner",
      "outputs": [
        {
          "internalType": "address",
          "name": "",
          "type": "address"
        }
      ],
      "stateMutability": "view",
      "type": "function"
    },
    {
      "inputs": [
        {
          "internalType": "address",
          "name": "trader",
          "type": "address"
        },
        {
          "internalType": "address",
          "name": "baseToken",
          "type": "address"
        }
      ],
      "name": "registerBaseToken",
      "outputs": [],
      "stateMutability": "nonpayable",
      "type": "function"
    },
    {
      "inputs": [],
      "name": "renounceOwnership",
      "outputs": [],
      "stateMutability": "nonpayable",
      "type": "function"
    },
    {
      "inputs": [
        {
          "internalType": "address",
          "name": "clearingHouseArg",
          "type": "address"
        }
      ],
      "name": "setClearingHouse",
      "outputs": [],
      "stateMutability": "nonpayable",
      "type": "function"
    },
    {
      "inputs": [
        {
          "internalType": "address",
          "name": "newOwner",
          "type": "address"
        }
      ],
      "name": "setOwner",
      "outputs": [],
      "stateMutability": "nonpayable",
      "type": "function"
    },
    {
      "inputs": [
        {
          "internalType": "address",
          "name": "vaultArg",
          "type": "address"
        }
      ],
      "name": "setVault",
      "outputs": [],
      "stateMutability": "nonpayable",
      "type": "function"
    },
    {
      "inputs": [
        {
          "internalType": "address",
          "name": "trader",
          "type": "address"
        },
        {
          "internalType": "address",
          "name": "baseToken",
          "type": "address"
        },
        {
          "internalType": "int256",
          "name": "takerBase",
          "type": "int256"
        },
        {
          "internalType": "int256",
          "name": "takerQuote",
          "type": "int256"
        },
        {
          "internalType": "int256",
          "name": "realizedPnl",
          "type": "int256"
        },
        {
          "internalType": "int256",
          "name": "makerFee",
          "type": "int256"
        }
      ],
      "name": "settleBalanceAndDeregister",
      "outputs": [],
      "stateMutability": "nonpayable",
      "type": "function"
    },
    {
      "inputs": [
        {
          "internalType": "address",
          "name": "trader",
          "type": "address"
        }
      ],
      "name": "settleOwedRealizedPnl",
      "outputs": [
        {
          "internalType": "int256",
          "name": "",
          "type": "int256"
        }
      ],
      "stateMutability": "nonpayable",
      "type": "function"
    },
    {
      "inputs": [
        {
          "internalType": "address",
          "name": "trader",
          "type": "address"
        },
        {
          "internalType": "address",
          "name": "baseToken",
          "type": "address"
        }
      ],
      "name": "settlePositionInClosedMarket",
      "outputs": [
        {
          "internalType": "int256",
          "name": "positionNotional",
          "type": "int256"
        },
        {
          "internalType": "int256",
          "name": "openNotional",
          "type": "int256"
        },
        {
          "internalType": "int256",
          "name": "realizedPnl",
          "type": "int256"
        },
        {
          "internalType": "uint256",
          "name": "closedPrice",
          "type": "uint256"
        }
      ],
      "stateMutability": "nonpayable",
      "type": "function"
    },
    {
      "inputs": [
        {
          "internalType": "address",
          "name": "trader",
          "type": "address"
        },
        {
          "internalType": "address",
          "name": "baseToken",
          "type": "address"
        },
        {
          "internalType": "int256",
          "name": "amount",
          "type": "int256"
        }
      ],
      "name": "settleQuoteToOwedRealizedPnl",
      "outputs": [],
      "stateMutability": "nonpayable",
      "type": "function"
    },
    {
      "inputs": [],
      "name": "updateOwner",
      "outputs": [],
      "stateMutability": "nonpayable",
      "type": "function"
    },
    {
      "inputs": [
        {
          "internalType": "address",
          "name": "trader",
          "type": "address"
        },
        {
          "internalType": "address",
          "name": "baseToken",
          "type": "address"
        },
        {
          "internalType": "int256",
          "name": "lastTwPremiumGrowthGlobalX96",
          "type": "int256"
        }
      ],
      "name": "updateTwPremiumGrowthGlobal",
      "outputs": [],
      "stateMutability": "nonpayable",
      "type": "function"
    }
  ],
  "transactionHash": "0xa7122ef670bef275c197f77ddea6aa712d72d0102d283168fd122e4875383b7a",
  "args": [],
  "numDeployments": 1,
  "solcInputHash": "7a16bbbc5c6fea2b6505d4631b28aae2",
  "bytecode": "0x608060405234801561001057600080fd5b50612f89806100206000396000f3fe608060405234801561001057600080fd5b50600436106101dc5760003560e01c80638d928af811610105578063bc5920ba1161009d578063bc5920ba1461040c578063c575ff7914610414578063cb3c7b8e1461041c578063d50d01b71461043c578063ec647a121461044f578063f75c266d14610462578063fa8e30af14610475578063fc73721414610488578063fd6ceee51461049b576101dc565b80638d928af8146103715780638da5cb5b14610379578063aa2a829414610381578063af74e73614610389578063b248c4ef146103a9578063b2e27148146103b1578063b3945690146103c4578063b3bd6e12146103d7578063bba85bcf146103ea576101dc565b80636332fef6116101785780636332fef6146102c25780636817031b146102e257806368f12e12146102f55780636c8381f8146103085780636ccdc82e1461031d578063715018a6146103305780637a5b45a014610338578063874044f31461034b57806389f921771461035e576101dc565b806310485bec146101e157806313af40351461020a578063293a50771461021f5780632e4586c3146102325780633c9b5ad1146102455780633f93510714610266578063449323d814610279578063485cc9551461028c5780635f9d05ad1461029f575b600080fd5b6101f46101ef366004612917565b6104ae565b6040516102019190612cbc565b60405180910390f35b61021d6102183660046128cb565b610584565b005b6101f461022d3660046128cb565b6106df565b61021d610240366004612917565b6107dd565b610258610253366004612952565b610814565b604051610201929190612cc5565b6101f46102743660046128e5565b610838565b61021d6102873660046128cb565b61085b565b61021d61029a3660046128e5565b610902565b6102b26102ad3660046128e5565b610a43565b6040516102019493929190612cd3565b6102d56102d03660046128e5565b610b46565b6040516102019190612dfe565b61021d6102f03660046128cb565b610b9d565b6101f46103033660046128e5565b610c72565b610310610e02565b6040516102019190612bc4565b6101f461032b3660046128cb565b610e11565b61021d610eda565b6101f46103463660046128e5565b610f7b565b61021d6103593660046129e7565b611041565b61021d61036c366004612993565b611057565b610310611094565b6103106110a3565b6103106110b2565b61039c6103973660046128cb565b6110c1565b6040516102019190612c9e565b610310611137565b6101f46103bf3660046128e5565b611146565b6101f46103d23660046128e5565b61118e565b6101f46103e53660046128e5565b611243565b6103fd6103f83660046128cb565b611307565b60405161020193929190612cee565b61021d6113d1565b6103106114bd565b61042f61042a3660046128cb565b6114cc565b6040516102019190612cb1565b6101f461044a3660046128e5565b6116aa565b61021d61045d366004612917565b6116d8565b6101f46104703660046128cb565b6116eb565b61021d6104833660046128e5565b611788565b61021d6104963660046128e5565b61179a565b6101f46104a93660046128cb565b6118f3565b6000806104ba856116eb565b905060006104c88686610c72565b905081841215806104d7575080155b156104e75760009250505061057d565b60006104fb6104f68784611950565b611988565b905068056bc75e2d6310000081116105175750915061057d9050565b620f42406105268460026119b1565b861261056c5761055461054f61053b8a610e11565b620f424061054a866002611a69565b611ac2565b611b71565b9050620f42408162ffffff16111561056c5750620f42405b6105768382611bb5565b9450505050505b9392505050565b61058c611bca565b6001600160a01b031661059d6110a3565b6001600160a01b0316146105e1576040805162461bcd60e51b8152602060048201526006602482015265534f5f434e4f60d01b604482015290519081900360640190fd5b6001600160a01b038116610625576040805162461bcd60e51b81526020600482015260066024820152650534f5f4e57360d41b604482015290519081900360640190fd5b6033546001600160a01b0382811691161415610671576040805162461bcd60e51b8152602060048201526006602482015265534f5f53414f60d01b604482015290519081900360640190fd5b6034546001600160a01b03828116911614156106bd576040805162461bcd60e51b8152602060048201526006602482015265534f5f53414360d01b604482015290519081900360640190fd5b603480546001600160a01b0319166001600160a01b0392909216919091179055565b6001600160a01b0381166000908152609e602052604081205481908190815b818110156107ae576001600160a01b0386166000908152609e6020526040812080548390811061072a57fe5b60009182526020822001546001600160a01b0316915061074a8883611243565b905060008082121561077d5761077a61076a61076585611bce565b611db7565b8390670de0b6b3a7640000611e03565b90505b6107878682611e9b565b955061079d6107968a85610f7b565b8890611e9b565b965050600190920191506106fe9050565b506000808412156107bf57836107c2565b60005b90506107d16104f68285611e9b565b9450505050505b919050565b6107e5611f00565b6001600160a01b039283166000908152609f602090815260408083209490951682529290925291902060020155565b60008061081f611f00565b61082b86868686611f3c565b9150915094509492505050565b6000806108458484610c72565b90506108518382611950565b9150505b92915050565b610863611bca565b6001600160a01b03166108746110a3565b6001600160a01b0316146108b8576040805162461bcd60e51b8152602060048201526006602482015265534f5f434e4f60d01b604482015290519081900360640190fd5b606780546001600160a01b0319166001600160a01b0383169081179091556040517fd0654f5900f9e7e4e605a19334306e6a2786bbf960ac0484a4c12feb6428fe2f90600090a250565b600054610100900460ff168061091b575061091b611f98565b80610929575060005460ff16155b6109645760405162461bcd60e51b815260040180806020018281038252602e815260200180612e52602e913960400191505060405180910390fd5b600054610100900460ff1615801561098f576000805460ff1961ff0019909116610100171660011790555b6109a1836001600160a01b0316611fa9565b6109c65760405162461bcd60e51b81526004016109bd90612d04565b60405180910390fd5b6109d8826001600160a01b0316611fa9565b6109f45760405162461bcd60e51b81526004016109bd90612d9e565b6109fc611faf565b609a80546001600160a01b038086166001600160a01b031992831617909255609b8054928516929091169190911790558015610a3e576000805461ff00191690555b505050565b600080600080610a51611f00565b6000610a5d8787611146565b9050856001600160a01b03166357a48b016040518163ffffffff1660e01b815260040160206040518083038186803b158015610a9857600080fd5b505afa158015610aac573d6000803e3d6000fd5b505050506040513d601f19601f82011682018060405250810190610ad09190612b24565b9150610aee610ade83611db7565b8290670de0b6b3a7640000611e03565b6001600160a01b038089166000908152609f60209081526040808320938b16835292905220600101549095509350610b268585611e9b565b9250610b328787612059565b610b3c878461218b565b5092959194509250565b610b4e612893565b506001600160a01b039182166000908152609f60209081526040808320939094168252918252829020825160608101845281548152600182015492810192909252600201549181019190915290565b610ba5611bca565b6001600160a01b0316610bb66110a3565b6001600160a01b031614610bfa576040805162461bcd60e51b8152602060048201526006602482015265534f5f434e4f60d01b604482015290519081900360640190fd5b610c0c816001600160a01b0316611fa9565b610c285760405162461bcd60e51b81526004016109bd90612dde565b609c80546001600160a01b0319166001600160a01b0383169081179091556040517fa49691f0dd6477ccef49962612a236d252e3a31c3be8b61fa6abeff3e74a757290600090a250565b609b54604051635d8a541d60e01b815260009182916001600160a01b0390911690635d8a541d90610cac9087908790600190600401612bf2565b604080518083038186803b158015610cc357600080fd5b505afa158015610cd7573d6000803e3d6000fd5b505050506040513d601f19601f82011682018060405250810190610cfb9190612ade565b50609b54604051637c2b7c5360e01b81529192506000916001600160a01b0390911690637c2b7c5390610d379088908890600190600401612bf2565b60206040518083038186803b158015610d4f57600080fd5b505afa158015610d63573d6000803e3d6000fd5b505050506040513d601f19601f82011682018060405250810190610d879190612b24565b90506000610da6610d9783611db7565b610da085611db7565b9061220d565b6001600160a01b038088166000908152609f60209081526040808320938a16835292905290812054919250610ddb8383611e9b565b9050600a610de882611988565b10610df35780610df6565b60005b98975050505050505050565b6034546001600160a01b031690565b6001600160a01b0381166000908152609e6020908152604080832080548251818502810185019093528083528493830182828015610e7857602002820191906000526020600020905b81546001600160a01b03168152600190910190602001808311610e5a575b505050505090506000808251905060005b81811015610ed0576000848281518110610e9f57fe5b602002602001015190506000610eb86104f68984610838565b9050610ec48582612272565b94505050600101610e89565b5090949350505050565b610ee2611bca565b6001600160a01b0316610ef36110a3565b6001600160a01b031614610f37576040805162461bcd60e51b8152602060048201526006602482015265534f5f434e4f60d01b604482015290519081900360640190fd5b6033546040516000916001600160a01b031690600080516020612ec2833981519152908390a3603380546001600160a01b0319908116909155603480549091169055565b609b54604051637c2b7c5360e01b815260009182916001600160a01b0390911690637c2b7c5390610fb490879087908690600401612bf2565b60206040518083038186803b158015610fcc57600080fd5b505afa158015610fe0573d6000803e3d6000fd5b505050506040513d601f19601f820116820180604052508101906110049190612b24565b905061085161101282611db7565b6001600160a01b038087166000908152609f60209081526040808320938916835292905220600101549061220d565b611049611f00565b611053828261218b565b5050565b61105f611f00565b61106b86868686611f3c565b5050611077868261218b565b6110828686846122cc565b61108c868661231b565b505050505050565b609c546001600160a01b031690565b6033546001600160a01b031690565b609a546001600160a01b031690565b6001600160a01b0381166000908152609e602090815260409182902080548351818402810184019094528084526060939283018282801561112b57602002820191906000526020600020905b81546001600160a01b0316815260019091019060200180831161110d575b50505050509050919050565b609b546001600160a01b031690565b6001600160a01b038083166000908152609f60209081526040808320938516835292905290812054600a61117982611988565b106111845780610851565b5060009392505050565b609b54604051635d8a541d60e01b815260009182916001600160a01b0390911690635d8a541d906111c790879087908690600401612bf2565b604080518083038186803b1580156111de57600080fd5b505afa1580156111f2573d6000803e3d6000fd5b505050506040513d601f19601f820116820180604052508101906112169190612ade565b50905060006112258585610f7b565b905061123a8161123484611db7565b90611e9b565b95945050505050565b609b54604051637c2b7c5360e01b815260009182916001600160a01b0390911690637c2b7c539061127d9087908790600190600401612bf2565b60206040518083038186803b15801561129557600080fd5b505afa1580156112a9573d6000803e3d6000fd5b505050506040513d601f19601f820116820180604052508101906112cd9190612b24565b90506108516112db82611db7565b6001600160a01b038087166000908152609f60209081526040808320938916835292905220549061220d565b6001600160a01b0381166000908152609e6020526040812054819081908190815b8181101561138a576001600160a01b0387166000908152609e6020526040812080548390811061135457fe5b6000918252602090912001546001600160a01b0316905061137f6113788983610838565b8590611e9b565b935050600101611328565b5060008061139788612438565b909250905060006113a88584611e9b565b6001600160a01b03999099166000908152609d6020526040902054999197509095505050505050565b6034546001600160a01b0316611416576040805162461bcd60e51b81526020600482015260056024820152640534f5f43360dc1b604482015290519081900360640190fd5b61141e611bca565b6034546001600160a01b03908116911614611469576040805162461bcd60e51b8152602060048201526006602482015265534f5f434e4360d01b604482015290519081900360640190fd5b6034546033546040516001600160a01b039283169290911690600080516020612ec283398151915290600090a360348054603380546001600160a01b03199081166001600160a01b03841617909155169055565b6067546001600160a01b031690565b6001600160a01b0381166000908152609e6020526040812054818167ffffffffffffffff811180156114fd57600080fd5b50604051908082528060200260200182016040528015611527578160200160208202803683370190505b5090506000805b83811015611627576001600160a01b0386166000908152609e6020526040812080548390811061155a57fe5b60009182526020918290200154604080516347535d7b60e01b815290516001600160a01b03909216935083926347535d7b92600480840193829003018186803b1580156115a657600080fd5b505afa1580156115ba573d6000803e3d6000fd5b505050506040513d601f19601f820116820180604052508101906115de9190612abe565b6115ee575060019091019061161f565b8084848403815181106115fd57fe5b60200260200101906001600160a01b031690816001600160a01b031681525050505b60010161152e565b50609b54604051634dffaee560e01b81526001600160a01b0390911690634dffaee59061165a9088908690600401612c16565b60206040518083038186803b15801561167257600080fd5b505afa158015611686573d6000803e3d6000fd5b505050506040513d601f19601f8201168201806040525081019061123a9190612abe565b6001600160a01b039182166000908152609f6020908152604080832093909416825291909152206001015490565b6116e0611f00565b610a3e8383836122cc565b6000610855610765609a60009054906101000a90046001600160a01b03166001600160a01b031663a85494026040518163ffffffff1660e01b815260040160206040518083038186803b15801561174157600080fd5b505afa158015611755573d6000803e3d6000fd5b505050506040513d601f19601f820116820180604052508101906117799190612b01565b61178285610e11565b9061257c565b611790611f00565b611053828261231b565b6117a2611f00565b6001600160a01b0382166000908152609e60209081526040918290208054835181840281018401909452808452909261181d929091849183018282801561181257602002820191906000526020600020905b81546001600160a01b031681526001909101906020018083116117f4575b505050505083612591565b156118285750611053565b8054600181018255600082815260209081902090910180546001600160a01b0319166001600160a01b0385811691909117909155609a5460408051631623e65d60e11b815290519190921692632c47ccba9260048082019391829003018186803b15801561189557600080fd5b505afa1580156118a9573d6000803e3d6000fd5b505050506040513d601f19601f820116820180604052508101906118cd9190612b60565b60ff1681805490501115610a3e5760405162461bcd60e51b81526004016109bd90612d47565b609c546000906001600160a01b031661190a611bca565b6001600160a01b0316146119305760405162461bcd60e51b81526004016109bd90612dbf565b506001600160a01b03166000908152609d60205260408120805491905590565b60008161195f57506000610855565b600061196a84611bce565b905061085161197882611db7565b8490670de0b6b3a7640000611e03565b6000808212156119a8576119a361199e836125dd565b612609565b610855565b61085582612609565b600081611a05576040805162461bcd60e51b815260206004820181905260248201527f5369676e6564536166654d6174683a206469766973696f6e206279207a65726f604482015290519081900360640190fd5b81600019148015611a195750600160ff1b83145b15611a555760405162461bcd60e51b8152600401808060200182810382526021815260200180612e806021913960400191505060405180910390fd5b6000828481611a6057fe5b05949350505050565b600082611a7857506000610855565b82820282848281611a8557fe5b041461057d5760405162461bcd60e51b8152600401808060200182810382526021815260200180612ea16021913960400191505060405180910390fd5b6000808060001985870986860292508281109083900303905080611af85760008411611aed57600080fd5b50829004905061057d565b808411611b0457600080fd5b6000848688096000868103871696879004966002600389028118808a02820302808a02820302808a02820302808a02820302808a02820302808a02909103029181900381900460010186841190950394909402919094039290920491909117919091029150509392505050565b8062ffffff811681146107d85760405162461bcd60e51b8152600401808060200182810382526026815260200180612f2e6026913960400191505060405180910390fd5b600061057d838362ffffff16620f4240611e03565b3390565b6000816001600160a01b031663c2b6b58c6040518163ffffffff1660e01b815260040160206040518083038186803b158015611c0957600080fd5b505afa158015611c1d573d6000803e3d6000fd5b505050506040513d601f19601f82011682018060405250810190611c419190612abe565b611d4657816001600160a01b03166312080647609a60009054906101000a90046001600160a01b03166001600160a01b0316633e742e3b6040518163ffffffff1660e01b815260040160206040518083038186803b158015611ca257600080fd5b505afa158015611cb6573d6000803e3d6000fd5b505050506040513d601f19601f82011682018060405250810190611cda9190612b3c565b6040518263ffffffff1660e01b8152600401611cf69190612e1f565b60206040518083038186803b158015611d0e57600080fd5b505afa158015611d22573d6000803e3d6000fd5b505050506040513d601f19601f820116820180604052508101906119a39190612b24565b816001600160a01b03166357a48b016040518163ffffffff1660e01b815260040160206040518083038186803b158015611d7f57600080fd5b505afa158015611d93573d6000803e3d6000fd5b505050506040513d601f19601f820116820180604052508101906108559190612b24565b60006001600160ff1b03821115611dff5760405162461bcd60e51b8152600401808060200182810382526028815260200180612ee26028913960400191505060405180910390fd5b5090565b60008060008512611e145784611e1d565b611e1d856125dd565b90506000808512611e2e5784611e37565b611e37856125dd565b905060008087128015611e4a5750600086135b80611e605750600087138015611e605750600086125b611e6b576000611e6e565b60015b90506000611e7d848488611ac2565b905081611e9257611e8d81611db7565b610576565b61057681612660565b6000828201818312801590611eb05750838112155b80611ec55750600083128015611ec557508381125b61057d5760405162461bcd60e51b8152600401808060200182810382526021815260200180612e316021913960400191505060405180910390fd5b6067546001600160a01b0316611f14611bca565b6001600160a01b031614611f3a5760405162461bcd60e51b81526004016109bd90612d26565b565b6001600160a01b038085166000908152609f6020908152604080832093871683529290529081208054829190611f729086611e9b565b81556001810154611f839085611e9b565b60018201819055905497909650945050505050565b6000611fa330611fa9565b15905090565b3b151590565b600054610100900460ff1680611fc85750611fc8611f98565b80611fd6575060005460ff16155b6120115760405162461bcd60e51b815260040180806020018281038252602e815260200180612e52602e913960400191505060405180910390fd5b600054610100900460ff1615801561203c576000805460ff1961ff0019909116610100171660011790555b612044612674565b8015612056576000805461ff00191690555b50565b6001600160a01b038083166000818152609f60209081526040808320948616835293815283822082815560018101839055600201829055918152609e909152908120805490915b8181101561218457836001600160a01b03168382815481106120be57fe5b6000918252602090912001546001600160a01b0316141561217c5760018203811461214b578260018303815481106120f257fe5b9060005260206000200160009054906101000a90046001600160a01b031683828154811061211c57fe5b9060005260206000200160006101000a8154816001600160a01b0302191690836001600160a01b031602179055505b8280548061215557fe5b600082815260209020810160001990810180546001600160a01b0319169055019055612184565b6001016120a0565b5050505050565b8015611053576001600160a01b0382166000908152609d60205260409020546121b49082611e9b565b6001600160a01b0383166000818152609d6020526040908190209290925590517febf4e69d81451d269fc4d9551b06d58bea2ed426d2c528919ce45f6070946efb90612201908490612cbc565b60405180910390a25050565b60008183038183128015906122225750838113155b80612237575060008312801561223757508381135b61057d5760405162461bcd60e51b8152600401808060200182810382526024815260200180612f0a6024913960400191505060405180910390fd5b60008282018381101561057d576040805162461bcd60e51b815260206004820152601b60248201527f536166654d6174683a206164646974696f6e206f766572666c6f770000000000604482015290519081900360640190fd5b8015610a3e576001600160a01b038084166000908152609f602090815260408083209386168352929052206001810154612306908361220d565b6001820155612315848361218b565b50505050565b6001600160a01b038083166000908152609f602090815260408083209385168352928152908290208251606081018452815480825260018301549382019390935260029091015492810192909252600a9061237590611988565b10158061238f5750600a61238c8260200151611988565b10155b1561239a5750611053565b609b546040516321b499f560e11b81526000916001600160a01b03169063436933ea906123cd9087908790600401612bd8565b60006040518083038186803b1580156123e557600080fd5b505afa1580156123f9573d6000803e3d6000fd5b505050506040513d6000823e601f3d908101601f191682016040526124219190810190612a10565b51111561242e5750611053565b610a3e8383612059565b6001600160a01b0381166000908152609e602052604081205481908190815b818110156124d0576001600160a01b0386166000908152609e6020526040812080548390811061248357fe5b60009182526020808320909101546001600160a01b038a81168452609f83526040808520919092168085529252909120600101549091506124c5908590611e9b565b935050600101612457565b50609b546001600160a01b038681166000908152609e6020526040808220905163d0581a9360e01b81529193929092169163d0581a9391612515918a91600401612c42565b604080518083038186803b15801561252c57600080fd5b505afa158015612540573d6000803e3d6000fd5b505050506040513d601f19601f820116820180604052508101906125649190612ade565b945090506125728382611e9b565b9450505050915091565b600061057d838362ffffff16620f4240611ac2565b6000805b835181101561118457826001600160a01b03168482815181106125b457fe5b60200260200101516001600160a01b031614156125d5576001915050610855565b600101612595565b6000600160ff1b82136126025760405162461bcd60e51b81526004016109bd90612d67565b5060000390565b600080821215611dff576040805162461bcd60e51b815260206004820181905260248201527f53616665436173743a2076616c7565206d75737420626520706f736974697665604482015290519081900360640190fd5b600061266b82611db7565b60000392915050565b600054610100900460ff168061268d575061268d611f98565b8061269b575060005460ff16155b6126d65760405162461bcd60e51b815260040180806020018281038252602e815260200180612e52602e913960400191505060405180910390fd5b600054610100900460ff16158015612701576000805460ff1961ff0019909116610100171660011790555b612709612763565b6000612713611bca565b603380546001600160a01b0319166001600160a01b03831690811790915560405191925090600090600080516020612ec2833981519152908290a3508015612056576000805461ff001916905550565b600054610100900460ff168061277c575061277c611f98565b8061278a575060005460ff16155b6127c55760405162461bcd60e51b815260040180806020018281038252602e815260200180612e52602e913960400191505060405180910390fd5b600054610100900460ff161580156127f0576000805460ff1961ff0019909116610100171660011790555b612044600054610100900460ff168061280c575061280c611f98565b8061281a575060005460ff16155b6128555760405162461bcd60e51b815260040180806020018281038252602e815260200180612e52602e913960400191505060405180910390fd5b600054610100900460ff16158015612044576000805460ff1961ff0019909116610100171660011790558015612056576000805461ff001916905550565b60405180606001604052806000815260200160008152602001600081525090565b80356001600160a01b03811681146107d857600080fd5b6000602082840312156128dc578081fd5b61057d826128b4565b600080604083850312156128f7578081fd5b612900836128b4565b915061290e602084016128b4565b90509250929050565b60008060006060848603121561292b578081fd5b612934846128b4565b9250612942602085016128b4565b9150604084013590509250925092565b60008060008060808587031215612967578081fd5b612970856128b4565b935061297e602086016128b4565b93969395505050506040820135916060013590565b60008060008060008060c087890312156129ab578182fd5b6129b4876128b4565b95506129c2602088016128b4565b95989597505050506040840135936060810135936080820135935060a0909101359150565b600080604083850312156129f9578182fd5b612a02836128b4565b946020939093013593505050565b60006020808385031215612a22578182fd5b825167ffffffffffffffff80821115612a39578384fd5b818501915085601f830112612a4c578384fd5b815181811115612a5857fe5b83810260405185828201018181108582111715612a7157fe5b604052828152858101935084860182860187018a1015612a8f578788fd5b8795505b83861015612ab1578051855260019590950194938601938601612a93565b5098975050505050505050565b600060208284031215612acf578081fd5b8151801515811461057d578182fd5b60008060408385031215612af0578182fd5b505080516020909101519092909150565b600060208284031215612b12578081fd5b815162ffffff8116811461057d578182fd5b600060208284031215612b35578081fd5b5051919050565b600060208284031215612b4d578081fd5b815163ffffffff8116811461057d578182fd5b600060208284031215612b71578081fd5b815160ff8116811461057d578182fd5b6000815180845260208085019450808401835b83811015612bb95781516001600160a01b031687529582019590820190600101612b94565b509495945050505050565b6001600160a01b0391909116815260200190565b6001600160a01b0392831681529116602082015260400190565b6001600160a01b039384168152919092166020820152901515604082015260600190565b6001600160a01b0383168152604060208201819052600090612c3a90830184612b81565b949350505050565b60006040820160018060a01b03808616845260206040818601528286548085526060870191508786528286209450855b81811015612c90578554851683526001958601959284019201612c72565b509098975050505050505050565b60006020825261057d6020830184612b81565b901515815260200190565b90815260200190565b918252602082015260400190565b93845260208401929092526040830152606082015260800190565b9283526020830191909152604082015260600190565b60208082526008908201526741425f4348434e4360c01b604082015260600190565b6020808252600790820152660869088be9e86960cb1b604082015260600190565b60208082526006908201526541425f4d4e4560d01b604082015260600190565b6020808252601c908201527f506572704d6174683a20696e76657273696f6e206f766572666c6f7700000000604082015260600190565b60208082526007908201526641425f4f424e4360c81b604082015260600190565b60208082526005908201526420a12fa7ab60d91b604082015260600190565b60208082526006908201526541425f564e4360d01b604082015260600190565b81518152602080830151908201526040918201519181019190915260600190565b63ffffffff9190911681526020019056fe5369676e6564536166654d6174683a206164646974696f6e206f766572666c6f77496e697469616c697a61626c653a20636f6e747261637420697320616c726561647920696e697469616c697a65645369676e6564536166654d6174683a206469766973696f6e206f766572666c6f77536166654d6174683a206d756c7469706c69636174696f6e206f766572666c6f778be0079c531659141344cd1fd0a4f28419497f9722a3daafe3b4186f6b6457e053616665436173743a2076616c756520646f65736e27742066697420696e20616e20696e743235365369676e6564536166654d6174683a207375627472616374696f6e206f766572666c6f7753616665436173743a2076616c756520646f65736e27742066697420696e2032342062697473a2646970667358221220b36f6224cf20ad06ad8e8a220a527abae474bda63a59f08a7829c81495a920c064736f6c63430007060033",
  "devdoc": {
    "kind": "dev",
    "methods": {
      "candidate()": {
        "details": "Returns the candidate that can become the owner."
      },
      "deregisterBaseToken(address,address)": {
        "details": "Only used by `ClearingHouse` contract, this function is expensive, due to for loop",
        "params": {
          "baseToken": "The address of the trader's base token",
          "trader": "The address of the trader"
        }
      },
      "getAccountInfo(address,address)": {
        "params": {
          "baseToken": "The address of baseToken",
          "trader": "The address of trader"
        },
        "returns": {
          "_0": "The baseToken account info of trader"
        }
      },
      "getBase(address,address)": {
        "details": "`base amount = takerPositionSize - orderBaseDebt`",
        "params": {
          "baseToken": "The address of baseToken",
          "trader": "The address of trader"
        },
        "returns": {
          "_0": "The base amount of trader's baseToken market"
        }
      },
      "getBaseTokens(address)": {
        "params": {
          "trader": "The address of trader"
        },
        "returns": {
          "_0": "The array of baseToken address"
        }
      },
      "getClearingHouseConfig()": {
        "returns": {
          "_0": "The address of ClearingHouseConfig"
        }
      },
      "getLiquidatablePositionSize(address,address,int256)": {
        "params": {
          "accountValue": "The account value of trader",
          "baseToken": "The address of baseToken",
          "trader": "The address of trader"
        },
        "returns": {
          "_0": "liquidatablePositionSize The liquidatable position size of trader's baseToken market"
        }
      },
      "getMarginRequirementForLiquidation(address)": {
        "details": "This is different from `Vault._getTotalMarginRequirement()`, which is for freeCollateral calculation",
        "params": {
          "trader": "The address of trader"
        },
        "returns": {
          "_0": "It is compared with `ClearingHouse.getAccountValue` which is also an int"
        }
      },
      "getOrderBook()": {
        "returns": {
          "_0": "The address of OrderBook"
        }
      },
      "getPnlAndPendingFee(address)": {
        "params": {
          "trader": "The address of trader"
        },
        "returns": {
          "_0": "the pnl realized already but stored temporarily in AccountBalance",
          "_1": "the pnl not yet realized",
          "_2": "the pending fee of maker earned"
        }
      },
      "getQuote(address,address)": {
        "details": "`quote amount = takerOpenNotional - orderQuoteDebt`",
        "params": {
          "baseToken": "The address of baseToken",
          "trader": "The address of trader"
        },
        "returns": {
          "_0": "The quote amount of trader's baseToken market"
        }
      },
      "getTakerOpenNotional(address,address)": {
        "params": {
          "baseToken": "The address of baseToken",
          "trader": "The address of trader"
        },
        "returns": {
          "_0": "The taker cost of trader's baseToken"
        }
      },
      "getTakerPositionSize(address,address)": {
        "details": "This will only has taker position, can get maker impermanent position through `getTotalPositionSize`",
        "params": {
          "baseToken": "The address of baseToken",
          "trader": "The address of trader"
        },
        "returns": {
          "_0": "The taker position size of trader's baseToken market"
        }
      },
      "getTotalAbsPositionValue(address)": {
        "params": {
          "trader": "The address of trader"
        },
        "returns": {
          "_0": "Sum up positions value of every market"
        }
      },
      "getTotalDebtValue(address)": {
        "details": "Total debt value will relate to `Vault.getFreeCollateral()`",
        "params": {
          "trader": "The address of trader"
        },
        "returns": {
          "_0": "The debt value of trader"
        }
      },
      "getTotalOpenNotional(address,address)": {
        "params": {
          "baseToken": "The address of baseToken",
          "trader": "The address of trader"
        },
        "returns": {
          "_0": "the amount of quote token paid for a position when opening"
        }
      },
      "getTotalPositionSize(address,address)": {
        "details": "`total position size = taker position size + maker impermanent position size`",
        "params": {
          "baseToken": "The address of baseToken",
          "trader": "The address of trader"
        },
        "returns": {
          "_0": "The total position size of trader's baseToken market"
        }
      },
      "getTotalPositionValue(address,address)": {
        "details": "A negative returned value is only be used when calculating pnl,we use `15 mins` twap to calc position value",
        "params": {
          "baseToken": "The address of baseToken",
          "trader": "The address of trader"
        },
        "returns": {
          "_0": "Total position value of trader's baseToken market"
        }
      },
      "getVault()": {
        "returns": {
          "_0": "The address of Vault"
        }
      },
      "hasOrder(address)": {
        "params": {
          "trader": "The address of trader"
        },
        "returns": {
          "_0": "True of false"
        }
      },
      "modifyOwedRealizedPnl(address,int256)": {
        "details": "Only used by `ClearingHouse` contract",
        "params": {
          "amount": "Modified amount of owedRealizedPnl",
          "trader": "The address of the trader"
        }
      },
      "modifyTakerBalance(address,address,int256,int256)": {
        "details": "Only used by `ClearingHouse` contract",
        "params": {
          "base": "Modified amount of base",
          "baseToken": "The address of the baseToken",
          "quote": "Modified amount of quote",
          "trader": "The address of the trader"
        },
        "returns": {
          "_0": "Taker position size after modified",
          "_1": "Taker open notional after modified"
        }
      },
      "owner()": {
        "details": "Returns the address of the current owner."
      },
      "registerBaseToken(address,address)": {
        "details": "Only used by `ClearingHouse` contract",
        "params": {
          "baseToken": "The address of the trader's base token",
          "trader": "The address of the trader"
        }
      },
      "renounceOwnership()": {
        "details": "Leaves the contract without owner. It will not be possible to call `onlyOwner` functions anymore. Can only be called by the current owner. NOTE: Renouncing ownership will leave the contract without an owner, thereby removing any functionality that is only available to the owner."
      },
      "setOwner(address)": {
        "details": "Set ownership of the contract to a new account (`newOwner`). Can only be called by the current owner."
      },
      "settleBalanceAndDeregister(address,address,int256,int256,int256,int256)": {
        "details": "Only used by `ClearingHouse` contract",
        "params": {
          "baseToken": "The address of the baseToken",
          "makerFee": "Amount of maker fee collected from pool",
          "realizedPnl": "Amount of pnl realized",
          "takerBase": "Modified amount of taker base",
          "takerQuote": "Modified amount of taker quote",
          "trader": "The address of the trader"
        }
      },
      "settleOwedRealizedPnl(address)": {
        "details": "Only used by `Vault.withdraw()`",
        "params": {
          "trader": "The address of the trader"
        },
        "returns": {
          "_0": "Settled owedRealizedPnl"
        }
      },
      "settlePositionInClosedMarket(address,address)": {
        "details": "we don't do swap to get position notional here.      we define the position notional in a closed market is `closed price * position size`",
        "params": {
          "baseToken": "The address of the trader's base token",
          "trader": "The address of the trader"
        },
        "returns": {
          "closedPrice": "The closed price of the closed market",
          "openNotional": "Taker's open notional",
          "positionNotional": "Taker's position notional settled with closed price",
          "realizedPnl": "Settled realized pnl"
        }
      },
      "settleQuoteToOwedRealizedPnl(address,address,int256)": {
        "details": "Only used by `ClearingHouse` contract",
        "params": {
          "amount": "Settled quote amount",
          "baseToken": "The address of the baseToken",
          "trader": "The address of the trader"
        }
      },
      "updateOwner()": {
        "details": "Transfers ownership of the contract to a new account (`_candidate`). Can only be called by the new owner."
      },
      "updateTwPremiumGrowthGlobal(address,address,int256)": {
        "details": "Only used by `ClearingHouse` contract",
        "params": {
          "baseToken": "The address of baseToken",
          "lastTwPremiumGrowthGlobalX96": "The last Twap Premium",
          "trader": "The address of trader"
        }
      }
    },
    "version": 1
  },
  "userdoc": {
    "kind": "user",
    "methods": {
      "deregisterBaseToken(address,address)": {
        "notice": "Deregister baseToken from trader accountInfo"
      },
      "getAccountInfo(address,address)": {
        "notice": "Get trader account info"
      },
      "getBase(address,address)": {
        "notice": "Get trader base amount"
      },
      "getBaseTokens(address)": {
        "notice": "Get trader registered baseTokens"
      },
      "getClearingHouseConfig()": {
        "notice": "Get `ClearingHouseConfig` address"
      },
      "getLiquidatablePositionSize(address,address,int256)": {
        "notice": "Get liquidatable position size of trader's baseToken market"
      },
      "getMarginRequirementForLiquidation(address)": {
        "notice": "Get margin requirement to check whether trader will be able to liquidate"
      },
      "getOrderBook()": {
        "notice": "Get `OrderBook` address"
      },
      "getPnlAndPendingFee(address)": {
        "notice": "Get owedRealizedPnl, unrealizedPnl and pending fee"
      },
      "getQuote(address,address)": {
        "notice": "Get trader quote amount"
      },
      "getTakerOpenNotional(address,address)": {
        "notice": "Get taker cost of trader's baseToken"
      },
      "getTakerPositionSize(address,address)": {
        "notice": "Get taker position size of trader's baseToken market"
      },
      "getTotalAbsPositionValue(address)": {
        "notice": "Get all market position abs value of trader"
      },
      "getTotalDebtValue(address)": {
        "notice": "Get total debt value of trader"
      },
      "getTotalOpenNotional(address,address)": {
        "notice": "Get total cost of trader's baseToken"
      },
      "getTotalPositionSize(address,address)": {
        "notice": "Get total position size of trader's baseToken market"
      },
      "getTotalPositionValue(address,address)": {
        "notice": "Get total position value of trader's baseToken market"
      },
      "getVault()": {
        "notice": "Get `Vault` address"
      },
      "hasOrder(address)": {
        "notice": "Check trader has open order in open/closed market."
      },
      "modifyOwedRealizedPnl(address,int256)": {
        "notice": "Modify trader owedRealizedPnl"
      },
      "modifyTakerBalance(address,address,int256,int256)": {
        "notice": "Modify trader account balance"
      },
      "registerBaseToken(address,address)": {
        "notice": "Every time a trader's position value is checked, the base token list of this trader will be traversed; thus, this list should be kept as short as possible"
      },
      "settleBalanceAndDeregister(address,address,int256,int256,int256,int256)": {
        "notice": "Settle account balance and deregister base token"
      },
      "settleOwedRealizedPnl(address)": {
        "notice": "Settle owedRealizedPnl"
      },
      "settlePositionInClosedMarket(address,address)": {
        "notice": "Settle trader's PnL in closed market"
      },
      "settleQuoteToOwedRealizedPnl(address,address,int256)": {
        "notice": "Modify trader owedRealizedPnl"
      },
      "updateTwPremiumGrowthGlobal(address,address,int256)": {
        "notice": "Update trader Twap premium info"
      }
    },
    "version": 1
  },
  "storageLayout": {
    "storage": [
      {
        "astId": 1158,
        "contract": "contracts/AccountBalance.sol:AccountBalance",
        "label": "_initialized",
        "offset": 0,
        "slot": "0",
        "type": "t_bool"
      },
      {
        "astId": 1161,
        "contract": "contracts/AccountBalance.sol:AccountBalance",
        "label": "_initializing",
        "offset": 1,
        "slot": "0",
        "type": "t_bool"
      },
      {
        "astId": 2475,
        "contract": "contracts/AccountBalance.sol:AccountBalance",
        "label": "__gap",
        "offset": 0,
        "slot": "1",
        "type": "t_array(t_uint256)50_storage"
      },
      {
        "astId": 27037,
        "contract": "contracts/AccountBalance.sol:AccountBalance",
        "label": "_owner",
        "offset": 0,
        "slot": "51",
        "type": "t_address"
      },
      {
        "astId": 27039,
        "contract": "contracts/AccountBalance.sol:AccountBalance",
        "label": "_candidate",
        "offset": 0,
        "slot": "52",
        "type": "t_address"
      },
      {
        "astId": 27043,
        "contract": "contracts/AccountBalance.sol:AccountBalance",
        "label": "__gap",
        "offset": 0,
        "slot": "53",
        "type": "t_array(t_uint256)50_storage"
      },
      {
        "astId": 26908,
        "contract": "contracts/AccountBalance.sol:AccountBalance",
        "label": "_clearingHouse",
        "offset": 0,
        "slot": "103",
        "type": "t_address"
      },
      {
        "astId": 26912,
        "contract": "contracts/AccountBalance.sol:AccountBalance",
        "label": "__gap",
        "offset": 0,
        "slot": "104",
        "type": "t_array(t_uint256)50_storage"
      },
      {
        "astId": 32221,
        "contract": "contracts/AccountBalance.sol:AccountBalance",
        "label": "_clearingHouseConfig",
        "offset": 0,
        "slot": "154",
        "type": "t_address"
      },
      {
        "astId": 32223,
        "contract": "contracts/AccountBalance.sol:AccountBalance",
        "label": "_orderBook",
        "offset": 0,
        "slot": "155",
        "type": "t_address"
      },
      {
        "astId": 32225,
        "contract": "contracts/AccountBalance.sol:AccountBalance",
        "label": "_vault",
        "offset": 0,
        "slot": "156",
        "type": "t_address"
      },
      {
        "astId": 32229,
        "contract": "contracts/AccountBalance.sol:AccountBalance",
        "label": "_owedRealizedPnlMap",
        "offset": 0,
        "slot": "157",
        "type": "t_mapping(t_address,t_int256)"
      },
      {
        "astId": 32234,
        "contract": "contracts/AccountBalance.sol:AccountBalance",
        "label": "_baseTokensMap",
        "offset": 0,
        "slot": "158",
        "type": "t_mapping(t_address,t_array(t_address)dyn_storage)"
      },
      {
        "astId": 32240,
        "contract": "contracts/AccountBalance.sol:AccountBalance",
        "label": "_accountMarketMap",
        "offset": 0,
        "slot": "159",
        "type": "t_mapping(t_address,t_mapping(t_address,t_struct(Info)29467_storage))"
      }
    ],
    "types": {
      "t_address": {
        "encoding": "inplace",
        "label": "address",
        "numberOfBytes": "20"
      },
      "t_array(t_address)dyn_storage": {
        "base": "t_address",
        "encoding": "dynamic_array",
        "label": "address[]",
        "numberOfBytes": "32"
      },
      "t_array(t_uint256)50_storage": {
        "base": "t_uint256",
        "encoding": "inplace",
        "label": "uint256[50]",
        "numberOfBytes": "1600"
      },
      "t_bool": {
        "encoding": "inplace",
        "label": "bool",
        "numberOfBytes": "1"
      },
      "t_int256": {
        "encoding": "inplace",
        "label": "int256",
        "numberOfBytes": "32"
      },
      "t_mapping(t_address,t_array(t_address)dyn_storage)": {
        "encoding": "mapping",
        "key": "t_address",
        "label": "mapping(address => address[])",
        "numberOfBytes": "32",
        "value": "t_array(t_address)dyn_storage"
      },
      "t_mapping(t_address,t_int256)": {
        "encoding": "mapping",
        "key": "t_address",
        "label": "mapping(address => int256)",
        "numberOfBytes": "32",
        "value": "t_int256"
      },
      "t_mapping(t_address,t_mapping(t_address,t_struct(Info)29467_storage))": {
        "encoding": "mapping",
        "key": "t_address",
        "label": "mapping(address => mapping(address => struct AccountMarket.Info))",
        "numberOfBytes": "32",
        "value": "t_mapping(t_address,t_struct(Info)29467_storage)"
      },
      "t_mapping(t_address,t_struct(Info)29467_storage)": {
        "encoding": "mapping",
        "key": "t_address",
        "label": "mapping(address => struct AccountMarket.Info)",
        "numberOfBytes": "32",
        "value": "t_struct(Info)29467_storage"
      },
      "t_struct(Info)29467_storage": {
        "encoding": "inplace",
        "label": "struct AccountMarket.Info",
        "members": [
          {
            "astId": 29462,
            "contract": "contracts/AccountBalance.sol:AccountBalance",
            "label": "takerPositionSize",
            "offset": 0,
            "slot": "0",
            "type": "t_int256"
          },
          {
            "astId": 29464,
            "contract": "contracts/AccountBalance.sol:AccountBalance",
            "label": "takerOpenNotional",
            "offset": 0,
            "slot": "1",
            "type": "t_int256"
          },
          {
            "astId": 29466,
            "contract": "contracts/AccountBalance.sol:AccountBalance",
            "label": "lastTwPremiumGrowthGlobalX96",
            "offset": 0,
            "slot": "2",
            "type": "t_int256"
          }
        ],
        "numberOfBytes": "96"
      },
      "t_uint256": {
        "encoding": "inplace",
        "label": "uint256",
        "numberOfBytes": "32"
      }
    }
  }
}