{
  "address": "0x36bdc0a2Eb0FF54D4Af1bA3Df8987E5efA83C7ce",
  "abi": [
    {
      "anonymous": false,
      "inputs": [
        {
          "indexed": true,
          "internalType": "address",
          "name": "owner",
          "type": "address"
        },
        {
          "indexed": true,
          "internalType": "address",
          "name": "spender",
          "type": "address"
        },
        {
          "indexed": false,
          "internalType": "uint256",
          "name": "value",
          "type": "uint256"
        }
      ],
      "name": "Approval",
      "type": "event"
    },
    {
      "anonymous": false,
      "inputs": [
        {
          "indexed": true,
          "internalType": "address",
          "name": "previousOwner",
          "type": "address"
        },
        {
          "indexed": true,
          "internalType": "address",
          "name": "newOwner",
          "type": "address"
        }
      ],
      "name": "OwnershipTransferred",
      "type": "event"
    },
    {
      "anonymous": false,
      "inputs": [
        {
          "indexed": true,
          "internalType": "address",
          "name": "priceFeed",
          "type": "address"
        }
      ],
      "name": "PriceFeedChanged",
      "type": "event"
    },
    {
      "anonymous": false,
      "inputs": [
        {
          "indexed": true,
          "internalType": "enum IBaseToken.Status",
          "name": "status",
          "type": "uint8"
        }
      ],
      "name": "StatusUpdated",
      "type": "event"
    },
    {
      "anonymous": false,
      "inputs": [
        {
          "indexed": true,
          "internalType": "address",
          "name": "from",
          "type": "address"
        },
        {
          "indexed": true,
          "internalType": "address",
          "name": "to",
          "type": "address"
        },
        {
          "indexed": false,
          "internalType": "uint256",
          "name": "value",
          "type": "uint256"
        }
      ],
      "name": "Transfer",
      "type": "event"
    },
    {
      "anonymous": false,
      "inputs": [
        {
          "indexed": false,
          "internalType": "address",
          "name": "account",
          "type": "address"
        }
      ],
      "name": "WhitelistAdded",
      "type": "event"
    },
    {
      "anonymous": false,
      "inputs": [
        {
          "indexed": false,
          "internalType": "address",
          "name": "account",
          "type": "address"
        }
      ],
      "name": "WhitelistRemoved",
      "type": "event"
    },
    {
      "inputs": [
        {
          "internalType": "address",
          "name": "account",
          "type": "address"
        }
      ],
      "name": "addWhitelist",
      "outputs": [],
      "stateMutability": "nonpayable",
      "type": "function"
    },
    {
      "inputs": [
        {
          "internalType": "address",
          "name": "owner",
          "type": "address"
        },
        {
          "internalType": "address",
          "name": "spender",
          "type": "address"
        }
      ],
      "name": "allowance",
      "outputs": [
        {
          "internalType": "uint256",
          "name": "",
          "type": "uint256"
        }
      ],
      "stateMutability": "view",
      "type": "function"
    },
    {
      "inputs": [
        {
          "internalType": "address",
          "name": "spender",
          "type": "address"
        },
        {
          "internalType": "uint256",
          "name": "amount",
          "type": "uint256"
        }
      ],
      "name": "approve",
      "outputs": [
        {
          "internalType": "bool",
          "name": "",
          "type": "bool"
        }
      ],
      "stateMutability": "nonpayable",
      "type": "function"
    },
    {
      "inputs": [
        {
          "internalType": "address",
          "name": "account",
          "type": "address"
        }
      ],
      "name": "balanceOf",
      "outputs": [
        {
          "internalType": "uint256",
          "name": "",
          "type": "uint256"
        }
      ],
      "stateMutability": "view",
      "type": "function"
    },
    {
      "inputs": [
        {
          "internalType": "uint256",
          "name": "interval",
          "type": "uint256"
        }
      ],
      "name": "cacheTwap",
      "outputs": [],
      "stateMutability": "nonpayable",
      "type": "function"
    },
    {
      "inputs": [],
      "name": "candidate",
      "outputs": [
        {
          "internalType": "address",
          "name": "",
          "type": "address"
        }
      ],
      "stateMutability": "view",
      "type": "function"
    },
    {
      "inputs": [
        {
          "internalType": "uint256",
          "name": "closedPrice",
          "type": "uint256"
        }
      ],
      "name": "close",
      "outputs": [],
      "stateMutability": "nonpayable",
      "type": "function"
    },
    {
      "inputs": [],
      "name": "close",
      "outputs": [],
      "stateMutability": "nonpayable",
      "type": "function"
    },
    {
      "inputs": [],
      "name": "decimals",
      "outputs": [
        {
          "internalType": "uint8",
          "name": "",
          "type": "uint8"
        }
      ],
      "stateMutability": "view",
      "type": "function"
    },
    {
      "inputs": [
        {
          "internalType": "address",
          "name": "spender",
          "type": "address"
        },
        {
          "internalType": "uint256",
          "name": "subtractedValue",
          "type": "uint256"
        }
      ],
      "name": "decreaseAllowance",
      "outputs": [
        {
          "internalType": "bool",
          "name": "",
          "type": "bool"
        }
      ],
      "stateMutability": "nonpayable",
      "type": "function"
    },
    {
      "inputs": [],
      "name": "getClosedPrice",
      "outputs": [
        {
          "internalType": "uint256",
          "name": "",
          "type": "uint256"
        }
      ],
      "stateMutability": "view",
      "type": "function"
    },
    {
      "inputs": [
        {
          "internalType": "uint256",
          "name": "interval",
          "type": "uint256"
        }
      ],
      "name": "getIndexPrice",
      "outputs": [
        {
          "internalType": "uint256",
          "name": "",
          "type": "uint256"
        }
      ],
      "stateMutability": "view",
      "type": "function"
    },
    {
      "inputs": [],
      "name": "getPausedIndexPrice",
      "outputs": [
        {
          "internalType": "uint256",
          "name": "",
          "type": "uint256"
        }
      ],
      "stateMutability": "view",
      "type": "function"
    },
    {
      "inputs": [],
      "name": "getPausedTimestamp",
      "outputs": [
        {
          "internalType": "uint256",
          "name": "",
          "type": "uint256"
        }
      ],
      "stateMutability": "view",
      "type": "function"
    },
    {
      "inputs": [],
      "name": "getPriceFeed",
      "outputs": [
        {
          "internalType": "address",
          "name": "",
          "type": "address"
        }
      ],
      "stateMutability": "view",
      "type": "function"
    },
    {
      "inputs": [
        {
          "internalType": "address",
          "name": "spender",
          "type": "address"
        },
        {
          "internalType": "uint256",
          "name": "addedValue",
          "type": "uint256"
        }
      ],
      "name": "increaseAllowance",
      "outputs": [
        {
          "internalType": "bool",
          "name": "",
          "type": "bool"
        }
      ],
      "stateMutability": "nonpayable",
      "type": "function"
    },
    {
      "inputs": [
        {
          "internalType": "string",
          "name": "nameArg",
          "type": "string"
        },
        {
          "internalType": "string",
          "name": "symbolArg",
          "type": "string"
        },
        {
          "internalType": "address",
          "name": "priceFeedArg",
          "type": "address"
        }
      ],
      "name": "initialize",
      "outputs": [],
      "stateMutability": "nonpayable",
      "type": "function"
    },
    {
      "inputs": [],
      "name": "isClosed",
      "outputs": [
        {
          "internalType": "bool",
          "name": "",
          "type": "bool"
        }
      ],
      "stateMutability": "view",
      "type": "function"
    },
    {
      "inputs": [
        {
          "internalType": "address",
          "name": "account",
          "type": "address"
        }
      ],
      "name": "isInWhitelist",
      "outputs": [
        {
          "internalType": "bool",
          "name": "",
          "type": "bool"
        }
      ],
      "stateMutability": "view",
      "type": "function"
    },
    {
      "inputs": [],
      "name": "isOpen",
      "outputs": [
        {
          "internalType": "bool",
          "name": "",
          "type": "bool"
        }
      ],
      "stateMutability": "view",
      "type": "function"
    },
    {
      "inputs": [],
      "name": "isPaused",
      "outputs": [
        {
          "internalType": "bool",
          "name": "",
          "type": "bool"
        }
      ],
      "stateMutability": "view",
      "type": "function"
    },
    {
      "inputs": [
        {
          "internalType": "address",
          "name": "recipient",
          "type": "address"
        }
      ],
      "name": "mintMaximumTo",
      "outputs": [],
      "stateMutability": "nonpayable",
      "type": "function"
    },
    {
      "inputs": [],
      "name": "name",
      "outputs": [
        {
          "internalType": "string",
          "name": "",
          "type": "string"
        }
      ],
      "stateMutability": "view",
      "type": "function"
    },
    {
      "inputs": [],
      "name": "owner",
      "outputs": [
        {
          "internalType": "address",
          "name": "",
          "type": "address"
        }
      ],
      "stateMutability": "view",
      "type": "function"
    },
    {
      "inputs": [],
      "name": "pause",
      "outputs": [],
      "stateMutability": "nonpayable",
      "type": "function"
    },
    {
      "inputs": [
        {
          "internalType": "address",
          "name": "account",
          "type": "address"
        }
      ],
      "name": "removeWhitelist",
      "outputs": [],
      "stateMutability": "nonpayable",
      "type": "function"
    },
    {
      "inputs": [],
      "name": "renounceOwnership",
      "outputs": [],
      "stateMutability": "nonpayable",
      "type": "function"
    },
    {
      "inputs": [
        {
          "internalType": "address",
          "name": "newOwner",
          "type": "address"
        }
      ],
      "name": "setOwner",
      "outputs": [],
      "stateMutability": "nonpayable",
      "type": "function"
    },
    {
      "inputs": [
        {
          "internalType": "address",
          "name": "priceFeedArg",
          "type": "address"
        }
      ],
      "name": "setPriceFeed",
      "outputs": [],
      "stateMutability": "nonpayable",
      "type": "function"
    },
    {
      "inputs": [],
      "name": "symbol",
      "outputs": [
        {
          "internalType": "string",
          "name": "",
          "type": "string"
        }
      ],
      "stateMutability": "view",
      "type": "function"
    },
    {
      "inputs": [],
      "name": "totalSupply",
      "outputs": [
        {
          "internalType": "uint256",
          "name": "",
          "type": "uint256"
        }
      ],
      "stateMutability": "view",
      "type": "function"
    },
    {
      "inputs": [
        {
          "internalType": "address",
          "name": "recipient",
          "type": "address"
        },
        {
          "internalType": "uint256",
          "name": "amount",
          "type": "uint256"
        }
      ],
      "name": "transfer",
      "outputs": [
        {
          "internalType": "bool",
          "name": "",
          "type": "bool"
        }
      ],
      "stateMutability": "nonpayable",
      "type": "function"
    },
    {
      "inputs": [
        {
          "internalType": "address",
          "name": "sender",
          "type": "address"
        },
        {
          "internalType": "address",
          "name": "recipient",
          "type": "address"
        },
        {
          "internalType": "uint256",
          "name": "amount",
          "type": "uint256"
        }
      ],
      "name": "transferFrom",
      "outputs": [
        {
          "internalType": "bool",
          "name": "",
          "type": "bool"
        }
      ],
      "stateMutability": "nonpayable",
      "type": "function"
    },
    {
      "inputs": [],
      "name": "updateOwner",
      "outputs": [],
      "stateMutability": "nonpayable",
      "type": "function"
    }
  ],
  "transactionHash": "0xe0f2def4a9af37f1e94abe19ed3f5ff50f38f542ec1a624fd892582a5b4d3a63",
  "args": [],
  "numDeployments": 1,
  "solcInputHash": "7a16bbbc5c6fea2b6505d4631b28aae2",
  "bytecode": "0x608060405234801561001057600080fd5b506122ee806100206000396000f3fe608060405234801561001057600080fd5b50600436106101c65760003560e01c806370a08231116100fa578063a457c2d71161009d578063a457c2d7146105d9578063a9059cbb14610605578063b187bd2614610631578063bc5920ba14610639578063c2b6b58c14610641578063dd62ed3e14610649578063f52e308e14610677578063f80f5dd51461069d578063fe343461146106c3576101c6565b806370a082311461053f578063715018a614610565578063724e78da1461056d57806378c8cda7146105935780638456cb59146105b95780638da5cb5b146105c157806395d89b41146105c95780639e87a5cd146105d1576101c6565b80631c2ab4051161016d5780631c2ab4051461045e5780631d1a111a1461046657806323b872dd14610483578063313ce567146104b957806339509351146104d757806343d726d61461050357806347535d7b1461050b57806357a48b01146105135780636c8381f81461051b576101c6565b806306fdde03146101cb578063077f224a14610248578063095ea7b31461037e57806309fd8212146103be5780630aebeb4e146103e4578063120806471461040157806313af40351461043057806318160ddd14610456575b600080fd5b6101d36106cb565b6040805160208082528351818301528351919283929083019185019080838360005b8381101561020d5781810151838201526020016101f5565b50505050905090810190601f16801561023a5780820380516001836020036101000a031916815260200191505b509250505060405180910390f35b61037c6004803603606081101561025e57600080fd5b810190602081018135600160201b81111561027857600080fd5b82018360208201111561028a57600080fd5b803590602001918460018302840111600160201b831117156102ab57600080fd5b91908080601f0160208091040260200160405190810160405280939291908181526020018383808284376000920191909152509295949360208101935035915050600160201b8111156102fd57600080fd5b82018360208201111561030f57600080fd5b803590602001918460018302840111600160201b8311171561033057600080fd5b91908080601f016020809104026020016040519081016040528093929190818152602001838380828437600092019190915250929550505090356001600160a01b031691506107619050565b005b6103aa6004803603604081101561039457600080fd5b506001600160a01b0381351690602001356108f3565b604080519115158252519081900360200190f35b6103aa600480360360208110156103d457600080fd5b50356001600160a01b0316610911565b61037c600480360360208110156103fa57600080fd5b5035610933565b61041e6004803603602081101561041757600080fd5b50356109f0565b60408051918252519081900360200190f35b61037c6004803603602081101561044657600080fd5b50356001600160a01b0316610aa3565b61041e610bfe565b61041e610c04565b61037c6004803603602081101561047c57600080fd5b5035610c0a565b6103aa6004803603606081101561049957600080fd5b506001600160a01b03813581169160208101359091169060400135610c94565b6104c1610d1b565b6040805160ff9092168252519081900360200190f35b6103aa600480360360408110156104ed57600080fd5b506001600160a01b038135169060200135610d24565b61037c610d72565b6103aa610e1f565b61041e610e41565b610523610e9e565b604080516001600160a01b039092168252519081900360200190f35b61041e6004803603602081101561055557600080fd5b50356001600160a01b0316610ead565b61037c610ec8565b61037c6004803603602081101561058357600080fd5b50356001600160a01b0316610f69565b61037c600480360360208110156105a957600080fd5b50356001600160a01b03166110dc565b61037c6111d5565b6105236112f5565b6101d3611304565b610523611365565b6103aa600480360360408110156105ef57600080fd5b506001600160a01b038135169060200135611379565b6103aa6004803603604081101561061b57600080fd5b506001600160a01b0381351690602001356113e1565b6103aa6113f5565b61037c6113fe565b6103aa6114ea565b61041e6004803603604081101561065f57600080fd5b506001600160a01b03813581169160200135166114f3565b61037c6004803603602081101561068d57600080fd5b50356001600160a01b031661151e565b61037c600480360360208110156106b357600080fd5b50356001600160a01b0316611587565b61041e61163f565b606a8054604080516020601f60026000196101006001881615020190951694909404938401819004810282018101909252828152606093909290918301828280156107575780601f1061072c57610100808354040283529160200191610757565b820191906000526020600020905b81548152906001019060200180831161073a57829003601f168201915b5050505050905090565b600054610100900460ff168061077a575061077a611645565b80610788575060005460ff16155b6107c35760405162461bcd60e51b815260040180806020018281038252602e8152602001806121b4602e913960400191505060405180910390fd5b600054610100900460ff161580156107ee576000805460ff1961ff0019909116610100171660011790555b6107f88484611656565b6000826001600160a01b031663313ce5676040518163ffffffff1660e01b815260040160206040518083038186803b15801561083357600080fd5b505afa158015610847573d6000803e3d6000fd5b505050506040513d602081101561085d57600080fd5b50519050610869610d1b565b60ff168160ff1611156108ad576040805162461bcd60e51b8152602060048201526007602482015266109517d254119160ca1b604482015290519081900360640190fd5b60cc8054610100600160a81b0319166101006001600160a01b038616021760ff191660ff9290921691909117905580156108ed576000805461ff00191690555b50505050565b600061090761090061170b565b848461170f565b5060015b92915050565b6001600160a01b03811660009081526099602052604090205460ff165b919050565b61093b61170b565b6001600160a01b031661094c6112f5565b6001600160a01b031614610990576040805162461bcd60e51b8152602060048201526006602482015265534f5f434e4f60d01b604482015290519081900360640190fd5b600160cc54600160a81b900460ff1660028111156109aa57fe5b146109e4576040805162461bcd60e51b8152602060048201526005602482015264042545f4e560dc1b604482015290519081900360640190fd5b6109ed816117fb565b50565b60008060cc54600160a81b900460ff166002811115610a0b57fe5b1415610a9b5760cc5460408051630e75722360e41b8152600481018590529051610a949261010090046001600160a01b03169163e7572230916024808301926020929190829003018186803b158015610a6357600080fd5b505afa158015610a77573d6000803e3d6000fd5b505050506040513d6020811015610a8d57600080fd5b5051611856565b905061092e565b505060cd5490565b610aab61170b565b6001600160a01b0316610abc6112f5565b6001600160a01b031614610b00576040805162461bcd60e51b8152602060048201526006602482015265534f5f434e4f60d01b604482015290519081900360640190fd5b6001600160a01b038116610b44576040805162461bcd60e51b81526020600482015260066024820152650534f5f4e57360d41b604482015290519081900360640190fd5b6033546001600160a01b0382811691161415610b90576040805162461bcd60e51b8152602060048201526006602482015265534f5f53414f60d01b604482015290519081900360640190fd5b6034546001600160a01b0382811691161415610bdc576040805162461bcd60e51b8152602060048201526006602482015265534f5f53414360d01b604482015290519081900360640190fd5b603480546001600160a01b0319166001600160a01b0392909216919091179055565b60695490565b60cd5490565b60cc60019054906101000a90046001600160a01b03166001600160a01b0316631d1a111a826040518263ffffffff1660e01b815260040180828152602001915050602060405180830381600087803b158015610c6557600080fd5b505af1158015610c79573d6000803e3d6000fd5b505050506040513d6020811015610c8f57600080fd5b505050565b6000610ca1848484611882565b610d1184610cad61170b565b610d0c85604051806060016040528060288152602001612203602891396001600160a01b038a16600090815260686020526040812090610ceb61170b565b6001600160a01b0316815260208101919091526040016000205491906119df565b61170f565b5060019392505050565b606c5460ff1690565b6000610907610d3161170b565b84610d0c8560686000610d4261170b565b6001600160a01b03908116825260208083019390935260409182016000908120918c168152925290205490611a76565b600160cc54600160a81b900460ff166002811115610d8c57fe5b14610dc6576040805162461bcd60e51b8152602060048201526005602482015264042545f4e560dc1b604482015290519081900360640190fd5b6206978060ce5401610dd6611ad7565b11610e12576040805162461bcd60e51b815260206004820152600760248201526642545f57504e4560c81b604482015290519081900360640190fd5b610e1d60cd546117fb565b565b6000805b60cc54600160a81b900460ff166002811115610e3b57fe5b14905090565b6000600260cc54600160a81b900460ff166002811115610e5d57fe5b14610e97576040805162461bcd60e51b815260206004820152600560248201526442545f4e4360d81b604482015290519081900360640190fd5b5060cf5490565b6034546001600160a01b031690565b6001600160a01b031660009081526067602052604090205490565b610ed061170b565b6001600160a01b0316610ee16112f5565b6001600160a01b031614610f25576040805162461bcd60e51b8152602060048201526006602482015265534f5f434e4f60d01b604482015290519081900360640190fd5b6033546040516000916001600160a01b03169060008051602061222b833981519152908390a3603380546001600160a01b0319908116909155603480549091169055565b610f7161170b565b6001600160a01b0316610f826112f5565b6001600160a01b031614610fc6576040805162461bcd60e51b8152602060048201526006602482015265534f5f434e4f60d01b604482015290519081900360640190fd5b6000816001600160a01b031663313ce5676040518163ffffffff1660e01b815260040160206040518083038186803b15801561100157600080fd5b505afa158015611015573d6000803e3d6000fd5b505050506040513d602081101561102b57600080fd5b50519050611037610d1b565b60ff168160ff16111561107b576040805162461bcd60e51b8152602060048201526007602482015266109517d254119160ca1b604482015290519081900360640190fd5b60cc8054610100600160a81b0319166101006001600160a01b0385811682029290921760ff191660ff85161792839055604051920416907f70880247142cf113e15f57599afcb48f4cdd196159d882cda54475da68ea996190600090a25050565b6110e461170b565b6001600160a01b03166110f56112f5565b6001600160a01b031614611139576040805162461bcd60e51b8152602060048201526006602482015265534f5f434e4f60d01b604482015290519081900360640190fd5b61114281610ead565b1561117d576040805162461bcd60e51b81526020600482015260066024820152652b2a2fa1272d60d11b604482015290519081900360640190fd5b6001600160a01b038116600081815260996020908152604091829020805460ff19169055815192835290517fde8cf212af7ce38b2840785a2768d97ff2dbf3c21b516961cec0061e134c2a1e9281900390910190a150565b6111dd61170b565b6001600160a01b03166111ee6112f5565b6001600160a01b031614611232576040805162461bcd60e51b8152602060048201526006602482015265534f5f434e4f60d01b604482015290519081900360640190fd5b600060cc54600160a81b900460ff16600281111561124c57fe5b14611286576040805162461bcd60e51b815260206004820152600560248201526442545f4e4f60d81b604482015290519081900360640190fd5b6112916103846109f0565b60cd5560cc805460ff60a81b1916600160a81b1790556112af611ad7565b60ce5560cc54600160a81b900460ff1660028111156112ca57fe5b6040517f7101a660456a4e2f94e6b0ccd3d6a034724e26130a817471aaf5a3de8fba384a90600090a2565b6033546001600160a01b031690565b606b8054604080516020601f60026000196101006001881615020190951694909404938401819004810282018101909252828152606093909290918301828280156107575780601f1061072c57610100808354040283529160200191610757565b60cc5461010090046001600160a01b031690565b600061090761138661170b565b84610d0c8560405180606001604052806025815260200161229460259139606860006113b061170b565b6001600160a01b03908116825260208083019390935260409182016000908120918d168152925290205491906119df565b60006109076113ee61170b565b8484611882565b60006001610e23565b6034546001600160a01b0316611443576040805162461bcd60e51b81526020600482015260056024820152640534f5f43360dc1b604482015290519081900360640190fd5b61144b61170b565b6034546001600160a01b03908116911614611496576040805162461bcd60e51b8152602060048201526006602482015265534f5f434e4360d01b604482015290519081900360640190fd5b6034546033546040516001600160a01b03928316929091169060008051602061222b83398151915290600090a360348054603380546001600160a01b03199081166001600160a01b03841617909155169055565b60006002610e23565b6001600160a01b03918216600090815260686020908152604080832093909416825291909152205490565b61152661170b565b6001600160a01b03166115376112f5565b6001600160a01b03161461157b576040805162461bcd60e51b8152602060048201526006602482015265534f5f434e4f60d01b604482015290519081900360640190fd5b6109ed81600019611adb565b61158f61170b565b6001600160a01b03166115a06112f5565b6001600160a01b0316146115e4576040805162461bcd60e51b8152602060048201526006602482015265534f5f434e4f60d01b604482015290519081900360640190fd5b6001600160a01b038116600081815260996020908152604091829020805460ff19166001179055815192835290517f4790a4adb426ca2345bb5108f6e454eae852a7bf687544cd66a7270dff3a41d69281900390910190a150565b60ce5490565b600061165030611bcd565b15905090565b600054610100900460ff168061166f575061166f611645565b8061167d575060005460ff16155b6116b85760405162461bcd60e51b815260040180806020018281038252602e8152602001806121b4602e913960400191505060405180910390fd5b600054610100900460ff161580156116e3576000805460ff1961ff0019909116610100171660011790555b6116eb611bd3565b6116f58383611cc2565b8015610c8f576000805461ff0019169055505050565b3390565b6001600160a01b0383166117545760405162461bcd60e51b81526004018080602001828103825260248152602001806122706024913960400191505060405180910390fd5b6001600160a01b0382166117995760405162461bcd60e51b815260040180806020018281038252602281526020018061216c6022913960400191505060405180910390fd5b6001600160a01b03808416600081815260686020908152604080832094871680845294825291829020859055815185815291517f8c5be1e5ebec7d5bd14f71427d1e84f3dd0314c0f7b2291e5b200ac8c7c3b9259281900390910190a3505050565b60cc805460ff60a81b1916600160a91b179081905560cf829055600160a81b900460ff16600281111561182a57fe5b6040517f7101a660456a4e2f94e6b0ccd3d6a034724e26130a817471aaf5a3de8fba384a90600090a250565b60cc5460009061090b906118789060ff1661186f610d1b565b60ff1690611d61565b8390600a0a611dbe565b6001600160a01b0383166118c75760405162461bcd60e51b815260040180806020018281038252602581526020018061224b6025913960400191505060405180910390fd5b6001600160a01b03821661190c5760405162461bcd60e51b81526004018080602001828103825260238152602001806121496023913960400191505060405180910390fd5b611917838383611e17565b6119548160405180606001604052806026815260200161218e602691396001600160a01b03861660009081526067602052604090205491906119df565b6001600160a01b0380851660009081526067602052604080822093909355908416815220546119839082611a76565b6001600160a01b0380841660008181526067602090815260409182902094909455805185815290519193928716927fddf252ad1be2c89b69c2b068fc378daa952ba7f163c4a11628f55a4df523b3ef92918290030190a3505050565b60008184841115611a6e5760405162461bcd60e51b81526004018080602001828103825283818151815260200191508051906020019080838360005b83811015611a33578181015183820152602001611a1b565b50505050905090810190601f168015611a605780820380516001836020036101000a031916815260200191505b509250505060405180910390fd5b505050900390565b600082820183811015611ad0576040805162461bcd60e51b815260206004820152601b60248201527f536166654d6174683a206164646974696f6e206f766572666c6f770000000000604482015290519081900360640190fd5b9392505050565b4290565b6001600160a01b038216611b36576040805162461bcd60e51b815260206004820152601f60248201527f45524332303a206d696e7420746f20746865207a65726f206164647265737300604482015290519081900360640190fd5b611b4260008383611e17565b606954611b4f9082611a76565b6069556001600160a01b038216600090815260676020526040902054611b759082611a76565b6001600160a01b03831660008181526067602090815260408083209490945583518581529351929391927fddf252ad1be2c89b69c2b068fc378daa952ba7f163c4a11628f55a4df523b3ef9281900390910190a35050565b3b151590565b600054610100900460ff1680611bec5750611bec611645565b80611bfa575060005460ff16155b611c355760405162461bcd60e51b815260040180806020018281038252602e8152602001806121b4602e913960400191505060405180910390fd5b600054610100900460ff16158015611c60576000805460ff1961ff0019909116610100171660011790555b611c68611e86565b6000611c7261170b565b603380546001600160a01b0319166001600160a01b0383169081179091556040519192509060009060008051602061222b833981519152908290a35080156109ed576000805461ff001916905550565b600054610100900460ff1680611cdb5750611cdb611645565b80611ce9575060005460ff16155b611d245760405162461bcd60e51b815260040180806020018281038252602e8152602001806121b4602e913960400191505060405180910390fd5b600054610100900460ff16158015611d4f576000805460ff1961ff0019909116610100171660011790555b611d57611f2f565b6116f58383611fcf565b600082821115611db8576040805162461bcd60e51b815260206004820152601e60248201527f536166654d6174683a207375627472616374696f6e206f766572666c6f770000604482015290519081900360640190fd5b50900390565b600082611dcd5750600061090b565b82820282848281611dda57fe5b0414611ad05760405162461bcd60e51b81526004018080602001828103825260218152602001806121e26021913960400191505060405180910390fd5b611e22838383610c8f565b6001600160a01b03831615610c8f576001600160a01b03831660009081526099602052604090205460ff16610c8f576040805162461bcd60e51b815260206004820152600560248201526456545f4e5760d81b604482015290519081900360640190fd5b600054610100900460ff1680611e9f5750611e9f611645565b80611ead575060005460ff16155b611ee85760405162461bcd60e51b815260040180806020018281038252602e8152602001806121b4602e913960400191505060405180910390fd5b600054610100900460ff16158015611f13576000805460ff1961ff0019909116610100171660011790555b611f1b611f2f565b80156109ed576000805461ff001916905550565b600054610100900460ff1680611f485750611f48611645565b80611f56575060005460ff16155b611f915760405162461bcd60e51b815260040180806020018281038252602e8152602001806121b4602e913960400191505060405180910390fd5b600054610100900460ff16158015611f1b576000805460ff1961ff00199091166101001716600117905580156109ed576000805461ff001916905550565b600054610100900460ff1680611fe85750611fe8611645565b80611ff6575060005460ff16155b6120315760405162461bcd60e51b815260040180806020018281038252602e8152602001806121b4602e913960400191505060405180910390fd5b600054610100900460ff1615801561205c576000805460ff1961ff0019909116610100171660011790555b825161206f90606a9060208601906120a7565b50815161208390606b9060208501906120a7565b50606c805460ff191660121790558015610c8f576000805461ff0019169055505050565b828054600181600116156101000203166002900490600052602060002090601f0160209004810192826120dd5760008555612123565b82601f106120f657805160ff1916838001178555612123565b82800160010185558215612123579182015b82811115612123578251825591602001919060010190612108565b5061212f929150612133565b5090565b5b8082111561212f576000815560010161213456fe45524332303a207472616e7366657220746f20746865207a65726f206164647265737345524332303a20617070726f766520746f20746865207a65726f206164647265737345524332303a207472616e7366657220616d6f756e7420657863656564732062616c616e6365496e697469616c697a61626c653a20636f6e747261637420697320616c726561647920696e697469616c697a6564536166654d6174683a206d756c7469706c69636174696f6e206f766572666c6f7745524332303a207472616e7366657220616d6f756e74206578636565647320616c6c6f77616e63658be0079c531659141344cd1fd0a4f28419497f9722a3daafe3b4186f6b6457e045524332303a207472616e736665722066726f6d20746865207a65726f206164647265737345524332303a20617070726f76652066726f6d20746865207a65726f206164647265737345524332303a2064656372656173656420616c6c6f77616e63652062656c6f77207a65726fa26469706673582212202b02c273f0faa6a769a82466b441732c83e36c5161b939aaf8ff6c418d79319964736f6c63430007060033",
  "devdoc": {
    "kind": "dev",
    "methods": {
      "allowance(address,address)": {
        "details": "See {IERC20-allowance}."
      },
      "approve(address,uint256)": {
        "details": "See {IERC20-approve}. Requirements: - `spender` cannot be the zero address."
      },
      "balanceOf(address)": {
        "details": "See {IERC20-balanceOf}."
      },
      "cacheTwap(uint256)": {
        "params": {
          "interval": "The twap interval in seconds."
        }
      },
      "candidate()": {
        "details": "Returns the candidate that can become the owner."
      },
      "decimals()": {
        "details": "Returns the number of decimals used to get its user representation. For example, if `decimals` equals `2`, a balance of `505` tokens should be displayed to a user as `5,05` (`505 / 10 ** 2`). Tokens usually opt for a value of 18, imitating the relationship between Ether and Wei. This is the value {ERC20} uses, unless {_setupDecimals} is called. NOTE: This information is only used for _display_ purposes: it in no way affects any of the arithmetic of the contract, including {IERC20-balanceOf} and {IERC20-transfer}."
      },
      "decreaseAllowance(address,uint256)": {
        "details": "Atomically decreases the allowance granted to `spender` by the caller. This is an alternative to {approve} that can be used as a mitigation for problems described in {IERC20-approve}. Emits an {Approval} event indicating the updated allowance. Requirements: - `spender` cannot be the zero address. - `spender` must have allowance for the caller of at least `subtractedValue`."
      },
      "getIndexPrice(uint256)": {
        "details": "we overwrite the index price in BaseToken depending on the status      1. Open: the price is from the price feed      2. Paused or Closed: the price is twap when the token was paused",
        "params": {
          "interval": "The interval represents twap interval."
        },
        "returns": {
          "_0": "Twap price with interval"
        }
      },
      "getPriceFeed()": {
        "returns": {
          "_0": "the current price feed"
        }
      },
      "increaseAllowance(address,uint256)": {
        "details": "Atomically increases the allowance granted to `spender` by the caller. This is an alternative to {approve} that can be used as a mitigation for problems described in {IERC20-approve}. Emits an {Approval} event indicating the updated allowance. Requirements: - `spender` cannot be the zero address."
      },
      "name()": {
        "details": "Returns the name of the token."
      },
      "owner()": {
        "details": "Returns the address of the current owner."
      },
      "renounceOwnership()": {
        "details": "Leaves the contract without owner. It will not be possible to call `onlyOwner` functions anymore. Can only be called by the current owner. NOTE: Renouncing ownership will leave the contract without an owner, thereby removing any functionality that is only available to the owner."
      },
      "setOwner(address)": {
        "details": "Set ownership of the contract to a new account (`newOwner`). Can only be called by the current owner."
      },
      "symbol()": {
        "details": "Returns the symbol of the token, usually a shorter version of the name."
      },
      "totalSupply()": {
        "details": "See {IERC20-totalSupply}."
      },
      "transfer(address,uint256)": {
        "details": "See {IERC20-transfer}. Requirements: - `recipient` cannot be the zero address. - the caller must have a balance of at least `amount`."
      },
      "transferFrom(address,address,uint256)": {
        "details": "See {IERC20-transferFrom}. Emits an {Approval} event indicating the updated allowance. This is not required by the EIP. See the note at the beginning of {ERC20}. Requirements: - `sender` and `recipient` cannot be the zero address. - `sender` must have a balance of at least `amount`. - the caller must have allowance for ``sender``'s tokens of at least `amount`."
      },
      "updateOwner()": {
        "details": "Transfers ownership of the contract to a new account (`_candidate`). Can only be called by the new owner."
      }
    },
    "version": 1
  },
  "userdoc": {
    "kind": "user",
    "methods": {
      "cacheTwap(uint256)": {
        "notice": "Update the cached index price of the token."
      },
      "getIndexPrice(uint256)": {
        "notice": "Returns the index price of the token."
      },
      "getPriceFeed()": {
        "notice": "Get the price feed address"
      }
    },
    "version": 1
  },
  "storageLayout": {
    "storage": [
      {
        "astId": 1158,
        "contract": "contracts/BaseToken.sol:BaseToken",
        "label": "_initialized",
        "offset": 0,
        "slot": "0",
        "type": "t_bool"
      },
      {
        "astId": 1161,
        "contract": "contracts/BaseToken.sol:BaseToken",
        "label": "_initializing",
        "offset": 1,
        "slot": "0",
        "type": "t_bool"
      },
      {
        "astId": 2475,
        "contract": "contracts/BaseToken.sol:BaseToken",
        "label": "__gap",
        "offset": 0,
        "slot": "1",
        "type": "t_array(t_uint256)50_storage"
      },
      {
        "astId": 27037,
        "contract": "contracts/BaseToken.sol:BaseToken",
        "label": "_owner",
        "offset": 0,
        "slot": "51",
        "type": "t_address"
      },
      {
        "astId": 27039,
        "contract": "contracts/BaseToken.sol:BaseToken",
        "label": "_candidate",
        "offset": 0,
        "slot": "52",
        "type": "t_address"
      },
      {
        "astId": 27043,
        "contract": "contracts/BaseToken.sol:BaseToken",
        "label": "__gap",
        "offset": 0,
        "slot": "53",
        "type": "t_array(t_uint256)50_storage"
      },
      {
        "astId": 1386,
        "contract": "contracts/BaseToken.sol:BaseToken",
        "label": "_balances",
        "offset": 0,
        "slot": "103",
        "type": "t_mapping(t_address,t_uint256)"
      },
      {
        "astId": 1392,
        "contract": "contracts/BaseToken.sol:BaseToken",
        "label": "_allowances",
        "offset": 0,
        "slot": "104",
        "type": "t_mapping(t_address,t_mapping(t_address,t_uint256))"
      },
      {
        "astId": 1394,
        "contract": "contracts/BaseToken.sol:BaseToken",
        "label": "_totalSupply",
        "offset": 0,
        "slot": "105",
        "type": "t_uint256"
      },
      {
        "astId": 1396,
        "contract": "contracts/BaseToken.sol:BaseToken",
        "label": "_name",
        "offset": 0,
        "slot": "106",
        "type": "t_string_storage"
      },
      {
        "astId": 1398,
        "contract": "contracts/BaseToken.sol:BaseToken",
        "label": "_symbol",
        "offset": 0,
        "slot": "107",
        "type": "t_string_storage"
      },
      {
        "astId": 1400,
        "contract": "contracts/BaseToken.sol:BaseToken",
        "label": "_decimals",
        "offset": 0,
        "slot": "108",
        "type": "t_uint8"
      },
      {
        "astId": 1895,
        "contract": "contracts/BaseToken.sol:BaseToken",
        "label": "__gap",
        "offset": 0,
        "slot": "109",
        "type": "t_array(t_uint256)44_storage"
      },
      {
        "astId": 26737,
        "contract": "contracts/BaseToken.sol:BaseToken",
        "label": "_whitelistMap",
        "offset": 0,
        "slot": "153",
        "type": "t_mapping(t_address,t_bool)"
      },
      {
        "astId": 26741,
        "contract": "contracts/BaseToken.sol:BaseToken",
        "label": "__gap",
        "offset": 0,
        "slot": "154",
        "type": "t_array(t_uint256)50_storage"
      },
      {
        "astId": 32248,
        "contract": "contracts/BaseToken.sol:BaseToken",
        "label": "_priceFeedDecimals",
        "offset": 0,
        "slot": "204",
        "type": "t_uint8"
      },
      {
        "astId": 32250,
        "contract": "contracts/BaseToken.sol:BaseToken",
        "label": "_priceFeed",
        "offset": 1,
        "slot": "204",
        "type": "t_address"
      },
      {
        "astId": 32255,
        "contract": "contracts/BaseToken.sol:BaseToken",
        "label": "_status",
        "offset": 21,
        "slot": "204",
        "type": "t_enum(Status)27739"
      },
      {
        "astId": 32257,
        "contract": "contracts/BaseToken.sol:BaseToken",
        "label": "_pausedIndexPrice",
        "offset": 0,
        "slot": "205",
        "type": "t_uint256"
      },
      {
        "astId": 32259,
        "contract": "contracts/BaseToken.sol:BaseToken",
        "label": "_pausedTimestamp",
        "offset": 0,
        "slot": "206",
        "type": "t_uint256"
      },
      {
        "astId": 32261,
        "contract": "contracts/BaseToken.sol:BaseToken",
        "label": "_closedPrice",
        "offset": 0,
        "slot": "207",
        "type": "t_uint256"
      }
    ],
    "types": {
      "t_address": {
        "encoding": "inplace",
        "label": "address",
        "numberOfBytes": "20"
      },
      "t_array(t_uint256)44_storage": {
        "base": "t_uint256",
        "encoding": "inplace",
        "label": "uint256[44]",
        "numberOfBytes": "1408"
      },
      "t_array(t_uint256)50_storage": {
        "base": "t_uint256",
        "encoding": "inplace",
        "label": "uint256[50]",
        "numberOfBytes": "1600"
      },
      "t_bool": {
        "encoding": "inplace",
        "label": "bool",
        "numberOfBytes": "1"
      },
      "t_enum(Status)27739": {
        "encoding": "inplace",
        "label": "enum IBaseToken.Status",
        "numberOfBytes": "1"
      },
      "t_mapping(t_address,t_bool)": {
        "encoding": "mapping",
        "key": "t_address",
        "label": "mapping(address => bool)",
        "numberOfBytes": "32",
        "value": "t_bool"
      },
      "t_mapping(t_address,t_mapping(t_address,t_uint256))": {
        "encoding": "mapping",
        "key": "t_address",
        "label": "mapping(address => mapping(address => uint256))",
        "numberOfBytes": "32",
        "value": "t_mapping(t_address,t_uint256)"
      },
      "t_mapping(t_address,t_uint256)": {
        "encoding": "mapping",
        "key": "t_address",
        "label": "mapping(address => uint256)",
        "numberOfBytes": "32",
        "value": "t_uint256"
      },
      "t_string_storage": {
        "encoding": "bytes",
        "label": "string",
        "numberOfBytes": "32"
      },
      "t_uint256": {
        "encoding": "inplace",
        "label": "uint256",
        "numberOfBytes": "32"
      },
      "t_uint8": {
        "encoding": "inplace",
        "label": "uint8",
        "numberOfBytes": "1"
      }
    }
  }
}