{
  "address": "0x05036b93CC0d0cfCCEE741b4e0145e9c4a270885",
  "abi": [
    {
      "inputs": [
        {
          "internalType": "contract AggregatorV3Interface",
          "name": "aggregator",
          "type": "address"
        },
        {
          "internalType": "uint80",
          "name": "cacheTwapInterval",
          "type": "uint80"
        }
      ],
      "stateMutability": "nonpayable",
      "type": "constructor"
    },
    {
      "anonymous": false,
      "inputs": [
        {
          "indexed": false,
          "internalType": "uint256",
          "name": "price",
          "type": "uint256"
        },
        {
          "indexed": false,
          "internalType": "uint256",
          "name": "timestamp",
          "type": "uint256"
        },
        {
          "indexed": false,
          "internalType": "uint8",
          "name": "indexAt",
          "type": "uint8"
        }
      ],
      "name": "PriceUpdated",
      "type": "event"
    },
    {
      "inputs": [
        {
          "internalType": "uint256",
          "name": "interval",
          "type": "uint256"
        }
      ],
      "name": "cacheTwap",
      "outputs": [
        {
          "internalType": "uint256",
          "name": "",
          "type": "uint256"
        }
      ],
      "stateMutability": "nonpayable",
      "type": "function"
    },
    {
      "inputs": [],
      "name": "currentObservationIndex",
      "outputs": [
        {
          "internalType": "uint8",
          "name": "",
          "type": "uint8"
        }
      ],
      "stateMutability": "view",
      "type": "function"
    },
    {
      "inputs": [],
      "name": "decimals",
      "outputs": [
        {
          "internalType": "uint8",
          "name": "",
          "type": "uint8"
        }
      ],
      "stateMutability": "view",
      "type": "function"
    },
    {
      "inputs": [],
      "name": "getAggregator",
      "outputs": [
        {
          "internalType": "address",
          "name": "",
          "type": "address"
        }
      ],
      "stateMutability": "view",
      "type": "function"
    },
    {
      "inputs": [
        {
          "internalType": "uint256",
          "name": "interval",
          "type": "uint256"
        }
      ],
      "name": "getPrice",
      "outputs": [
        {
          "internalType": "uint256",
          "name": "",
          "type": "uint256"
        }
      ],
      "stateMutability": "view",
      "type": "function"
    },
    {
      "inputs": [
        {
          "internalType": "uint80",
          "name": "roundId",
          "type": "uint80"
        }
      ],
      "name": "getRoundData",
      "outputs": [
        {
          "internalType": "uint256",
          "name": "",
          "type": "uint256"
        },
        {
          "internalType": "uint256",
          "name": "",
          "type": "uint256"
        }
      ],
      "stateMutability": "view",
      "type": "function"
    },
    {
      "inputs": [
        {
          "internalType": "uint256",
          "name": "",
          "type": "uint256"
        }
      ],
      "name": "observations",
      "outputs": [
        {
          "internalType": "uint256",
          "name": "price",
          "type": "uint256"
        },
        {
          "internalType": "uint256",
          "name": "priceCumulative",
          "type": "uint256"
        },
        {
          "internalType": "uint256",
          "name": "timestamp",
          "type": "uint256"
        }
      ],
      "stateMutability": "view",
      "type": "function"
    },
    {
      "inputs": [],
      "name": "update",
      "outputs": [],
      "stateMutability": "nonpayable",
      "type": "function"
    }
  ],
  "transactionHash": "0x6d3f1ec52ef5dfd7b935d04705dff0dcd0014583b9b072d35bf7eefbccc6f874",
  "args": [
    "0x779877A7B0D9E8603169DdbD7836e478b4624789",
    900
  ],
  "numDeployments": 1,
  "solcInputHash": "7a16bbbc5c6fea2b6505d4631b28aae2",
  "bytecode": "0x60a060405234801561001057600080fd5b506040516110223803806110228339818101604052604081101561003357600080fd5b5080516020918201516103028054600160a01b600160f01b031916600160a01b6001600160501b03841602179055909161007f906001600160a01b038416906100d0811b61046017901c565b6100ba576040805162461bcd60e51b81526020600482015260076024820152664350465f414e4360c81b604482015290519081900360640190fd5b5060601b6001600160601b0319166080526100d6565b3b151590565b60805160601c610f1661010c60003980610212528061029c52806102c65280610471528061084252806109085250610f166000f3fe608060405234801561001057600080fd5b50600436106100785760003560e01c80631d1a111a1461007d578063252c09d7146100ac578063313ce567146100e75780633ad59dbc146101055780639a6fc8f514610129578063a2e6204514610168578063aed3aff714610172578063e75722301461017a575b600080fd5b61009a6004803603602081101561009357600080fd5b5035610197565b60408051918252519081900360200190f35b6100c9600480360360208110156100c257600080fd5b50356101e6565b60408051938452602084019290925282820152519081900360600190f35b6100ef61020e565b6040805160ff9092168252519081900360200190f35b61010d61029a565b604080516001600160a01b039092168252519081900360200190f35b61014f6004803603602081101561013f57600080fd5b50356001600160501b03166102be565b6040805192835260208301919091528051918290030190f35b6101706103f4565b005b6100ef610412565b61009a6004803603602081101561019057600080fd5b503561041c565b6000806000806101a5610466565b92509250925084600014806101c157506001600160501b038316155b156101d0575091506101e19050565b6101db85838361053d565b93505050505b919050565b60008161010081106101f757600080fd5b600302018054600182015460029092015490925083565b60007f00000000000000000000000000000000000000000000000000000000000000006001600160a01b031663313ce5676040518163ffffffff1660e01b815260040160206040518083038186803b15801561026957600080fd5b505afa15801561027d573d6000803e3d6000fd5b505050506040513d602081101561029357600080fd5b5051905090565b7f000000000000000000000000000000000000000000000000000000000000000090565b6000806000807f00000000000000000000000000000000000000000000000000000000000000006001600160a01b0316639a6fc8f5866040518263ffffffff1660e01b815260040180826001600160501b0316815260200191505060a06040518083038186803b15801561033157600080fd5b505afa158015610345573d6000803e3d6000fd5b505050506040513d60a081101561035b57600080fd5b5060208101516060909101519092509050600082136103aa576040805162461bcd60e51b815260206004820152600660248201526504350465f49560d41b604482015290519081900360640190fd5b600081116103ea576040805162461bcd60e51b81526020600482015260086024820152674350465f52494e4360c01b604482015290519081900360640190fd5b9092509050915091565b6000806103ff610466565b925092505061040e82826105df565b5050565b6103005460ff1681565b60008060008061042a610466565b925092509250846000148061044657506001600160501b038316155b15610455575091506101e19050565b6101db858383610793565b3b151590565b6000806000806000807f00000000000000000000000000000000000000000000000000000000000000006001600160a01b031663feaf968c6040518163ffffffff1660e01b815260040160a06040518083038186803b1580156104c857600080fd5b505afa1580156104dc573d6000803e3d6000fd5b505050506040513d60a08110156104f257600080fd5b50805160208201516060909201519196509350859250905060008212156105315761051c836107ec565b61052860018403610837565b90965090935090505b91945090915050909192565b61030254600090600160a01b90046001600160501b0316841461056c576105658484846109c0565b90506105d8565b610302546001600160a01b0316610581610b57565b14156105915750610301546105d8565b61059b83836105df565b6105a3610b57565b61030280546001600160a01b0319166001600160a01b03929092169190911790556105cf8484846109c0565b61030181905590505b9392505050565b6103005460ff161580156105f35750600254155b1561065f57604080516060810182528381526000602082018190529082018390528381556001819055600283905590517f5f4a9a1b73bee700ca1fb203bb004bcc0a7eca48af3f147b24dcf5bf4bf3c00b916106529185918591610ea6565b60405180910390a161040e565b61030054600090819060ff16610100811061067657fe5b6040805160608101825260039290920292909201805482526001810154602083015260020154918101829052915082116106cb5760405162461bcd60e51b81526004016106c290610e68565b60405180910390fd5b610300805460ff198116600160ff9283160182161791829055604083810151815160608101835287815285516020808801519389039182029093019282019290925291820186905292909160009116610100811061072557fe5b825160039190910291909101908155602082015160018201556040918201516002909101556103005490517f5f4a9a1b73bee700ca1fb203bb004bcc0a7eca48af3f147b24dcf5bf4bf3c00b91610785918791879160ff90911690610ea6565b60405180910390a150505050565b610302546000906001600160a01b03166107ab610b57565b1480156107ca575061030254600160a01b90046001600160501b031684145b156107d95750610301546105d8565b6107e48484846109c0565b949350505050565b6000816001600160501b031611610834576040805162461bcd60e51b8152602060048201526007602482015266086a08cbe9c8a960cb1b604482015290519081900360640190fd5b50565b6000806000806000807f00000000000000000000000000000000000000000000000000000000000000006001600160a01b0316639a6fc8f5886040518263ffffffff1660e01b815260040180826001600160501b0316815260200191505060a06040518083038186803b1580156108ad57600080fd5b505afa1580156108c1573d6000803e3d6000fd5b505050506040513d60a08110156108d757600080fd5b508051602082015160609092015190945090925090505b60008212156109b357610900836107ec565b6001830392507f00000000000000000000000000000000000000000000000000000000000000006001600160a01b0316639a6fc8f5846040518263ffffffff1660e01b815260040180826001600160501b0316815260200191505060a06040518083038186803b15801561097357600080fd5b505afa158015610987573d6000803e3d6000fd5b505050506040513d60a081101561099d57600080fd5b50602081015160609091015190925090506108ee565b9196909550909350915050565b610300546000908190819060ff1661010081106109d957fe5b6003020160405180606001604052908160008201548152602001600182015481526020016002820154815250509050806000015160001415610a2d5760405162461bcd60e51b81526004016106c290610e87565b6000610a37610b57565b90506000610a458288610b5b565b9050600080610a5383610bbd565b90925090506000610aa7610a9c610a74610a6d888c610b5b565b8c90610d0d565b610a96610a8e8a604001518d610b5b90919063ffffffff16565b8a5190610d0d565b90610d66565b602088015190610d66565b9050600083604001518511610ac9578360400151945083602001519050610b38565b84836040015111610ae7578260400151945082602001519050610b38565b6000846040015184604001510390506000856040015187039050610b33610a9c83610b2d84610b278b602001518b60200151610b5b90919063ffffffff16565b90610d0d565b90610dc0565b925050505b610b48858703610b2d8484610b5b565b9b9a5050505050505050505050565b4290565b600082821115610bb2576040805162461bcd60e51b815260206004820152601e60248201527f536166654d6174683a207375627472616374696f6e206f766572666c6f770000604482015290519081900360640190fd5b508082035b92915050565b610bc5610e27565b610bcd610e27565b6103005460ff16600080610100815b81811015610c4f578760008660ff166101008110610bf657fe5b600302016002015411610c405760008560ff166101008110610c1457fe5b600302016002015460001415610c3257846001019350839250610c4f565b849350836001019250610c4f565b60001990940193600101610bdc565b81811415610c6f5760405162461bcd60e51b81526004016106c290610e48565b60008460ff166101008110610c8057fe5b600302016040518060600160405290816000820154815260200160018201548152602001600282015481525050965060008360ff166101008110610cc057fe5b6003020160405180606001604052908160008201548152602001600182015481526020016002820154815250509550866040015186604001511015610d03578695505b5050505050915091565b600082610d1c57506000610bb7565b82820282848281610d2957fe5b04146105d85760405162461bcd60e51b8152600401808060200182810382526021815260200180610ec06021913960400191505060405180910390fd5b6000828201838110156105d8576040805162461bcd60e51b815260206004820152601b60248201527f536166654d6174683a206164646974696f6e206f766572666c6f770000000000604482015290519081900360640190fd5b6000808211610e16576040805162461bcd60e51b815260206004820152601a60248201527f536166654d6174683a206469766973696f6e206279207a65726f000000000000604482015290519081900360640190fd5b818381610e1f57fe5b049392505050565b60405180606001604052806000815260200160008152602001600081525090565b602080825260069082015265086a8be9c8a960d31b604082015260600190565b60208082526005908201526410d517d25560da1b604082015260600190565b60208082526005908201526410d517d39160da1b604082015260600190565b928352602083019190915260ff1660408201526060019056fe536166654d6174683a206d756c7469706c69636174696f6e206f766572666c6f77a264697066735822122085ccced446721c712c7e309643c59090caed525acddf202752e82926e17475ff64736f6c63430007060033",
  "devdoc": {
    "kind": "dev",
    "methods": {
      "cacheTwap(uint256)": {
        "details": "Returns the cached index price of the token.",
        "params": {
          "interval": "The interval represents twap interval."
        }
      },
      "getPrice(uint256)": {
        "details": "Returns the index price of the token.",
        "params": {
          "interval": "The interval represents twap interval."
        }
      },
      "getRoundData(uint80)": {
        "params": {
          "roundId": "The roundId that fed into Chainlink aggregator."
        }
      },
      "update()": {
        "details": "anyone can help update it."
      }
    },
    "version": 1
  },
  "userdoc": {
    "kind": "user",
    "methods": {},
    "version": 1
  },
  "storageLayout": {
    "storage": [
      {
        "astId": 4848,
        "contract": "@perp/perp-oracle-contract/contracts/ChainlinkPriceFeedV2.sol:ChainlinkPriceFeedV2",
        "label": "observations",
        "offset": 0,
        "slot": "0",
        "type": "t_array(t_struct(Observation)4836_storage)256_storage"
      },
      {
        "astId": 4850,
        "contract": "@perp/perp-oracle-contract/contracts/ChainlinkPriceFeedV2.sol:ChainlinkPriceFeedV2",
        "label": "currentObservationIndex",
        "offset": 0,
        "slot": "768",
        "type": "t_uint8"
      },
      {
        "astId": 4718,
        "contract": "@perp/perp-oracle-contract/contracts/ChainlinkPriceFeedV2.sol:ChainlinkPriceFeedV2",
        "label": "_cachedTwap",
        "offset": 0,
        "slot": "769",
        "type": "t_uint256"
      },
      {
        "astId": 4720,
        "contract": "@perp/perp-oracle-contract/contracts/ChainlinkPriceFeedV2.sol:ChainlinkPriceFeedV2",
        "label": "_lastUpdatedAt",
        "offset": 0,
        "slot": "770",
        "type": "t_uint160"
      },
      {
        "astId": 4722,
        "contract": "@perp/perp-oracle-contract/contracts/ChainlinkPriceFeedV2.sol:ChainlinkPriceFeedV2",
        "label": "_interval",
        "offset": 20,
        "slot": "770",
        "type": "t_uint80"
      }
    ],
    "types": {
      "t_array(t_struct(Observation)4836_storage)256_storage": {
        "base": "t_struct(Observation)4836_storage",
        "encoding": "inplace",
        "label": "struct CumulativeTwap.Observation[256]",
        "numberOfBytes": "24576"
      },
      "t_struct(Observation)4836_storage": {
        "encoding": "inplace",
        "label": "struct CumulativeTwap.Observation",
        "members": [
          {
            "astId": 4831,
            "contract": "@perp/perp-oracle-contract/contracts/ChainlinkPriceFeedV2.sol:ChainlinkPriceFeedV2",
            "label": "price",
            "offset": 0,
            "slot": "0",
            "type": "t_uint256"
          },
          {
            "astId": 4833,
            "contract": "@perp/perp-oracle-contract/contracts/ChainlinkPriceFeedV2.sol:ChainlinkPriceFeedV2",
            "label": "priceCumulative",
            "offset": 0,
            "slot": "1",
            "type": "t_uint256"
          },
          {
            "astId": 4835,
            "contract": "@perp/perp-oracle-contract/contracts/ChainlinkPriceFeedV2.sol:ChainlinkPriceFeedV2",
            "label": "timestamp",
            "offset": 0,
            "slot": "2",
            "type": "t_uint256"
          }
        ],
        "numberOfBytes": "96"
      },
      "t_uint160": {
        "encoding": "inplace",
        "label": "uint160",
        "numberOfBytes": "20"
      },
      "t_uint256": {
        "encoding": "inplace",
        "label": "uint256",
        "numberOfBytes": "32"
      },
      "t_uint8": {
        "encoding": "inplace",
        "label": "uint8",
        "numberOfBytes": "1"
      },
      "t_uint80": {
        "encoding": "inplace",
        "label": "uint80",
        "numberOfBytes": "10"
      }
    }
  }
}