{
  "address": "0x1D0177644D5C21dd597aD2EbAd4889D86fCd6120",
  "abi": [
    {
      "anonymous": false,
      "inputs": [
        {
          "indexed": true,
          "internalType": "address",
          "name": "delegateApproval",
          "type": "address"
        }
      ],
      "name": "DelegateApprovalChanged",
      "type": "event"
    },
    {
      "anonymous": false,
      "inputs": [
        {
          "indexed": true,
          "internalType": "address",
          "name": "trader",
          "type": "address"
        },
        {
          "indexed": true,
          "internalType": "address",
          "name": "baseToken",
          "type": "address"
        },
        {
          "indexed": false,
          "internalType": "int256",
          "name": "fundingPayment",
          "type": "int256"
        }
      ],
      "name": "FundingPaymentSettled",
      "type": "event"
    },
    {
      "anonymous": false,
      "inputs": [
        {
          "indexed": true,
          "internalType": "address",
          "name": "maker",
          "type": "address"
        },
        {
          "indexed": true,
          "internalType": "address",
          "name": "baseToken",
          "type": "address"
        },
        {
          "indexed": true,
          "internalType": "address",
          "name": "quoteToken",
          "type": "address"
        },
        {
          "indexed": false,
          "internalType": "int24",
          "name": "lowerTick",
          "type": "int24"
        },
        {
          "indexed": false,
          "internalType": "int24",
          "name": "upperTick",
          "type": "int24"
        },
        {
          "indexed": false,
          "internalType": "int256",
          "name": "base",
          "type": "int256"
        },
        {
          "indexed": false,
          "internalType": "int256",
          "name": "quote",
          "type": "int256"
        },
        {
          "indexed": false,
          "internalType": "int128",
          "name": "liquidity",
          "type": "int128"
        },
        {
          "indexed": false,
          "internalType": "uint256",
          "name": "quoteFee",
          "type": "uint256"
        }
      ],
      "name": "LiquidityChanged",
      "type": "event"
    },
    {
      "anonymous": false,
      "inputs": [
        {
          "indexed": true,
          "internalType": "address",
          "name": "previousOwner",
          "type": "address"
        },
        {
          "indexed": true,
          "internalType": "address",
          "name": "newOwner",
          "type": "address"
        }
      ],
      "name": "OwnershipTransferred",
      "type": "event"
    },
    {
      "anonymous": false,
      "inputs": [
        {
          "indexed": false,
          "internalType": "address",
          "name": "account",
          "type": "address"
        }
      ],
      "name": "Paused",
      "type": "event"
    },
    {
      "anonymous": false,
      "inputs": [
        {
          "indexed": true,
          "internalType": "address",
          "name": "trader",
          "type": "address"
        },
        {
          "indexed": true,
          "internalType": "address",
          "name": "baseToken",
          "type": "address"
        },
        {
          "indexed": false,
          "internalType": "int256",
          "name": "exchangedPositionSize",
          "type": "int256"
        },
        {
          "indexed": false,
          "internalType": "int256",
          "name": "exchangedPositionNotional",
          "type": "int256"
        },
        {
          "indexed": false,
          "internalType": "uint256",
          "name": "fee",
          "type": "uint256"
        },
        {
          "indexed": false,
          "internalType": "int256",
          "name": "openNotional",
          "type": "int256"
        },
        {
          "indexed": false,
          "internalType": "int256",
          "name": "realizedPnl",
          "type": "int256"
        },
        {
          "indexed": false,
          "internalType": "uint256",
          "name": "sqrtPriceAfterX96",
          "type": "uint256"
        }
      ],
      "name": "PositionChanged",
      "type": "event"
    },
    {
      "anonymous": false,
      "inputs": [
        {
          "indexed": true,
          "internalType": "address",
          "name": "trader",
          "type": "address"
        },
        {
          "indexed": true,
          "internalType": "address",
          "name": "baseToken",
          "type": "address"
        },
        {
          "indexed": false,
          "internalType": "int256",
          "name": "closedPositionSize",
          "type": "int256"
        },
        {
          "indexed": false,
          "internalType": "int256",
          "name": "closedPositionNotional",
          "type": "int256"
        },
        {
          "indexed": false,
          "internalType": "int256",
          "name": "openNotional",
          "type": "int256"
        },
        {
          "indexed": false,
          "internalType": "int256",
          "name": "realizedPnl",
          "type": "int256"
        },
        {
          "indexed": false,
          "internalType": "uint256",
          "name": "closedPrice",
          "type": "uint256"
        }
      ],
      "name": "PositionClosed",
      "type": "event"
    },
    {
      "anonymous": false,
      "inputs": [
        {
          "indexed": true,
          "internalType": "address",
          "name": "trader",
          "type": "address"
        },
        {
          "indexed": true,
          "internalType": "address",
          "name": "baseToken",
          "type": "address"
        },
        {
          "indexed": false,
          "internalType": "uint256",
          "name": "positionNotional",
          "type": "uint256"
        },
        {
          "indexed": false,
          "internalType": "uint256",
          "name": "positionSize",
          "type": "uint256"
        },
        {
          "indexed": false,
          "internalType": "uint256",
          "name": "liquidationFee",
          "type": "uint256"
        },
        {
          "indexed": false,
          "internalType": "address",
          "name": "liquidator",
          "type": "address"
        }
      ],
      "name": "PositionLiquidated",
      "type": "event"
    },
    {
      "anonymous": false,
      "inputs": [
        {
          "indexed": true,
          "internalType": "bytes32",
          "name": "referralCode",
          "type": "bytes32"
        }
      ],
      "name": "ReferredPositionChanged",
      "type": "event"
    },
    {
      "anonymous": false,
      "inputs": [
        {
          "indexed": true,
          "internalType": "address",
          "name": "forwarder",
          "type": "address"
        }
      ],
      "name": "TrustedForwarderChanged",
      "type": "event"
    },
    {
      "anonymous": false,
      "inputs": [
        {
          "indexed": false,
          "internalType": "address",
          "name": "trustedForwarder",
          "type": "address"
        }
      ],
      "name": "TrustedForwarderUpdated",
      "type": "event"
    },
    {
      "anonymous": false,
      "inputs": [
        {
          "indexed": false,
          "internalType": "address",
          "name": "account",
          "type": "address"
        }
      ],
      "name": "Unpaused",
      "type": "event"
    },
    {
      "inputs": [
        {
          "components": [
            {
              "internalType": "address",
              "name": "baseToken",
              "type": "address"
            },
            {
              "internalType": "uint256",
              "name": "base",
              "type": "uint256"
            },
            {
              "internalType": "uint256",
              "name": "quote",
              "type": "uint256"
            },
            {
              "internalType": "int24",
              "name": "lowerTick",
              "type": "int24"
            },
            {
              "internalType": "int24",
              "name": "upperTick",
              "type": "int24"
            },
            {
              "internalType": "uint256",
              "name": "minBase",
              "type": "uint256"
            },
            {
              "internalType": "uint256",
              "name": "minQuote",
              "type": "uint256"
            },
            {
              "internalType": "bool",
              "name": "useTakerBalance",
              "type": "bool"
            },
            {
              "internalType": "uint256",
              "name": "deadline",
              "type": "uint256"
            }
          ],
          "internalType": "struct IClearingHouse.AddLiquidityParams",
          "name": "params",
          "type": "tuple"
        }
      ],
      "name": "addLiquidity",
      "outputs": [
        {
          "components": [
            {
              "internalType": "uint256",
              "name": "base",
              "type": "uint256"
            },
            {
              "internalType": "uint256",
              "name": "quote",
              "type": "uint256"
            },
            {
              "internalType": "uint256",
              "name": "fee",
              "type": "uint256"
            },
            {
              "internalType": "uint256",
              "name": "liquidity",
              "type": "uint256"
            }
          ],
          "internalType": "struct IClearingHouse.AddLiquidityResponse",
          "name": "",
          "type": "tuple"
        }
      ],
      "stateMutability": "nonpayable",
      "type": "function"
    },
    {
      "inputs": [
        {
          "internalType": "address",
          "name": "maker",
          "type": "address"
        },
        {
          "internalType": "address",
          "name": "baseToken",
          "type": "address"
        }
      ],
      "name": "cancelAllExcessOrders",
      "outputs": [],
      "stateMutability": "nonpayable",
      "type": "function"
    },
    {
      "inputs": [
        {
          "internalType": "address",
          "name": "maker",
          "type": "address"
        },
        {
          "internalType": "address",
          "name": "baseToken",
          "type": "address"
        },
        {
          "internalType": "bytes32[]",
          "name": "orderIds",
          "type": "bytes32[]"
        }
      ],
      "name": "cancelExcessOrders",
      "outputs": [],
      "stateMutability": "nonpayable",
      "type": "function"
    },
    {
      "inputs": [],
      "name": "candidate",
      "outputs": [
        {
          "internalType": "address",
          "name": "",
          "type": "address"
        }
      ],
      "stateMutability": "view",
      "type": "function"
    },
    {
      "inputs": [
        {
          "components": [
            {
              "internalType": "address",
              "name": "baseToken",
              "type": "address"
            },
            {
              "internalType": "uint160",
              "name": "sqrtPriceLimitX96",
              "type": "uint160"
            },
            {
              "internalType": "uint256",
              "name": "oppositeAmountBound",
              "type": "uint256"
            },
            {
              "internalType": "uint256",
              "name": "deadline",
              "type": "uint256"
            },
            {
              "internalType": "bytes32",
              "name": "referralCode",
              "type": "bytes32"
            }
          ],
          "internalType": "struct IClearingHouse.ClosePositionParams",
          "name": "params",
          "type": "tuple"
        }
      ],
      "name": "closePosition",
      "outputs": [
        {
          "internalType": "uint256",
          "name": "base",
          "type": "uint256"
        },
        {
          "internalType": "uint256",
          "name": "quote",
          "type": "uint256"
        }
      ],
      "stateMutability": "nonpayable",
      "type": "function"
    },
    {
      "inputs": [],
      "name": "getAccountBalance",
      "outputs": [
        {
          "internalType": "address",
          "name": "",
          "type": "address"
        }
      ],
      "stateMutability": "view",
      "type": "function"
    },
    {
      "inputs": [
        {
          "internalType": "address",
          "name": "trader",
          "type": "address"
        }
      ],
      "name": "getAccountValue",
      "outputs": [
        {
          "internalType": "int256",
          "name": "",
          "type": "int256"
        }
      ],
      "stateMutability": "view",
      "type": "function"
    },
    {
      "inputs": [],
      "name": "getClearingHouseConfig",
      "outputs": [
        {
          "internalType": "address",
          "name": "",
          "type": "address"
        }
      ],
      "stateMutability": "view",
      "type": "function"
    },
    {
      "inputs": [],
      "name": "getDelegateApproval",
      "outputs": [
        {
          "internalType": "address",
          "name": "",
          "type": "address"
        }
      ],
      "stateMutability": "view",
      "type": "function"
    },
    {
      "inputs": [],
      "name": "getExchange",
      "outputs": [
        {
          "internalType": "address",
          "name": "",
          "type": "address"
        }
      ],
      "stateMutability": "view",
      "type": "function"
    },
    {
      "inputs": [],
      "name": "getInsuranceFund",
      "outputs": [
        {
          "internalType": "address",
          "name": "",
          "type": "address"
        }
      ],
      "stateMutability": "view",
      "type": "function"
    },
    {
      "inputs": [],
      "name": "getOrderBook",
      "outputs": [
        {
          "internalType": "address",
          "name": "",
          "type": "address"
        }
      ],
      "stateMutability": "view",
      "type": "function"
    },
    {
      "inputs": [],
      "name": "getQuoteToken",
      "outputs": [
        {
          "internalType": "address",
          "name": "",
          "type": "address"
        }
      ],
      "stateMutability": "view",
      "type": "function"
    },
    {
      "inputs": [],
      "name": "getTrustedForwarder",
      "outputs": [
        {
          "internalType": "address",
          "name": "",
          "type": "address"
        }
      ],
      "stateMutability": "view",
      "type": "function"
    },
    {
      "inputs": [],
      "name": "getUniswapV3Factory",
      "outputs": [
        {
          "internalType": "address",
          "name": "",
          "type": "address"
        }
      ],
      "stateMutability": "view",
      "type": "function"
    },
    {
      "inputs": [],
      "name": "getVault",
      "outputs": [
        {
          "internalType": "address",
          "name": "",
          "type": "address"
        }
      ],
      "stateMutability": "view",
      "type": "function"
    },
    {
      "inputs": [
        {
          "internalType": "address",
          "name": "clearingHouseConfigArg",
          "type": "address"
        },
        {
          "internalType": "address",
          "name": "vaultArg",
          "type": "address"
        },
        {
          "internalType": "address",
          "name": "quoteTokenArg",
          "type": "address"
        },
        {
          "internalType": "address",
          "name": "uniV3FactoryArg",
          "type": "address"
        },
        {
          "internalType": "address",
          "name": "exchangeArg",
          "type": "address"
        },
        {
          "internalType": "address",
          "name": "accountBalanceArg",
          "type": "address"
        },
        {
          "internalType": "address",
          "name": "insuranceFundArg",
          "type": "address"
        }
      ],
      "name": "initialize",
      "outputs": [],
      "stateMutability": "nonpayable",
      "type": "function"
    },
    {
      "inputs": [
        {
          "internalType": "address",
          "name": "forwarder",
          "type": "address"
        }
      ],
      "name": "isTrustedForwarder",
      "outputs": [
        {
          "internalType": "bool",
          "name": "",
          "type": "bool"
        }
      ],
      "stateMutability": "view",
      "type": "function"
    },
    {
      "inputs": [
        {
          "internalType": "address",
          "name": "trader",
          "type": "address"
        },
        {
          "internalType": "address",
          "name": "baseToken",
          "type": "address"
        },
        {
          "internalType": "int256",
          "name": "positionSize",
          "type": "int256"
        }
      ],
      "name": "liquidate",
      "outputs": [],
      "stateMutability": "nonpayable",
      "type": "function"
    },
    {
      "inputs": [
        {
          "internalType": "address",
          "name": "trader",
          "type": "address"
        },
        {
          "internalType": "address",
          "name": "baseToken",
          "type": "address"
        }
      ],
      "name": "liquidate",
      "outputs": [],
      "stateMutability": "nonpayable",
      "type": "function"
    },
    {
      "inputs": [
        {
          "components": [
            {
              "internalType": "address",
              "name": "baseToken",
              "type": "address"
            },
            {
              "internalType": "bool",
              "name": "isBaseToQuote",
              "type": "bool"
            },
            {
              "internalType": "bool",
              "name": "isExactInput",
              "type": "bool"
            },
            {
              "internalType": "uint256",
              "name": "amount",
              "type": "uint256"
            },
            {
              "internalType": "uint256",
              "name": "oppositeAmountBound",
              "type": "uint256"
            },
            {
              "internalType": "uint256",
              "name": "deadline",
              "type": "uint256"
            },
            {
              "internalType": "uint160",
              "name": "sqrtPriceLimitX96",
              "type": "uint160"
            },
            {
              "internalType": "bytes32",
              "name": "referralCode",
              "type": "bytes32"
            }
          ],
          "internalType": "struct IClearingHouse.OpenPositionParams",
          "name": "params",
          "type": "tuple"
        }
      ],
      "name": "openPosition",
      "outputs": [
        {
          "internalType": "uint256",
          "name": "base",
          "type": "uint256"
        },
        {
          "internalType": "uint256",
          "name": "quote",
          "type": "uint256"
        }
      ],
      "stateMutability": "nonpayable",
      "type": "function"
    },
    {
      "inputs": [
        {
          "internalType": "address",
          "name": "trader",
          "type": "address"
        },
        {
          "components": [
            {
              "internalType": "address",
              "name": "baseToken",
              "type": "address"
            },
            {
              "internalType": "bool",
              "name": "isBaseToQuote",
              "type": "bool"
            },
            {
              "internalType": "bool",
              "name": "isExactInput",
              "type": "bool"
            },
            {
              "internalType": "uint256",
              "name": "amount",
              "type": "uint256"
            },
            {
              "internalType": "uint256",
              "name": "oppositeAmountBound",
              "type": "uint256"
            },
            {
              "internalType": "uint256",
              "name": "deadline",
              "type": "uint256"
            },
            {
              "internalType": "uint160",
              "name": "sqrtPriceLimitX96",
              "type": "uint160"
            },
            {
              "internalType": "bytes32",
              "name": "referralCode",
              "type": "bytes32"
            }
          ],
          "internalType": "struct IClearingHouse.OpenPositionParams",
          "name": "params",
          "type": "tuple"
        }
      ],
      "name": "openPositionFor",
      "outputs": [
        {
          "internalType": "uint256",
          "name": "base",
          "type": "uint256"
        },
        {
          "internalType": "uint256",
          "name": "quote",
          "type": "uint256"
        },
        {
          "internalType": "uint256",
          "name": "fee",
          "type": "uint256"
        }
      ],
      "stateMutability": "nonpayable",
      "type": "function"
    },
    {
      "inputs": [],
      "name": "owner",
      "outputs": [
        {
          "internalType": "address",
          "name": "",
          "type": "address"
        }
      ],
      "stateMutability": "view",
      "type": "function"
    },
    {
      "inputs": [],
      "name": "pause",
      "outputs": [],
      "stateMutability": "nonpayable",
      "type": "function"
    },
    {
      "inputs": [],
      "name": "paused",
      "outputs": [
        {
          "internalType": "bool",
          "name": "",
          "type": "bool"
        }
      ],
      "stateMutability": "view",
      "type": "function"
    },
    {
      "inputs": [
        {
          "internalType": "address",
          "name": "trader",
          "type": "address"
        },
        {
          "internalType": "address",
          "name": "baseToken",
          "type": "address"
        }
      ],
      "name": "quitMarket",
      "outputs": [
        {
          "internalType": "uint256",
          "name": "base",
          "type": "uint256"
        },
        {
          "internalType": "uint256",
          "name": "quote",
          "type": "uint256"
        }
      ],
      "stateMutability": "nonpayable",
      "type": "function"
    },
    {
      "inputs": [
        {
          "components": [
            {
              "internalType": "address",
              "name": "baseToken",
              "type": "address"
            },
            {
              "internalType": "int24",
              "name": "lowerTick",
              "type": "int24"
            },
            {
              "internalType": "int24",
              "name": "upperTick",
              "type": "int24"
            },
            {
              "internalType": "uint128",
              "name": "liquidity",
              "type": "uint128"
            },
            {
              "internalType": "uint256",
              "name": "minBase",
              "type": "uint256"
            },
            {
              "internalType": "uint256",
              "name": "minQuote",
              "type": "uint256"
            },
            {
              "internalType": "uint256",
              "name": "deadline",
              "type": "uint256"
            }
          ],
          "internalType": "struct IClearingHouse.RemoveLiquidityParams",
          "name": "params",
          "type": "tuple"
        }
      ],
      "name": "removeLiquidity",
      "outputs": [
        {
          "components": [
            {
              "internalType": "uint256",
              "name": "base",
              "type": "uint256"
            },
            {
              "internalType": "uint256",
              "name": "quote",
              "type": "uint256"
            },
            {
              "internalType": "uint256",
              "name": "fee",
              "type": "uint256"
            }
          ],
          "internalType": "struct IClearingHouse.RemoveLiquidityResponse",
          "name": "",
          "type": "tuple"
        }
      ],
      "stateMutability": "nonpayable",
      "type": "function"
    },
    {
      "inputs": [],
      "name": "renounceOwnership",
      "outputs": [],
      "stateMutability": "nonpayable",
      "type": "function"
    },
    {
      "inputs": [
        {
          "internalType": "address",
          "name": "delegateApprovalArg",
          "type": "address"
        }
      ],
      "name": "setDelegateApproval",
      "outputs": [],
      "stateMutability": "nonpayable",
      "type": "function"
    },
    {
      "inputs": [
        {
          "internalType": "address",
          "name": "newOwner",
          "type": "address"
        }
      ],
      "name": "setOwner",
      "outputs": [],
      "stateMutability": "nonpayable",
      "type": "function"
    },
    {
      "inputs": [
        {
          "internalType": "address",
          "name": "trader",
          "type": "address"
        }
      ],
      "name": "settleAllFunding",
      "outputs": [],
      "stateMutability": "nonpayable",
      "type": "function"
    },
    {
      "inputs": [
        {
          "internalType": "uint256",
          "name": "amount0Owed",
          "type": "uint256"
        },
        {
          "internalType": "uint256",
          "name": "amount1Owed",
          "type": "uint256"
        },
        {
          "internalType": "bytes",
          "name": "data",
          "type": "bytes"
        }
      ],
      "name": "uniswapV3MintCallback",
      "outputs": [],
      "stateMutability": "nonpayable",
      "type": "function"
    },
    {
      "inputs": [
        {
          "internalType": "int256",
          "name": "amount0Delta",
          "type": "int256"
        },
        {
          "internalType": "int256",
          "name": "amount1Delta",
          "type": "int256"
        },
        {
          "internalType": "bytes",
          "name": "data",
          "type": "bytes"
        }
      ],
      "name": "uniswapV3SwapCallback",
      "outputs": [],
      "stateMutability": "nonpayable",
      "type": "function"
    },
    {
      "inputs": [],
      "name": "unpause",
      "outputs": [],
      "stateMutability": "nonpayable",
      "type": "function"
    },
    {
      "inputs": [],
      "name": "updateOwner",
      "outputs": [],
      "stateMutability": "nonpayable",
      "type": "function"
    },
    {
      "inputs": [],
      "name": "versionRecipient",
      "outputs": [
        {
          "internalType": "string",
          "name": "",
          "type": "string"
        }
      ],
      "stateMutability": "pure",
      "type": "function"
    }
  ],
  "transactionHash": "0x4196d1e7ac9a7dc6b54abe3c30690d6ed29d8f9b2a08531e05cf0183569fee0e",
  "args": [],
  "numDeployments": 1,
  "solcInputHash": "7a16bbbc5c6fea2b6505d4631b28aae2",
  "bytecode": "0x608060405234801561001057600080fd5b50615f5f80620000216000396000f3fe608060405234801561001057600080fd5b50600436106101da5760003560e01c806386b9d81f11610105578063c35eb28c1161009d578063c35eb28c1461038c578063cc3606dc146103ac578063cde109b6146103bf578063ce1b815f146103df578063d3487997146103e7578063e95c9741146103fa578063eb9b912e1461040d578063f807cd2214610420578063fa461e3314610428576101da565b806386b9d81f1461032e5780638d928af8146103415780638da5cb5b1461034957806392a25daf14610351578063aa2a829414610359578063b081983b14610361578063b248c4ef14610369578063b6b1b6c314610371578063bc5920ba14610384576101da565b8063572b6c0511610178578063572b6c05146102a05780635ae80951146102c05780635c975abb146102e057806365d461bd146102e85780636896fabf146102fb5780636c8381f814610303578063715018a61461030b57806380a98332146103135780638456cb5914610326576101da565b8062aa9a89146101df578062c2473e1461020957806313af40351461022b578063158626f71461024057806315beff131461025557806335876476146102685780633f4ba83a1461027b578063486ff0cd146102835780634a64d67d14610298575b600080fd5b6101f26101ed3660046150a1565b61043b565b604051610200929190615d04565b60405180910390f35b61021c610217366004614d58565b61065b565b60405161020093929190615539565b61023e610239366004614b85565b6107e5565b005b610248610940565b604051610200919061541e565b61023e610263366004614b85565b610951565b61023e610276366004614bf5565b610a27565b61023e610e68565b61028b610ecf565b60405161020091906155cd565b610248610eee565b6102b36102ae366004614b85565b610efe565b6040516102009190615525565b6102d36102ce366004614b85565b610f15565b6040516102009190615530565b6102b3610fb9565b61023e6102f6366004614d18565b610fc2565b61024861106e565b61024861107e565b61023e61108d565b61023e610321366004614c8a565b61112e565b61023e611211565b61023e61033c366004614bbd565b611276565b610248611322565b610248611332565b610248611341565b610248611351565b610248611361565b610248611371565b6101f261037f3660046151f0565b611381565b61023e611469565b61039f61039a366004615025565b611555565b6040516102009190615bcb565b61023e6103ba366004614bbd565b611c4f565b6103d26103cd36600461520c565b611cfb565b6040516102009190615c86565b610248611ffd565b61023e6103f5366004614f3d565b61200c565b6101f2610408366004614bbd565b61216e565b61023e61041b366004614b85565b61234b565b61024861246b565b61023e610436366004614f3d565b61247b565b600080610446610fb9565b1561048b576040805162461bcd60e51b815260206004820152601060248201526f14185d5cd8589b194e881c185d5cd95960821b604482015290519081900360640190fd5b600260015414156104d1576040805162461bcd60e51b815260206004820152601f6024820152600080516020615de0833981519152604482015290519081900360640190fd5b60026001556060830135806104e4612605565b111561050b5760405162461bcd60e51b8152600401610502906159b1565b60405180910390fd5b61052061051b6020860186614b85565b612609565b600061052a612699565b90506105428161053d6020880188614b85565b6126a8565b50600061055b826105566020890189614b85565b612807565b6040805160e081019091526001600160a01b03841681529091506000808313916105e690602080820190610591908c018c614b85565b6001600160a01b03168152841515602082018190526040820152600160608201526080016105be866128b5565b81526020018a60200160208101906105d69190614b85565b6001600160a01b031690526128de565b90506106346040518060a0016040528084151581526020018415158152602001836000015181526020018360200151815260200161062d8b60400135856101200151612ad2565b9052612b65565b6106418860800135612c38565b805160209091015160018055909890975095505050505050565b6000806000610668610fb9565b156106ad576040805162461bcd60e51b815260206004820152601060248201526f14185d5cd8589b194e881c185d5cd95960821b604482015290519081900360640190fd5b600260015414156106f3576040805162461bcd60e51b815260206004820152601f6024820152600080516020615de0833981519152604482015290519081900360640190fd5b600260015560a084015180610706612605565b11156107245760405162461bcd60e51b8152600401610502906159b1565b610138546001600160a01b031663a08012a38761073f612699565b6040518363ffffffff1660e01b815260040161075c929190615432565b60206040518083038186803b15801561077457600080fd5b505afa158015610788573d6000803e3d6000fd5b505050506040513d601f19601f820116820180604052508101906107ac9190614eca565b6107c85760405162461bcd60e51b8152600401610502906158f6565b6107d28686612c6c565b6001805591989097509095509350505050565b6107ed612699565b6001600160a01b03166107fe611332565b6001600160a01b031614610842576040805162461bcd60e51b8152602060048201526006602482015265534f5f434e4f60d01b604482015290519081900360640190fd5b6001600160a01b038116610886576040805162461bcd60e51b81526020600482015260066024820152650534f5f4e57360d41b604482015290519081900360640190fd5b6065546001600160a01b03828116911614156108d2576040805162461bcd60e51b8152602060048201526006602482015265534f5f53414f60d01b604482015290519081900360640190fd5b6066546001600160a01b038281169116141561091e576040805162461bcd60e51b8152602060048201526006602482015265534f5f53414360d01b604482015290519081900360640190fd5b606680546001600160a01b0319166001600160a01b0392909216919091179055565b610137546001600160a01b03165b90565b610959612699565b6001600160a01b031661096a611332565b6001600160a01b0316146109ae576040805162461bcd60e51b8152602060048201526006602482015265534f5f434e4f60d01b604482015290519081900360640190fd5b6109c0816001600160a01b0316612d7e565b6109dc5760405162461bcd60e51b815260040161050290615abb565b61013880546001600160a01b0319166001600160a01b0383169081179091556040517fc2a094a533bc4ad86b9c50f1641576f0e8ee311d765abfd05a8b2383c750689190600090a250565b600054610100900460ff1680610a405750610a40612d84565b80610a4e575060005460ff16155b610a895760405162461bcd60e51b815260040180806020018281038252602e815260200180615e48602e913960400191505060405180910390fd5b600054610100900460ff16158015610ab4576000805460ff1961ff0019909116610100171660011790555b610ac6876001600160a01b0316612d7e565b610ae25760405162461bcd60e51b8152600401610502906159d0565b610af4866001600160a01b0316612d7e565b610b105760405162461bcd60e51b8152600401610502906157cc565b856001600160a01b031663313ce5676040518163ffffffff1660e01b815260040160206040518083038186803b158015610b4957600080fd5b505afa158015610b5d573d6000803e3d6000fd5b505050506040513d601f19601f82011682018060405250810190610b8191906153fd565b60ff16601214610ba35760405162461bcd60e51b815260040161050290615641565b610bb5856001600160a01b0316612d7e565b610bd15760405162461bcd60e51b815260040161050290615768565b610be3886001600160a01b0316612d7e565b610bff5760405162461bcd60e51b815260040161050290615891565b610c11836001600160a01b0316612d7e565b610c2d5760405162461bcd60e51b8152600401610502906156e5565b610c3f846001600160a01b0316612d7e565b610c5b5760405162461bcd60e51b815260040161050290615871565b610c6d826001600160a01b0316612d7e565b610c895760405162461bcd60e51b8152600401610502906156a2565b6000846001600160a01b031663b248c4ef6040518163ffffffff1660e01b815260040160206040518083038186803b158015610cc457600080fd5b505afa158015610cd8573d6000803e3d6000fd5b505050506040513d601f19601f82011682018060405250810190610cfc9190614ba1565b9050610d10816001600160a01b0316612d7e565b610d2c5760405162461bcd60e51b815260040161050290615951565b610d34612d95565b610d3c612e3e565b61013280546001600160a01b03199081166001600160a01b038c811691909117909255610133805482168b84161790819055610130805483168b8516179055610131805483168a85161790556101348054831689851617905561013580548316858516179055610136805483168885161790556101378054909216868416179091556040805163313ce56760e01b81529051919092169163313ce567916004808301926020929190829003018186803b158015610df857600080fd5b505afa158015610e0c573d6000803e3d6000fd5b505050506040513d601f19601f82011682018060405250810190610e3091906153fd565b61013160146101000a81548160ff021916908360ff160217905550508015610e5e576000805461ff00191690555b5050505050505050565b610e70612699565b6001600160a01b0316610e81611332565b6001600160a01b031614610ec5576040805162461bcd60e51b8152602060048201526006602482015265534f5f434e4f60d01b604482015290519081900360640190fd5b610ecd612edb565b565b6040805180820190915260058152640322e302e360dc1b602082015290565b610130546001600160a01b031690565b60fd546001600160a01b038281169116145b919050565b6101315461013354604051635ae8095160e01b8152600092610fb392600160a01b90910460ff16916001600160a01b0390911690635ae8095190610f5d90879060040161541e565b60206040518083038186803b158015610f7557600080fd5b505afa158015610f89573d6000803e3d6000fd5b505050506040513d601f19601f82011682018060405250810190610fad9190614f02565b90612f7b565b92915050565b60995460ff1690565b610fca610fb9565b1561100f576040805162461bcd60e51b815260206004820152601060248201526f14185d5cd8589b194e881c185d5cd95960821b604482015290519081900360640190fd5b60026001541415611055576040805162461bcd60e51b815260206004820152601f6024820152600080516020615de0833981519152604482015290519081900360640190fd5b6002600155611065838383612f91565b50506001805550565b610136546001600160a01b031690565b6066546001600160a01b031690565b611095612699565b6001600160a01b03166110a6611332565b6001600160a01b0316146110ea576040805162461bcd60e51b8152602060048201526006602482015265534f5f434e4f60d01b604482015290519081900360640190fd5b6065546040516000916001600160a01b031690600080516020615e97833981519152908390a3606580546001600160a01b0319908116909155606680549091169055565b611136610fb9565b1561117b576040805162461bcd60e51b815260206004820152601060248201526f14185d5cd8589b194e881c185d5cd95960821b604482015290519081900360640190fd5b600260015414156111c1576040805162461bcd60e51b815260206004820152601f6024820152600080516020615de0833981519152604482015290519081900360640190fd5b6002600181905550611207848484848080602002602001604051908101604052809392919081815260200183836020028082843760009201919091525061321192505050565b5050600180555050565b611219612699565b6001600160a01b031661122a611332565b6001600160a01b03161461126e576040805162461bcd60e51b8152602060048201526006602482015265534f5f434e4f60d01b604482015290519081900360640190fd5b610ecd613531565b61127e610fb9565b156112c3576040805162461bcd60e51b815260206004820152601060248201526f14185d5cd8589b194e881c185d5cd95960821b604482015290519081900360640190fd5b60026001541415611309576040805162461bcd60e51b815260206004820152601f6024820152600080516020615de0833981519152604482015290519081900360640190fd5b600260015561131a82826000612f91565b505060018055565b610133546001600160a01b031690565b6065546001600160a01b031690565b610138546001600160a01b031690565b610132546001600160a01b031690565b610131546001600160a01b031690565b610135546001600160a01b031690565b60008061138c610fb9565b156113d1576040805162461bcd60e51b815260206004820152601060248201526f14185d5cd8589b194e881c185d5cd95960821b604482015290519081900360640190fd5b60026001541415611417576040805162461bcd60e51b815260206004820152601f6024820152600080516020615de0833981519152604482015290519081900360640190fd5b600260015560a08301518061142a612605565b11156114485760405162461bcd60e51b8152600401610502906159b1565b611459611453612699565b85612c6c565b5060018055909590945092505050565b6066546001600160a01b03166114ae576040805162461bcd60e51b81526020600482015260056024820152640534f5f43360dc1b604482015290519081900360640190fd5b6114b6612699565b6066546001600160a01b03908116911614611501576040805162461bcd60e51b8152602060048201526006602482015265534f5f434e4360d01b604482015290519081900360640190fd5b6066546065546040516001600160a01b039283169290911690600080516020615e9783398151915290600090a360668054606580546001600160a01b03199081166001600160a01b03841617909155169055565b61155d614981565b611565610fb9565b156115aa576040805162461bcd60e51b815260206004820152601060248201526f14185d5cd8589b194e881c185d5cd95960821b604482015290519081900360640190fd5b600260015414156115f0576040805162461bcd60e51b815260206004820152601f6024820152600080516020615de0833981519152604482015290519081900360640190fd5b600260015561010082013580611604612605565b11156116225760405162461bcd60e51b8152600401610502906159b1565b61163261051b6020850185614b85565b610134546001600160a01b031663ff8180116116516020860186614b85565b6040518263ffffffff1660e01b815260040161166d919061541e565b60206040518083038186803b15801561168557600080fd5b505afa158015611699573d6000803e3d6000fd5b505050506040513d601f19601f820116820180604052508101906116bd9190614eca565b156116da5760405162461bcd60e51b815260040161050290615620565b6116eb610100840160e08501614eae565b156117085760405162461bcd60e51b81526004016105029061582e565b6000611712612699565b905061172a816117256020870187614b85565b6135b4565b600061173d8261053d6020880188614b85565b610135546040805160e081019091526001600160a01b0385811682529293506000929091169063e8ab2fb39060208082019061177b908b018b614b85565b6001600160a01b0316815260200189602001358152602001896040013581526020018960600160208101906117b09190614ee6565b60020b81526020016117c860a08b0160808c01614ee6565b60020b8152602001858152506040518263ffffffff1660e01b81526004016117f09190615b5d565b608060405180830381600087803b15801561180a57600080fd5b505af115801561181e573d6000803e3d6000fd5b505050506040513d601f19601f82011682018060405250810190611842919061503d565b905061186081600001518760a0013583602001518960c00135613615565b611871610100870160e08801614eae565b15611b7157805160208201519015159015158114156118a25760405162461bcd60e51b815260040161050290615a75565b610136546000906001600160a01b0316636332fef6866118c560208c018c614b85565b6040518363ffffffff1660e01b81526004016118e2929190615432565b60606040518083038186803b1580156118fa57600080fd5b505afa15801561190e573d6000803e3d6000fd5b505050506040513d601f19601f8201168201806040525081019061193291906150b2565b9050600080831561199857845161194890613641565b835112156119685760405162461bcd60e51b815260040161050290615a12565b84516119739061368d565b835160208501519193506119919161198b90856136a1565b9061374a565b90506119f0565b6119a58560200151613641565b836020015112156119c85760405162461bcd60e51b815260040161050290615a33565b6119d5856020015161368d565b602084015184519192506119ed9161198b90846136a1565b91505b610135546001600160a01b031663b0c04174611a3e89611a1360208f018f614b85565b8e6060016020810190611a269190614ee6565b8f6080016020810190611a399190614ee6565b613802565b84846040518463ffffffff1660e01b8152600401611a5e93929190615539565b600060405180830381600087803b158015611a7857600080fd5b505af1158015611a8c573d6000803e3d6000fd5b505061013654600092506001600160a01b03169050633c9b5ad189611ab460208f018f614b85565b86866040518563ffffffff1660e01b8152600401611ad59493929190615470565b6040805180830381600087803b158015611aee57600080fd5b505af1158015611b02573d6000803e3d6000fd5b505050506040513d601f19601f82011682018060405250810190611b269190614f1a565b915060009050611b41611b3c60208e018e614b85565b613863565b6001600160a01b03169050611b6a89611b5d60208f018f614b85565b86866000876000886138e7565b5050505050505b611b8783611b828360400151613641565b613946565b611b9083613979565b611c0683611ba16020890189614b85565b610130546001600160a01b0316611bbe60808b0160608c01614ee6565b611bce60a08c0160808d01614ee6565b8651611bd990613641565b611be68860200151613641565b611bfc89606001516001600160801b03166139ec565b8960400151613a2f565b604051806080016040528082600001518152602001826020015181526020018260400151815260200182606001516001600160801b031681525094505050505060018055919050565b611c57610fb9565b15611c9c576040805162461bcd60e51b815260206004820152601060248201526f14185d5cd8589b194e881c185d5cd95960821b604482015290519081900360640190fd5b60026001541415611ce2576040805162461bcd60e51b815260206004820152601f6024820152600080516020615de0833981519152604482015290519081900360640190fd5b600260015561131a8282611cf68282613a99565b613211565b611d036149a9565b611d0b610fb9565b15611d50576040805162461bcd60e51b815260206004820152601060248201526f14185d5cd8589b194e881c185d5cd95960821b604482015290519081900360640190fd5b60026001541415611d96576040805162461bcd60e51b815260206004820152601f6024820152600080516020615de0833981519152604482015290519081900360640190fd5b600260015560c082013580611da9612605565b1115611dc75760405162461bcd60e51b8152600401610502906159b1565b611dd46020840184614b85565b6001600160a01b031663b187bd266040518163ffffffff1660e01b815260040160206040518083038186803b158015611e0c57600080fd5b505afa158015611e20573d6000803e3d6000fd5b505050506040513d601f19601f82011682018060405250810190611e449190614eca565b15611e615760405162461bcd60e51b815260040161050290615b1e565b6000611e6b612699565b9050611e7e8161053d6020870187614b85565b506000611f126040518060a00160405280846001600160a01b03168152602001876000016020810190611eb19190614b85565b6001600160a01b03168152602001876020016020810190611ed29190614ee6565b60020b8152602001611eea6060890160408a01614ee6565b60020b8152602001611f026080890160608a016153a1565b6001600160801b03169052613b21565b9050611f308160000151866080013583602001518860a00135613615565b611f5782611f416020880188614b85565b8360600151846080015185604001516000613bac565b611fd182611f686020880188614b85565b610130546001600160a01b0316611f8560408a0160208b01614ee6565b611f9560608b0160408c01614ee6565b8651611fa09061368d565b611fad886020015161368d565b611bfc8d6060016020810190611fc391906153a1565b6001600160801b0316613ca4565b604080516060810182528251815260208084015190820152918101519082015260018055949350505050565b60fd546001600160a01b031690565b610135546001600160a01b031633146120375760405162461bcd60e51b815260040161050290615972565b600061204582840184615199565b905084156120d757600081602001516001600160a01b0316630dfe16816040518163ffffffff1660e01b815260040160206040518083038186803b15801561208c57600080fd5b505afa1580156120a0573d6000803e3d6000fd5b505050506040513d601f19601f820116820180604052508101906120c49190614ba1565b90506120d581836020015188613cb8565b505b831561216757600081602001516001600160a01b031663d21220a76040518163ffffffff1660e01b815260040160206040518083038186803b15801561211c57600080fd5b505afa158015612130573d6000803e3d6000fd5b505050506040513d601f19601f820116820180604052508101906121549190614ba1565b905061216581836020015187613cb8565b505b5050505050565b600080826001600160a01b031663c2b6b58c6040518163ffffffff1660e01b815260040160206040518083038186803b1580156121aa57600080fd5b505afa1580156121be573d6000803e3d6000fd5b505050506040513d601f19601f820116820180604052508101906121e29190614eca565b6121fe5760405162461bcd60e51b815260040161050290615b3d565b6122088484613a99565b51156122265760405162461bcd60e51b81526004016105029061584f565b60006122328585612807565b905061223e85856126a8565b5061013654604051635f9d05ad60e01b81526000918291829182916001600160a01b0390911690635f9d05ad9061227b908c908c90600401615432565b608060405180830381600087803b15801561229557600080fd5b505af11580156122a9573d6000803e3d6000fd5b505050506040513d601f19601f820116820180604052508101906122cd9190614f8d565b9350935093509350876001600160a01b0316896001600160a01b03167f90195cdfd4796e4ab1175fced26945fa837ef5989e372fcd306856d8ad0ff23b8787878787604051612320959493929190615582565b60405180910390a3612331856128b5565b61233a856128b5565b9650965050505050505b9250929050565b610133546001600160a01b0316612360612699565b6001600160a01b0316148061238d5750806001600160a01b0316612382612699565b6001600160a01b0316145b6123a95760405162461bcd60e51b815260040161050290615726565b610136546040516357ba739b60e11b81526000916001600160a01b03169063af74e736906123db90859060040161541e565b60006040518083038186803b1580156123f357600080fd5b505afa158015612407573d6000803e3d6000fd5b505050506040513d6000823e601f3d908101601f1916820160405261242f9190810190614d8e565b805190915060005b818110156124655761245c8484838151811061244f57fe5b60200260200101516126a8565b50600101612437565b50505050565b610134546001600160a01b031690565b610134546001600160a01b031633146124a65760405162461bcd60e51b815260040161050290615683565b6000841380156124b65750600083125b806124cc57506000841280156124cc5750600083135b6124e85760405162461bcd60e51b8152600401610502906157ed565b60006124f682840184615285565b604081015190915060008080881361257f57826001600160a01b031663d21220a76040518163ffffffff1660e01b815260040160206040518083038186803b15801561254157600080fd5b505afa158015612555573d6000803e3d6000fd5b505050506040513d601f19601f820116820180604052508101906125799190614ba1565b876125f2565b826001600160a01b0316630dfe16816040518163ffffffff1660e01b815260040160206040518083038186803b1580156125b857600080fd5b505afa1580156125cc573d6000803e3d6000fd5b505050506040513d601f19601f820116820180604052508101906125f09190614ba1565b885b91509150610e5e82856040015183613cb8565b4290565b806001600160a01b03166347535d7b6040518163ffffffff1660e01b815260040160206040518083038186803b15801561264257600080fd5b505afa158015612656573d6000803e3d6000fd5b505050506040513d601f19601f8201168201806040525081019061267a9190614eca565b6126965760405162461bcd60e51b815260040161050290615706565b50565b60006126a3613d54565b905090565b6126b06149ca565b61013454604051631e81ac3360e01b81526000916001600160a01b031690631e81ac33906126e49087908790600401615432565b606060405180830381600087803b1580156126fe57600080fd5b505af1158015612712573d6000803e3d6000fd5b505050506040513d601f19601f820116820180604052508101906127369190614fc2565b9250905080156127995761274d84611b8283613d84565b826001600160a01b0316846001600160a01b03167f733330d4aad1a878654bf888817b79bc6478013399be29fa3b8845c81305249e836040516127909190615530565b60405180910390a35b610136548251604051632e4586c360e01b81526001600160a01b0390921691632e4586c3916127ce918891889160040161544c565b600060405180830381600087803b1580156127e857600080fd5b505af11580156127fc573d6000803e3d6000fd5b505050505092915050565b6101365460405163165c4e2960e31b815260009182916001600160a01b039091169063b2e271489061283f9087908790600401615432565b60206040518083038186803b15801561285757600080fd5b505afa15801561286b573d6000803e3d6000fd5b505050506040513d601f19601f8201168201806040525081019061288f9190614f02565b9050806128ae5760405162461bcd60e51b815260040161050290615adc565b9392505050565b6000808212156128d5576128d06128cb83613d84565b613db0565b610fb3565b610fb382613db0565b6128e66149e4565b610134546040805160e08101825284516001600160a01b0390811682526020808701518216908301528583015115158284015260608087015115159083015260808087015115159083015260a0808701519083015260c08087015182169083015291516310c5328760e21b81526000939290921691634314ca1c9161296d91600401615ca7565b61014060405180830381600087803b15801561298857600080fd5b505af115801561299c573d6000803e3d6000fd5b505050506040513d601f19601f820116820180604052508101906129c0919061530e565b6101375460a08201519192506129e5916001600160a01b0390911690611b8290613641565b612a1e836000015184602001518360400151612a12612a078660800151613641565b606087015190613e07565b8560c001516000613e6c565b60c081015115612a7557612a4c612a47612a36613ee1565b8551612a4190613f5f565b90613fe1565b613641565b8351612a5790610f15565b1215612a755760405162461bcd60e51b815260040161050290615afc565b8260800151612a89578251612a8990613979565b6000612a9d84600001518560200151613ff6565b9050612acb84600001518560200151846040015185606001518660800151868860c001518960e001516138e7565b5092915050565b600081612adf57826128ae565b6101325460408051633a14199b60e11b815290516128ae926001600160a01b0316916374283336916004808301926020929190829003018186803b158015612b2657600080fd5b505afa158015612b3a573d6000803e3d6000fd5b505050506040513d601f19601f82011682018060405250810190612b5e91906153bd565b8490613fe1565b6080810151612b7357612696565b805115612bde57806020015115612bb157806080015181606001511015612bac5760405162461bcd60e51b815260040161050290615a54565b612bd9565b806080015181604001511115612bd95760405162461bcd60e51b8152600401610502906156c4565b612696565b806020015115612c1057806080015181604001511015612bd95760405162461bcd60e51b8152600401610502906159f1565b8060800151816060015111156126965760405162461bcd60e51b815260040161050290615789565b80156126965760405181907f09a07769667a46c2b89124a4d731c76fb5203061073aec16319ba9c6a79a324890600090a250565b6000806000612c7e8460000151612609565b612c8c8585600001516135b4565b612c9a8585600001516126a8565b506000612d0e6040518060e00160405280886001600160a01b0316815260200187600001516001600160a01b03168152602001876020015115158152602001876040015115158152602001600015158152602001876060015181526020018760c001516001600160a01b03168152506128de565b9050612d576040518060a0016040528087602001511515815260200187604001511515815260200183600001518152602001836020015181526020018760800151815250612b65565b612d648560e00151612c38565b805160208201516080909201519097919650945092505050565b3b151590565b6000612d8f30612d7e565b15905090565b600054610100900460ff1680612dae5750612dae612d84565b80612dbc575060005460ff16155b612df75760405162461bcd60e51b815260040180806020018281038252602e815260200180615e48602e913960400191505060405180910390fd5b600054610100900460ff16158015612e22576000805460ff1961ff0019909116610100171660011790555b612e2a61407a565b8015612696576000805461ff001916905550565b600054610100900460ff1680612e575750612e57612d84565b80612e65575060005460ff16155b612ea05760405162461bcd60e51b815260040180806020018281038252602e815260200180615e48602e913960400191505060405180910390fd5b600054610100900460ff16158015612ecb576000805460ff1961ff0019909116610100171660011790555b612ed361411f565b612e2a61420e565b612ee3610fb9565b612f2b576040805162461bcd60e51b815260206004820152601460248201527314185d5cd8589b194e881b9bdd081c185d5cd95960621b604482015290519081900360640190fd5b6099805460ff191690557f5db9ee0a495bf2e6ff9c91a7834c1ba4fdd244a5e8aa4e537bd38aeae4b073aa612f5e612699565b604080516001600160a01b039092168252519081900360200190a1565b60006128ae8360ff601285900316600a0a6136a1565b612f9a82612609565b6101365460405163659e3dc760e11b81526001600160a01b039091169063cb3c7b8e90612fcb90869060040161541e565b60206040518083038186803b158015612fe357600080fd5b505afa158015612ff7573d6000803e3d6000fd5b505050506040513d601f19601f8201168201806040525081019061301b9190614eca565b156130385760405162461bcd60e51b8152600401610502906158d2565b613041836142ab565b61305d5760405162461bcd60e51b815260040161050290615663565b60006130698484612807565b9050600061307782846136a1565b12156130955760405162461bcd60e51b8152600401610502906158b2565b600061309f612699565b90506130ab81856135b4565b6130b585856126a8565b506130c081856126a8565b5060006130cc86610f15565b90506000806130dd888885896142c6565b915091506130f088888484600080613bac565b60006131066130fd613ee1565b612a41846128b5565b905061311589611b828361368d565b60006131228260026143b5565b905060008086121561313657829150613143565b613140838361441c565b90505b6101375461315d906001600160a01b0316611b8283613641565b600061316886613d84565b9050600061318761317885613641565b61318188613d84565b90614479565b9050613198898d8484600080613bac565b6131a189613979565b8b6001600160a01b03168d6001600160a01b03167fd9aced30440caca81570436bc942f816cfd95a3f08f700a2aeb6334c7cb5b4976131df896128b5565b6131e88b6128b5565b898e6040516131fa9493929190615d12565b60405180910390a350505050505050505050505050565b61321a82612609565b80516132255761352c565b60006132b78461013260009054906101000a90046001600160a01b03166001600160a01b031663a85494026040518163ffffffff1660e01b815260040160206040518083038186803b15801561327a57600080fd5b505afa15801561328e573d6000803e3d6000fd5b505050506040513d601f19601f820116820180604052508101906132b291906153bd565b6144de565b12806132c757506132c7836142ab565b6132e35760405162461bcd60e51b815260040161050290615a9a565b6132ed83836126a8565b506132f6614a3c565b815160005b81811015613510576101355484516000916001600160a01b03169063acf718279087908590811061332857fe5b60200260200101516040518263ffffffff1660e01b815260040161334c9190615530565b6101206040518083038186803b15801561336557600080fd5b505afa158015613379573d6000803e3d6000fd5b505050506040513d601f19601f8201168201806040525081019061339d9190615106565b90508482815181106133ab57fe5b60200260200101516133c7888884602001518560400151613802565b146133e45760405162461bcd60e51b815260040161050290615747565b60006134426040518060a001604052808a6001600160a01b03168152602001896001600160a01b03168152602001846020015160020b8152602001846040015160020b815260200184600001516001600160801b0316815250613b21565b805186519192506134539190614512565b85526020808201519086015161346891614512565b60208601526040808201519086015161348091614512565b60408601526060808201519086015161349891614479565b6060860152608080820151908601516134b091614479565b608086015261013054602083015160408401518351613506938c938c936001600160a01b03909216929091906134e59061368d565b6134f2886020015161368d565b8951611bfc906001600160801b0316613ca4565b50506001016132fb565b5061216785858460600151856080015186604001516000613bac565b505050565b613539610fb9565b1561357e576040805162461bcd60e51b815260206004820152601060248201526f14185d5cd8589b194e881c185d5cd95960821b604482015290519081900360640190fd5b6099805460ff191660011790557f62e78cea01bee320cd4e420270b5ea74000d11b0c9f74754ebdbfc544b05a258612f5e612699565b61013654604051633f1cdc8560e21b81526001600160a01b039091169063fc737214906135e79085908590600401615432565b600060405180830381600087803b15801561360157600080fd5b505af1158015612165573d6000803e3d6000fd5b8284101580156136255750808210155b6124655760405162461bcd60e51b81526004016105029061580d565b60006001600160ff1b038211156136895760405162461bcd60e51b8152600401808060200182810382526028815260200180615ede6028913960400191505060405180910390fd5b5090565b600061369882613641565b60000392915050565b6000826136b057506000610fb3565b826000191480156136c45750600160ff1b82145b156137005760405162461bcd60e51b8152600401808060200182810382526027815260200180615eb76027913960400191505060405180910390fd5b8282028284828161370d57fe5b05146128ae5760405162461bcd60e51b8152600401808060200182810382526027815260200180615eb76027913960400191505060405180910390fd5b60008161379e576040805162461bcd60e51b815260206004820181905260248201527f5369676e6564536166654d6174683a206469766973696f6e206279207a65726f604482015290519081900360640190fd5b816000191480156137b25750600160ff1b83145b156137ee5760405162461bcd60e51b8152600401808060200182810382526021815260200180615e766021913960400191505060405180910390fd5b60008284816137f957fe5b05949350505050565b604080516bffffffffffffffffffffffff19606096871b81166020808401919091529590961b9095166034860152600292830b60e890811b60488701529190920b901b604b8401528051602e818503018152604e9093019052815191012090565b610134546040516399e4a77160e01b81526000916001600160a01b0316906399e4a7719061389790859085906004016154e8565b60206040518083038186803b1580156138af57600080fd5b505afa1580156138c3573d6000803e3d6000fd5b505050506040513d601f19601f82011682018060405250810190610fb39190614ba1565b866001600160a01b0316886001600160a01b03167f968bc4f738eae0486dc6736c4b427dbafa4acfdf6eaf223337791ddeb3a56247888888888888604051613934969594939291906155a5565b60405180910390a35050505050505050565b6101365460405163874044f360e01b81526001600160a01b039091169063874044f3906135e790859085906004016154cf565b60006139ce8261013260009054906101000a90046001600160a01b03166001600160a01b031663543ce73a6040518163ffffffff1660e01b815260040160206040518083038186803b15801561327a57600080fd5b12156126965760405162461bcd60e51b8152600401610502906157aa565b80600f81900b8114610f105760405162461bcd60e51b8152600401808060200182810382526027815260200180615e006027913960400191505060405180910390fd5b866001600160a01b0316886001600160a01b03168a6001600160a01b03167fcb47d8bf351d355bdd5497973533eada41777b4509f2585a62ae246336ebaa94898989898989604051613a869695949392919061554f565b60405180910390a4505050505050505050565b610135546040516321b499f560e11b81526060916001600160a01b03169063436933ea90613acd9086908690600401615432565b60006040518083038186803b158015613ae557600080fd5b505afa158015613af9573d6000803e3d6000fd5b505050506040513d6000823e601f3d908101601f191682016040526128ae9190810190614e2b565b613b29614a3c565b61013554604051635b778b9d60e01b81526001600160a01b0390911690635b778b9d90613b5a908590600401615c2f565b60a060405180830381600087803b158015613b7457600080fd5b505af1158015613b88573d6000803e3d6000fd5b505050506040513d601f19601f82011682018060405250810190610fb3919061521d565b60008415613c5b5761013454604080516080810182526001600160a01b038a811682528981166020830152818301899052606082018890529151631393a46960e01b81529190921691631393a46991613c089190600401615bf6565b60206040518083038186803b158015613c2057600080fd5b505afa158015613c34573d6000803e3d6000fd5b505050506040513d601f19601f82011682018060405250810190613c589190614f02565b90505b613c718787878785613c6c89613641565b613e6c565b613c9b8787878786613c838d8d613ff6565b87613c8d8e613863565b6001600160a01b03166138e7565b50505050505050565b6000613698826001600160801b03166139ec565b60405163a9059cbb60e01b81526001600160a01b0384169063a9059cbb90613ce690859085906004016154cf565b602060405180830381600087803b158015613d0057600080fd5b505af1158015613d14573d6000803e3d6000fd5b505050506040513d601f19601f82011682018060405250810190613d389190614eca565b61352c5760405162461bcd60e51b815260040161050290615992565b600060143610801590613d6b5750613d6b33610efe565b15613d7f575060131936013560601c61094e565b503390565b6000600160ff1b8213613da95760405162461bcd60e51b81526004016105029061591a565b5060000390565b600080821215613689576040805162461bcd60e51b815260206004820181905260248201527f53616665436173743a2076616c7565206d75737420626520706f736974697665604482015290519081900360640190fd5b6000818303818312801590613e1c5750838113155b80613e315750600083128015613e3157508381135b6128ae5760405162461bcd60e51b8152600401808060200182810382526024815260200180615f066024913960400191505060405180910390fd5b610136546040516389f9217760e01b81526001600160a01b03909116906389f9217790613ea790899089908990899089908990600401615499565b600060405180830381600087803b158015613ec157600080fd5b505af1158015613ed5573d6000803e3d6000fd5b50505050505050505050565b610132546040805163fedf924b60e01b815290516000926001600160a01b03169163fedf924b916004808301926020929190829003018186803b158015613f2757600080fd5b505afa158015613f3b573d6000803e3d6000fd5b505050506040513d601f19601f820116820180604052508101906126a391906153bd565b61013654604051633666e41760e11b81526000916001600160a01b031690636ccdc82e90613f9190859060040161541e565b60206040518083038186803b158015613fa957600080fd5b505afa158015613fbd573d6000803e3d6000fd5b505050506040513d601f19601f82011682018060405250810190610fb39190614f02565b60006128ae838362ffffff16620f424061456c565b6101365460405163d50d01b760e01b81526000916001600160a01b03169063d50d01b79061402a9086908690600401615432565b60206040518083038186803b15801561404257600080fd5b505afa158015614056573d6000803e3d6000fd5b505050506040513d601f19601f820116820180604052508101906128ae9190614f02565b600054610100900460ff16806140935750614093612d84565b806140a1575060005460ff16155b6140dc5760405162461bcd60e51b815260040180806020018281038252602e815260200180615e48602e913960400191505060405180910390fd5b600054610100900460ff16158015614107576000805460ff1961ff0019909116610100171660011790555b600180558015612696576000805461ff001916905550565b600054610100900460ff16806141385750614138612d84565b80614146575060005460ff16155b6141815760405162461bcd60e51b815260040180806020018281038252602e815260200180615e48602e913960400191505060405180910390fd5b600054610100900460ff161580156141ac576000805460ff1961ff0019909116610100171660011790555b6141b461461b565b60006141be612699565b606580546001600160a01b0319166001600160a01b03831690811790915560405191925090600090600080516020615e97833981519152908290a3508015612696576000805461ff001916905550565b600054610100900460ff16806142275750614227612d84565b80614235575060005460ff16155b6142705760405162461bcd60e51b815260040180806020018281038252602e815260200180615e48602e913960400191505060405180910390fd5b600054610100900460ff1615801561429b576000805460ff1961ff0019909116610100171660011790555b6142a36146ac565b612e2a61474c565b60006142b6826147f7565b6142bf83610f15565b1292915050565b6101365460405163041216fb60e21b8152600091829182916001600160a01b0316906310485bec90614300908a908a908a9060040161544c565b60206040518083038186803b15801561431857600080fd5b505afa15801561432c573d6000803e3d6000fd5b505050506040513d601f19601f820116820180604052508101906143509190614f02565b905061435b816128b5565b614364856128b5565b118061436e575083155b15614377578093505b600061438285613d84565b905060006143a5614395612a478a614829565b8790670de0b6b3a76400006148dd565b9199919850909650505050505050565b600080821161440b576040805162461bcd60e51b815260206004820152601a60248201527f536166654d6174683a206469766973696f6e206279207a65726f000000000000604482015290519081900360640190fd5b81838161441457fe5b049392505050565b600082821115614473576040805162461bcd60e51b815260206004820152601e60248201527f536166654d6174683a207375627472616374696f6e206f766572666c6f770000604482015290519081900360640190fd5b50900390565b600082820181831280159061448e5750838112155b806144a357506000831280156144a357508381125b6128ae5760405162461bcd60e51b8152600401808060200182810382526021815260200180615e276021913960400191505060405180910390fd5b61013354604051633ffd130360e01b81526000916001600160a01b031690633ffd13039061402a9086908690600401615507565b6000828201838110156128ae576040805162461bcd60e51b815260206004820152601b60248201527f536166654d6174683a206164646974696f6e206f766572666c6f770000000000604482015290519081900360640190fd5b60008080600019858709868602925082811090839003039050806145a2576000841161459757600080fd5b5082900490506128ae565b8084116145ae57600080fd5b6000848688096000868103871696879004966002600389028118808a02820302808a02820302808a02820302808a02820302808a02820302808a02909103029181900381900460010186841190950394909402919094039290920491909117919091029150509392505050565b600054610100900460ff16806146345750614634612d84565b80614642575060005460ff16155b61467d5760405162461bcd60e51b815260040180806020018281038252602e815260200180615e48602e913960400191505060405180910390fd5b600054610100900460ff161580156146a8576000805460ff1961ff0019909116610100171660011790555b612e2a5b600054610100900460ff16806146c557506146c5612d84565b806146d3575060005460ff16155b61470e5760405162461bcd60e51b815260040180806020018281038252602e815260200180615e48602e913960400191505060405180910390fd5b600054610100900460ff16158015612e2a576000805460ff1961ff0019909116610100171660011790558015612696576000805461ff001916905550565b600054610100900460ff16806147655750614765612d84565b80614773575060005460ff16155b6147ae5760405162461bcd60e51b815260040180806020018281038252602e815260200180615e48602e913960400191505060405180910390fd5b600054610100900460ff161580156147d9576000805460ff1961ff0019909116610100171660011790555b6099805460ff191690558015612696576000805461ff001916905550565b6101365460405163f75c266d60e01b81526000916001600160a01b03169063f75c266d90613f9190859060040161541e565b6000816001600160a01b0316631208064761013260009054906101000a90046001600160a01b03166001600160a01b0316633e742e3b6040518163ffffffff1660e01b815260040160206040518083038186803b15801561488957600080fd5b505afa15801561489d573d6000803e3d6000fd5b505050506040513d601f19601f820116820180604052508101906148c191906153d9565b6040518263ffffffff1660e01b8152600401613f919190615d36565b600080600085126148ee57846148f7565b6148f785613d84565b905060008085126149085784614911565b61491185613d84565b9050600080871280156149245750600086135b8061493a575060008713801561493a5750600086125b614945576000614948565b60015b9050600061495784848861456c565b90508161496c5761496781613641565b614975565b6149758161368d565b98975050505050505050565b6040518060800160405280600081526020016000815260200160008152602001600081525090565b60405180606001604052806000815260200160008152602001600081525090565b604051806040016040528060008152602001600081525090565b6040518061014001604052806000815260200160008152602001600081526020016000815260200160008152602001600081526020016000815260200160008152602001600060020b81526020016000151581525090565b6040518060a0016040528060008152602001600081526020016000815260200160008152602001600081525090565b8035610f1081615d87565b8035610f1081615d9c565b8051610f1081615d9c565b60008083601f840112614a9d578182fd5b5081356001600160401b03811115614ab3578182fd5b60208301915083602082850101111561234457600080fd5b8051610f1081615daa565b6000610100808385031215614ae9578182fd5b604051908101906001600160401b0382118183101715614b0557fe5b81604052809250614b1584614a6b565b8152614b2360208501614a76565b6020820152614b3460408501614a76565b6040820152606084013560608201526080840135608082015260a084013560a0820152614b6360c08501614a6b565b60c082015260e084013560e0820152505092915050565b8051610f1081615db9565b600060208284031215614b96578081fd5b81356128ae81615d87565b600060208284031215614bb2578081fd5b81516128ae81615d87565b60008060408385031215614bcf578081fd5b8235614bda81615d87565b91506020830135614bea81615d87565b809150509250929050565b600080600080600080600060e0888a031215614c0f578283fd5b8735614c1a81615d87565b96506020880135614c2a81615d87565b95506040880135614c3a81615d87565b94506060880135614c4a81615d87565b93506080880135614c5a81615d87565b925060a0880135614c6a81615d87565b915060c0880135614c7a81615d87565b8091505092959891949750929550565b60008060008060608587031215614c9f578182fd5b8435614caa81615d87565b93506020850135614cba81615d87565b925060408501356001600160401b0380821115614cd5578384fd5b818701915087601f830112614ce8578384fd5b813581811115614cf6578485fd5b8860208083028501011115614d09578485fd5b95989497505060200194505050565b600080600060608486031215614d2c578081fd5b8335614d3781615d87565b92506020840135614d4781615d87565b929592945050506040919091013590565b6000806101208385031215614d6b578182fd5b8235614d7681615d87565b9150614d858460208501614ad6565b90509250929050565b60006020808385031215614da0578182fd5b82516001600160401b03811115614db5578283fd5b8301601f81018513614dc5578283fd5b8051614dd8614dd382615d6a565b615d47565b8181528381019083850185840285018601891015614df4578687fd5b8694505b83851015614e1f578051614e0b81615d87565b835260019490940193918501918501614df8565b50979650505050505050565b60006020808385031215614e3d578182fd5b82516001600160401b03811115614e52578283fd5b8301601f81018513614e62578283fd5b8051614e70614dd382615d6a565b8181528381019083850185840285018601891015614e8c578687fd5b8694505b83851015614e1f578051835260019490940193918501918501614e90565b600060208284031215614ebf578081fd5b81356128ae81615d9c565b600060208284031215614edb578081fd5b81516128ae81615d9c565b600060208284031215614ef7578081fd5b81356128ae81615daa565b600060208284031215614f13578081fd5b5051919050565b60008060408385031215614f2c578182fd5b505080516020909101519092909150565b60008060008060608587031215614f52578182fd5b843593506020850135925060408501356001600160401b03811115614f75578283fd5b614f8187828801614a8c565b95989497509550505050565b60008060008060808587031215614fa2578182fd5b505082516020840151604085015160609095015191969095509092509050565b6000808284036060811215614fd5578283fd5b835192506040601f1982011215614fea578182fd5b50604051604081018181106001600160401b038211171561500757fe5b60409081526020858101518352940151938101939093525092909150565b60006101208284031215615037578081fd5b50919050565b60006080828403121561504e578081fd5b604051608081018181106001600160401b038211171561506a57fe5b8060405250825181526020830151602082015260408301516040820152606083015161509581615db9565b60608201529392505050565b600060a08284031215615037578081fd5b6000606082840312156150c3578081fd5b604051606081018181106001600160401b03821117156150df57fe5b80604052508251815260208301516020820152604083015160408201528091505092915050565b6000610120808385031215615119578182fd5b61512281615d47565b905061512d83614b7a565b815261513b60208401614acb565b602082015261514c60408401614acb565b6040820152606083015160608201526080830151608082015260a083015160a082015260c083015160c082015260e083015160e08201526101008084015181830152508091505092915050565b6000604082840312156151aa578081fd5b604051604081018181106001600160401b03821117156151c657fe5b60405282356151d481615d87565b815260208301356151e481615d87565b60208201529392505050565b60006101008284031215615202578081fd5b6128ae8383614ad6565b600060e08284031215615037578081fd5b600060a0828403121561522e578081fd5b60405160a081018181106001600160401b038211171561524a57fe5b806040525082518152602083015160208201526040830151604082015260608301516060820152608083015160808201528091505092915050565b600060a08284031215615296578081fd5b60405160a081018181106001600160401b03821117156152b257fe5b60405282356152c081615d87565b815260208301356152d081615d87565b602082015260408301356152e381615d87565b604082015260608301356152f681615dce565b60608201526080928301359281019290925250919050565b6000610140808385031215615321578182fd5b61532a81615d47565b9050825181526020830151602082015260408301516040820152606083015160608201526080830151608082015260a083015160a082015260c083015160c082015260e083015160e0820152610100615384818501614acb565b90820152610120615396848201614a81565b908201529392505050565b6000602082840312156153b2578081fd5b81356128ae81615db9565b6000602082840312156153ce578081fd5b81516128ae81615dce565b6000602082840312156153ea578081fd5b815163ffffffff811681146128ae578182fd5b60006020828403121561540e578081fd5b815160ff811681146128ae578182fd5b6001600160a01b0391909116815260200190565b6001600160a01b0392831681529116602082015260400190565b6001600160a01b039384168152919092166020820152604081019190915260600190565b6001600160a01b0394851681529290931660208301526040820152606081019190915260800190565b6001600160a01b03968716815294909516602085015260408401929092526060830152608082015260a081019190915260c00190565b6001600160a01b03929092168252602082015260400190565b6001600160a01b0392909216825263ffffffff16602082015260400190565b6001600160a01b0392909216825262ffffff16602082015260400190565b901515815260200190565b90815260200190565b9283526020830191909152604082015260600190565b600296870b81529490950b602085015260408401929092526060830152600f0b608082015260a081019190915260c00190565b948552602085019390935260408401919091526060830152608082015260a00190565b958652602086019490945260408501929092526060840152608083015260a082015260c00190565b6000602080835283518082850152825b818110156155f9578581018301518582016040015282016155dd565b8181111561560a5783604083870101525b50601f01601f1916929092016040019392505050565b60208082526007908201526643485f4f4d505360c81b604082015260600190565b60208082526008908201526708690bea2889c62760c31b604082015260600190565b60208082526006908201526521a42fa2a0ab60d11b604082015260600190565b60208082526005908201526443485f4f4560d81b604082015260600190565b60208082526008908201526743485f4946414e4360c01b604082015260600190565b60208082526007908201526643485f544d525360c81b604082015260600190565b60208082526007908201526643485f41424e4360c81b604082015260600190565b60208082526006908201526543485f4d4e4f60d01b604082015260600190565b60208082526007908201526610d217d3d593d560ca1b604082015260600190565b60208082526007908201526643485f4f4e424d60c81b604082015260600190565b60208082526007908201526643485f55414e4360c81b604082015260600190565b60208082526007908201526610d217d513549360ca1b604082015260600190565b60208082526008908201526743485f4e4546434960c01b604082015260600190565b60208082526007908201526643485f51414e4360c81b604082015260600190565b60208082526006908201526543485f46305360d01b604082015260600190565b60208082526007908201526621a42fa829a1a360c91b604082015260600190565b60208082526007908201526621a42fa22aaa2160c91b604082015260600190565b60208082526008908201526743485f484f49434d60c01b604082015260600190565b60208082526006908201526543485f454e4360d01b604082015260600190565b60208082526007908201526643485f43434e4360c81b604082015260600190565b60208082526006908201526510d217d5d31160d21b604082015260600190565b6020808252600a908201526943485f434c575449534f60b01b604082015260600190565b6020808252600a908201526910d217d4d2139053d41560b21b604082015260600190565b6020808252601c908201527f506572704d6174683a20696e76657273696f6e206f766572666c6f7700000000604082015260600190565b60208082526007908201526643485f4f424e4360c81b604082015260600190565b60208082526006908201526521a42fa727a160d11b604082015260600190565b60208082526005908201526421a42faa2360d91b604082015260600190565b60208082526005908201526443485f544560d81b604082015260600190565b60208082526007908201526643485f56414e4360c81b604082015260600190565b60208082526007908201526610d217d513149360ca1b604082015260600190565b60208082526007908201526643485f54424e4560c81b604082015260600190565b60208082526007908201526643485f54514e4560c81b604082015260600190565b60208082526007908201526643485f544c525360c81b604082015260600190565b6020808252600b908201526a043485f43414c57524654560ac1b604082015260600190565b60208082526007908201526643485f4e45584f60c81b604082015260600190565b60208082526007908201526643485f44414e4360c81b604082015260600190565b60208082526006908201526521a42fa829ad60d11b604082015260600190565b60208082526008908201526743485f4e454d524d60c01b604082015260600190565b602080825260059082015264043485f4d560dc1b604082015260600190565b60208082526006908201526543485f4d4e4360d01b604082015260600190565b60006101008201905060018060a01b03808451168352806020850151166020840152506040830151604083015260608301516060830152608083015160020b608083015260a083015160020b60a083015260c0830151805160c0840152602081015160e08401525092915050565b8151815260208083015190820152604080830151908201526060918201519181019190915260800190565b81516001600160a01b03908116825260208084015190911690820152604080830151908201526060918201519181019190915260800190565b81516001600160a01b03908116825260208084015190911690820152604080830151600290810b9183019190915260608084015190910b908201526080918201516001600160801b03169181019190915260a00190565b81518152602080830151908201526040918201519181019190915260600190565b81516001600160a01b03908116825260208084015182169083015260408084015115159083015260608084015115159083015260808084015115159083015260a0838101519083015260c092830151169181019190915260e00190565b918252602082015260400190565b938452602084019290925260408301526001600160a01b0316606082015260800190565b63ffffffff91909116815260200190565b6040518181016001600160401b0381118282101715615d6257fe5b604052919050565b60006001600160401b03821115615d7d57fe5b5060209081020190565b6001600160a01b038116811461269657600080fd5b801515811461269657600080fd5b8060020b811461269657600080fd5b6001600160801b038116811461269657600080fd5b62ffffff8116811461269657600080fdfe5265656e7472616e637947756172643a207265656e7472616e742063616c6c0053616665436173743a2076616c756520646f65736e27742066697420696e2031323820626974735369676e6564536166654d6174683a206164646974696f6e206f766572666c6f77496e697469616c697a61626c653a20636f6e747261637420697320616c726561647920696e697469616c697a65645369676e6564536166654d6174683a206469766973696f6e206f766572666c6f778be0079c531659141344cd1fd0a4f28419497f9722a3daafe3b4186f6b6457e05369676e6564536166654d6174683a206d756c7469706c69636174696f6e206f766572666c6f7753616665436173743a2076616c756520646f65736e27742066697420696e20616e20696e743235365369676e6564536166654d6174683a207375627472616374696f6e206f766572666c6f77a2646970667358221220d88d9611bc59bf3cdb95438fb0179ab9f67727df3f7db09238041fcc114c178a64736f6c63430007060033",
  "devdoc": {
    "kind": "dev",
    "methods": {
      "addLiquidity((address,uint256,uint256,int24,int24,uint256,uint256,bool,uint256))": {
        "details": "Tx will fail if adding `base == 0 && quote == 0` / `liquidity == 0`- `AddLiquidityParams.useTakerBalance` is only accept `false` now",
        "params": {
          "params": "AddLiquidityParams struct"
        },
        "returns": {
          "_0": "AddLiquidityResponse struct"
        }
      },
      "cancelAllExcessOrders(address,address)": {
        "details": "This function won't fail if the maker has no order but fails when maker is not underwater",
        "params": {
          "baseToken": "The address of baseToken",
          "maker": "The address of maker"
        }
      },
      "cancelExcessOrders(address,address,bytes32[])": {
        "details": "Order id can get from `OrderBook.getOpenOrderIds`",
        "params": {
          "baseToken": "The address of baseToken",
          "maker": "The address of Maker",
          "orderIds": "The id of the order"
        }
      },
      "candidate()": {
        "details": "Returns the candidate that can become the owner."
      },
      "closePosition((address,uint160,uint256,uint256,bytes32))": {
        "params": {
          "params": "ClosePositionParams struct"
        },
        "returns": {
          "base": "The amount of baseToken the taker got or spent",
          "quote": "The amount of quoteToken the taker got or spent"
        }
      },
      "getAccountBalance()": {
        "returns": {
          "_0": "`AccountBalance` address"
        }
      },
      "getAccountValue(address)": {
        "details": "accountValue = totalCollateralValue + totalUnrealizedPnl, in 18 decimals",
        "params": {
          "trader": "The address of trader"
        },
        "returns": {
          "_0": "The account value of trader"
        }
      },
      "getClearingHouseConfig()": {
        "returns": {
          "_0": "ClearingHouseConfig address"
        }
      },
      "getDelegateApproval()": {
        "returns": {
          "_0": "`DelegateApproval` address"
        }
      },
      "getExchange()": {
        "returns": {
          "_0": "`Exchange` address"
        }
      },
      "getInsuranceFund()": {
        "returns": {
          "_0": "`InsuranceFund` address"
        }
      },
      "getOrderBook()": {
        "returns": {
          "_0": "`OrderBook` address"
        }
      },
      "getQuoteToken()": {
        "returns": {
          "_0": "The quote token address"
        }
      },
      "getUniswapV3Factory()": {
        "returns": {
          "_0": "UniswapV3Factory address"
        }
      },
      "getVault()": {
        "returns": {
          "_0": "`Vault` address"
        }
      },
      "initialize(address,address,address,address,address,address,address)": {
        "details": "this function is public for testing"
      },
      "liquidate(address,address)": {
        "details": "If margin ratio >= 0.5 * mmRatio,         maxLiquidateRatio = MIN((1, 0.5 * totalAbsPositionValue / absPositionValue)If margin ratio < 0.5 * mmRatio, maxLiquidateRatio = 1maxLiquidatePositionSize = positionSize * maxLiquidateRatio",
        "params": {
          "baseToken": "The address of baseToken",
          "trader": "The address of trader"
        }
      },
      "liquidate(address,address,int256)": {
        "details": "If trader has open orders, need to call `cancelAllExcessOrders` firstIf positionSize is greater than maxLiquidatePositionSize, liquidate maxLiquidatePositionSize by defaultIf margin ratio >= 0.5 * mmRatio,         maxLiquidateRatio = MIN((1, 0.5 * totalAbsPositionValue / absPositionValue)If margin ratio < 0.5 * mmRatio, maxLiquidateRatio = 1maxLiquidatePositionSize = positionSize * maxLiquidateRatio",
        "params": {
          "baseToken": "The address of baseToken",
          "positionSize": "the position size to be liquidated by liquidator",
          "trader": "The address of trader"
        }
      },
      "openPosition((address,bool,bool,uint256,uint256,uint256,uint160,bytes32))": {
        "details": "- `OpenPositionParams.oppositeAmountBound`     - B2Q + exact input, want more output quote as possible, so we set a lower bound of output quote     - B2Q + exact output, want less input base as possible, so we set a upper bound of input base     - Q2B + exact input, want more output base as possible, so we set a lower bound of output base     - Q2B + exact output, want less input quote as possible, so we set a upper bound of input quote     > when it's set to 0, it will disable slippage protection entirely regardless of exact input or output     > when it's over or under the bound, it will be reverted- `OpenPositionParams.sqrtPriceLimitX96`     - B2Q: the price cannot be less than this value after the swap     - Q2B: the price cannot be greater than this value after the swap     > it will fill the trade until it reaches the price limit but WON'T REVERT     > when it's set to 0, it will disable price limit;     > when it's 0 and exact output, the output amount is required to be identical to the param amount",
        "params": {
          "params": "OpenPositionParams struct"
        },
        "returns": {
          "base": "The amount of baseToken the taker got or spent",
          "quote": "The amount of quoteToken the taker got or spent"
        }
      },
      "openPositionFor(address,(address,bool,bool,uint256,uint256,uint256,uint160,bytes32))": {
        "params": {
          "params": "OpenPositionParams struct is the same as `openPosition()`",
          "trader": "The address of trader"
        },
        "returns": {
          "base": "The amount of baseToken the taker got or spent",
          "fee": "The trading fee",
          "quote": "The amount of quoteToken the taker got or spent"
        }
      },
      "owner()": {
        "details": "Returns the address of the current owner."
      },
      "paused()": {
        "details": "Returns true if the contract is paused, and false otherwise."
      },
      "quitMarket(address,address)": {
        "params": {
          "baseToken": "The address of baseToken",
          "trader": "The address of trader"
        },
        "returns": {
          "base": "The amount of base token that is closed",
          "quote": "The amount of quote token that is closed"
        }
      },
      "removeLiquidity((address,int24,int24,uint128,uint256,uint256,uint256))": {
        "details": "remove liquidity will transfer maker impermanent position to taker position, if `liquidity` of RemoveLiquidityParams struct is zero, the action will collect fee from pool to maker",
        "params": {
          "params": "RemoveLiquidityParams struct"
        },
        "returns": {
          "_0": "RemoveLiquidityResponse struct"
        }
      },
      "renounceOwnership()": {
        "details": "Leaves the contract without owner. It will not be possible to call `onlyOwner` functions anymore. Can only be called by the current owner. NOTE: Renouncing ownership will leave the contract without an owner, thereby removing any functionality that is only available to the owner."
      },
      "setDelegateApproval(address)": {
        "details": "remove to reduce bytecode size, might add back when we need it"
      },
      "setOwner(address)": {
        "details": "Set ownership of the contract to a new account (`newOwner`). Can only be called by the current owner."
      },
      "settleAllFunding(address)": {
        "params": {
          "trader": "The address of trader"
        }
      },
      "uniswapV3MintCallback(uint256,uint256,bytes)": {
        "details": "namings here follow Uniswap's convention",
        "params": {
          "amount0Owed": "The amount of token0 due to the pool for the minted liquidity",
          "amount1Owed": "The amount of token1 due to the pool for the minted liquidity",
          "data": "Any data passed through by the caller via the IUniswapV3PoolActions#mint call"
        }
      },
      "uniswapV3SwapCallback(int256,int256,bytes)": {
        "details": "namings here follow Uniswap's convention",
        "params": {
          "amount0Delta": "The amount of token0 that was sent (negative) or must be received (positive) by the pool by the end of the swap. If positive, the callback must send that amount of token0 to the pool.",
          "amount1Delta": "The amount of token1 that was sent (negative) or must be received (positive) by the pool by the end of the swap. If positive, the callback must send that amount of token1 to the pool.",
          "data": "Any data passed through by the caller via the IUniswapV3PoolActions#swap call"
        }
      },
      "updateOwner()": {
        "details": "Transfers ownership of the contract to a new account (`_candidate`). Can only be called by the new owner."
      }
    },
    "version": 1
  },
  "userdoc": {
    "events": {
      "DelegateApprovalChanged(address)": {
        "notice": "Emitted when DelegateApproval address changed"
      },
      "FundingPaymentSettled(address,address,int256)": {
        "notice": "Emitted when settling a trader's funding payment"
      },
      "LiquidityChanged(address,address,address,int24,int24,int256,int256,int128,uint256)": {
        "notice": "Emitted when maker's liquidity of a order changed"
      },
      "PositionChanged(address,address,int256,int256,uint256,int256,int256,uint256)": {
        "notice": "Emitted when taker's position is being changed"
      },
      "PositionClosed(address,address,int256,int256,int256,int256,uint256)": {
        "notice": "Emitted when taker close her position in closed market"
      },
      "PositionLiquidated(address,address,uint256,uint256,uint256,address)": {
        "notice": "Emitted when taker position is being liquidated"
      },
      "ReferredPositionChanged(bytes32)": {
        "notice": "Emitted when open position with non-zero referral code"
      },
      "TrustedForwarderChanged(address)": {
        "notice": "Emitted when trusted forwarder address changed"
      }
    },
    "kind": "user",
    "methods": {
      "addLiquidity((address,uint256,uint256,int24,int24,uint256,uint256,bool,uint256))": {
        "notice": "Maker can call `addLiquidity` to provide liquidity on Uniswap V3 pool"
      },
      "cancelAllExcessOrders(address,address)": {
        "notice": "Cancel all excess orders of a maker if the maker is underwater"
      },
      "cancelExcessOrders(address,address,bytes32[])": {
        "notice": "Cancel excess order of a maker"
      },
      "closePosition((address,uint160,uint256,uint256,bytes32))": {
        "notice": "Close trader's position"
      },
      "getAccountBalance()": {
        "notice": "Get AccountBalance address"
      },
      "getAccountValue(address)": {
        "notice": "Get account value of trader"
      },
      "getClearingHouseConfig()": {
        "notice": "Get ClearingHouseConfig address"
      },
      "getDelegateApproval()": {
        "notice": "Get `DelegateApproval` address"
      },
      "getExchange()": {
        "notice": "Get `Exchange` address"
      },
      "getInsuranceFund()": {
        "notice": "Get `InsuranceFund` address"
      },
      "getOrderBook()": {
        "notice": "Get `OrderBook` address"
      },
      "getQuoteToken()": {
        "notice": "Get QuoteToken address"
      },
      "getUniswapV3Factory()": {
        "notice": "Get UniswapV3Factory address"
      },
      "getVault()": {
        "notice": "Get `Vault` address"
      },
      "isTrustedForwarder(address)": {
        "notice": "return if the forwarder is trusted to forward relayed transactions to us. the forwarder is required to verify the sender's signature, and verify the call is not a replay."
      },
      "liquidate(address,address)": {
        "notice": "liquidate trader's position and will liquidate the max possible position size"
      },
      "liquidate(address,address,int256)": {
        "notice": "If trader is underwater, any one can call `liquidate` to liquidate this trader"
      },
      "openPosition((address,bool,bool,uint256,uint256,uint256,uint160,bytes32))": {
        "notice": "Trader can call `openPosition` to long/short on baseToken market"
      },
      "quitMarket(address,address)": {
        "notice": "Close all positions of a trader in the closed market"
      },
      "removeLiquidity((address,int24,int24,uint128,uint256,uint256,uint256))": {
        "notice": "Maker can call `removeLiquidity` to remove liquidity"
      },
      "settleAllFunding(address)": {
        "notice": "Settle all markets fundingPayment to owedRealized Pnl"
      },
      "uniswapV3MintCallback(uint256,uint256,bytes)": {
        "notice": "Called to `msg.sender` after minting liquidity to a position from IUniswapV3Pool#mint."
      },
      "uniswapV3SwapCallback(int256,int256,bytes)": {
        "notice": "Called to `msg.sender` after executing a swap via IUniswapV3Pool#swap."
      }
    },
    "version": 1
  },
  "storageLayout": {
    "storage": [
      {
        "astId": 1158,
        "contract": "contracts/ClearingHouse.sol:ClearingHouse",
        "label": "_initialized",
        "offset": 0,
        "slot": "0",
        "type": "t_bool"
      },
      {
        "astId": 1161,
        "contract": "contracts/ClearingHouse.sol:ClearingHouse",
        "label": "_initializing",
        "offset": 1,
        "slot": "0",
        "type": "t_bool"
      },
      {
        "astId": 3095,
        "contract": "contracts/ClearingHouse.sol:ClearingHouse",
        "label": "_status",
        "offset": 0,
        "slot": "1",
        "type": "t_uint256"
      },
      {
        "astId": 3138,
        "contract": "contracts/ClearingHouse.sol:ClearingHouse",
        "label": "__gap",
        "offset": 0,
        "slot": "2",
        "type": "t_array(t_uint256)49_storage"
      },
      {
        "astId": 2475,
        "contract": "contracts/ClearingHouse.sol:ClearingHouse",
        "label": "__gap",
        "offset": 0,
        "slot": "51",
        "type": "t_array(t_uint256)50_storage"
      },
      {
        "astId": 27037,
        "contract": "contracts/ClearingHouse.sol:ClearingHouse",
        "label": "_owner",
        "offset": 0,
        "slot": "101",
        "type": "t_address"
      },
      {
        "astId": 27039,
        "contract": "contracts/ClearingHouse.sol:ClearingHouse",
        "label": "_candidate",
        "offset": 0,
        "slot": "102",
        "type": "t_address"
      },
      {
        "astId": 27043,
        "contract": "contracts/ClearingHouse.sol:ClearingHouse",
        "label": "__gap",
        "offset": 0,
        "slot": "103",
        "type": "t_array(t_uint256)50_storage"
      },
      {
        "astId": 2989,
        "contract": "contracts/ClearingHouse.sol:ClearingHouse",
        "label": "_paused",
        "offset": 0,
        "slot": "153",
        "type": "t_bool"
      },
      {
        "astId": 3080,
        "contract": "contracts/ClearingHouse.sol:ClearingHouse",
        "label": "__gap",
        "offset": 0,
        "slot": "154",
        "type": "t_array(t_uint256)49_storage"
      },
      {
        "astId": 26976,
        "contract": "contracts/ClearingHouse.sol:ClearingHouse",
        "label": "__gap",
        "offset": 0,
        "slot": "203",
        "type": "t_array(t_uint256)50_storage"
      },
      {
        "astId": 27292,
        "contract": "contracts/ClearingHouse.sol:ClearingHouse",
        "label": "_trustedForwarder",
        "offset": 0,
        "slot": "253",
        "type": "t_address"
      },
      {
        "astId": 27296,
        "contract": "contracts/ClearingHouse.sol:ClearingHouse",
        "label": "__gap",
        "offset": 0,
        "slot": "254",
        "type": "t_array(t_uint256)50_storage"
      },
      {
        "astId": 32294,
        "contract": "contracts/ClearingHouse.sol:ClearingHouse",
        "label": "_quoteToken",
        "offset": 0,
        "slot": "304",
        "type": "t_address"
      },
      {
        "astId": 32296,
        "contract": "contracts/ClearingHouse.sol:ClearingHouse",
        "label": "_uniswapV3Factory",
        "offset": 0,
        "slot": "305",
        "type": "t_address"
      },
      {
        "astId": 32298,
        "contract": "contracts/ClearingHouse.sol:ClearingHouse",
        "label": "_settlementTokenDecimals",
        "offset": 20,
        "slot": "305",
        "type": "t_uint8"
      },
      {
        "astId": 32300,
        "contract": "contracts/ClearingHouse.sol:ClearingHouse",
        "label": "_clearingHouseConfig",
        "offset": 0,
        "slot": "306",
        "type": "t_address"
      },
      {
        "astId": 32302,
        "contract": "contracts/ClearingHouse.sol:ClearingHouse",
        "label": "_vault",
        "offset": 0,
        "slot": "307",
        "type": "t_address"
      },
      {
        "astId": 32304,
        "contract": "contracts/ClearingHouse.sol:ClearingHouse",
        "label": "_exchange",
        "offset": 0,
        "slot": "308",
        "type": "t_address"
      },
      {
        "astId": 32306,
        "contract": "contracts/ClearingHouse.sol:ClearingHouse",
        "label": "_orderBook",
        "offset": 0,
        "slot": "309",
        "type": "t_address"
      },
      {
        "astId": 32308,
        "contract": "contracts/ClearingHouse.sol:ClearingHouse",
        "label": "_accountBalance",
        "offset": 0,
        "slot": "310",
        "type": "t_address"
      },
      {
        "astId": 32310,
        "contract": "contracts/ClearingHouse.sol:ClearingHouse",
        "label": "_insuranceFund",
        "offset": 0,
        "slot": "311",
        "type": "t_address"
      },
      {
        "astId": 32315,
        "contract": "contracts/ClearingHouse.sol:ClearingHouse",
        "label": "_delegateApproval",
        "offset": 0,
        "slot": "312",
        "type": "t_address"
      }
    ],
    "types": {
      "t_address": {
        "encoding": "inplace",
        "label": "address",
        "numberOfBytes": "20"
      },
      "t_array(t_uint256)49_storage": {
        "base": "t_uint256",
        "encoding": "inplace",
        "label": "uint256[49]",
        "numberOfBytes": "1568"
      },
      "t_array(t_uint256)50_storage": {
        "base": "t_uint256",
        "encoding": "inplace",
        "label": "uint256[50]",
        "numberOfBytes": "1600"
      },
      "t_bool": {
        "encoding": "inplace",
        "label": "bool",
        "numberOfBytes": "1"
      },
      "t_uint256": {
        "encoding": "inplace",
        "label": "uint256",
        "numberOfBytes": "32"
      },
      "t_uint8": {
        "encoding": "inplace",
        "label": "uint8",
        "numberOfBytes": "1"
      }
    }
  }
}