{
  "address": "0xBF22f38548b5680048318e0cE7B7A6a773A49233",
  "abi": [
    {
      "anonymous": false,
      "inputs": [
        {
          "indexed": false,
          "internalType": "address",
          "name": "accountBalance",
          "type": "address"
        }
      ],
      "name": "AccountBalanceChanged",
      "type": "event"
    },
    {
      "anonymous": false,
      "inputs": [
        {
          "indexed": true,
          "internalType": "address",
          "name": "clearingHouse",
          "type": "address"
        }
      ],
      "name": "ClearingHouseChanged",
      "type": "event"
    },
    {
      "anonymous": false,
      "inputs": [
        {
          "indexed": true,
          "internalType": "address",
          "name": "baseToken",
          "type": "address"
        },
        {
          "indexed": false,
          "internalType": "uint256",
          "name": "markTwap",
          "type": "uint256"
        },
        {
          "indexed": false,
          "internalType": "uint256",
          "name": "indexTwap",
          "type": "uint256"
        }
      ],
      "name": "FundingUpdated",
      "type": "event"
    },
    {
      "anonymous": false,
      "inputs": [
        {
          "indexed": true,
          "internalType": "address",
          "name": "baseToken",
          "type": "address"
        },
        {
          "indexed": false,
          "internalType": "uint24",
          "name": "maxTickCrossedWithinBlock",
          "type": "uint24"
        }
      ],
      "name": "MaxTickCrossedWithinBlockChanged",
      "type": "event"
    },
    {
      "anonymous": false,
      "inputs": [
        {
          "indexed": true,
          "internalType": "address",
          "name": "previousOwner",
          "type": "address"
        },
        {
          "indexed": true,
          "internalType": "address",
          "name": "newOwner",
          "type": "address"
        }
      ],
      "name": "OwnershipTransferred",
      "type": "event"
    },
    {
      "inputs": [],
      "name": "candidate",
      "outputs": [
        {
          "internalType": "address",
          "name": "",
          "type": "address"
        }
      ],
      "stateMutability": "view",
      "type": "function"
    },
    {
      "inputs": [],
      "name": "getAccountBalance",
      "outputs": [
        {
          "internalType": "address",
          "name": "",
          "type": "address"
        }
      ],
      "stateMutability": "view",
      "type": "function"
    },
    {
      "inputs": [
        {
          "internalType": "address",
          "name": "trader",
          "type": "address"
        }
      ],
      "name": "getAllPendingFundingPayment",
      "outputs": [
        {
          "internalType": "int256",
          "name": "pendingFundingPayment",
          "type": "int256"
        }
      ],
      "stateMutability": "view",
      "type": "function"
    },
    {
      "inputs": [],
      "name": "getClearingHouse",
      "outputs": [
        {
          "internalType": "address",
          "name": "",
          "type": "address"
        }
      ],
      "stateMutability": "view",
      "type": "function"
    },
    {
      "inputs": [],
      "name": "getClearingHouseConfig",
      "outputs": [
        {
          "internalType": "address",
          "name": "",
          "type": "address"
        }
      ],
      "stateMutability": "view",
      "type": "function"
    },
    {
      "inputs": [],
      "name": "getMarketRegistry",
      "outputs": [
        {
          "internalType": "address",
          "name": "",
          "type": "address"
        }
      ],
      "stateMutability": "view",
      "type": "function"
    },
    {
      "inputs": [
        {
          "internalType": "address",
          "name": "baseToken",
          "type": "address"
        }
      ],
      "name": "getMaxTickCrossedWithinBlock",
      "outputs": [
        {
          "internalType": "uint24",
          "name": "",
          "type": "uint24"
        }
      ],
      "stateMutability": "view",
      "type": "function"
    },
    {
      "inputs": [],
      "name": "getOrderBook",
      "outputs": [
        {
          "internalType": "address",
          "name": "",
          "type": "address"
        }
      ],
      "stateMutability": "view",
      "type": "function"
    },
    {
      "inputs": [
        {
          "internalType": "address",
          "name": "trader",
          "type": "address"
        },
        {
          "internalType": "address",
          "name": "baseToken",
          "type": "address"
        }
      ],
      "name": "getPendingFundingPayment",
      "outputs": [
        {
          "internalType": "int256",
          "name": "",
          "type": "int256"
        }
      ],
      "stateMutability": "view",
      "type": "function"
    },
    {
      "inputs": [
        {
          "components": [
            {
              "internalType": "address",
              "name": "trader",
              "type": "address"
            },
            {
              "internalType": "address",
              "name": "baseToken",
              "type": "address"
            },
            {
              "internalType": "int256",
              "name": "base",
              "type": "int256"
            },
            {
              "internalType": "int256",
              "name": "quote",
              "type": "int256"
            }
          ],
          "internalType": "struct IExchange.RealizePnlParams",
          "name": "params",
          "type": "tuple"
        }
      ],
      "name": "getPnlToBeRealized",
      "outputs": [
        {
          "internalType": "int256",
          "name": "",
          "type": "int256"
        }
      ],
      "stateMutability": "view",
      "type": "function"
    },
    {
      "inputs": [
        {
          "internalType": "address",
          "name": "baseToken",
          "type": "address"
        },
        {
          "internalType": "uint32",
          "name": "twapInterval",
          "type": "uint32"
        }
      ],
      "name": "getSqrtMarkTwapX96",
      "outputs": [
        {
          "internalType": "uint160",
          "name": "",
          "type": "uint160"
        }
      ],
      "stateMutability": "view",
      "type": "function"
    },
    {
      "inputs": [
        {
          "internalType": "address",
          "name": "marketRegistryArg",
          "type": "address"
        },
        {
          "internalType": "address",
          "name": "orderBookArg",
          "type": "address"
        },
        {
          "internalType": "address",
          "name": "clearingHouseConfigArg",
          "type": "address"
        }
      ],
      "name": "initialize",
      "outputs": [],
      "stateMutability": "nonpayable",
      "type": "function"
    },
    {
      "inputs": [
        {
          "internalType": "address",
          "name": "baseToken",
          "type": "address"
        }
      ],
      "name": "isOverPriceSpread",
      "outputs": [
        {
          "internalType": "bool",
          "name": "",
          "type": "bool"
        }
      ],
      "stateMutability": "view",
      "type": "function"
    },
    {
      "inputs": [],
      "name": "owner",
      "outputs": [
        {
          "internalType": "address",
          "name": "",
          "type": "address"
        }
      ],
      "stateMutability": "view",
      "type": "function"
    },
    {
      "inputs": [],
      "name": "renounceOwnership",
      "outputs": [],
      "stateMutability": "nonpayable",
      "type": "function"
    },
    {
      "inputs": [
        {
          "internalType": "address",
          "name": "accountBalanceArg",
          "type": "address"
        }
      ],
      "name": "setAccountBalance",
      "outputs": [],
      "stateMutability": "nonpayable",
      "type": "function"
    },
    {
      "inputs": [
        {
          "internalType": "address",
          "name": "clearingHouseArg",
          "type": "address"
        }
      ],
      "name": "setClearingHouse",
      "outputs": [],
      "stateMutability": "nonpayable",
      "type": "function"
    },
    {
      "inputs": [
        {
          "internalType": "address",
          "name": "baseToken",
          "type": "address"
        },
        {
          "internalType": "uint24",
          "name": "maxTickCrossedWithinBlock",
          "type": "uint24"
        }
      ],
      "name": "setMaxTickCrossedWithinBlock",
      "outputs": [],
      "stateMutability": "nonpayable",
      "type": "function"
    },
    {
      "inputs": [
        {
          "internalType": "address",
          "name": "newOwner",
          "type": "address"
        }
      ],
      "name": "setOwner",
      "outputs": [],
      "stateMutability": "nonpayable",
      "type": "function"
    },
    {
      "inputs": [
        {
          "internalType": "address",
          "name": "trader",
          "type": "address"
        },
        {
          "internalType": "address",
          "name": "baseToken",
          "type": "address"
        }
      ],
      "name": "settleFunding",
      "outputs": [
        {
          "internalType": "int256",
          "name": "fundingPayment",
          "type": "int256"
        },
        {
          "components": [
            {
              "internalType": "int256",
              "name": "twPremiumX96",
              "type": "int256"
            },
            {
              "internalType": "int256",
              "name": "twPremiumDivBySqrtPriceX96",
              "type": "int256"
            }
          ],
          "internalType": "struct Funding.Growth",
          "name": "fundingGrowthGlobal",
          "type": "tuple"
        }
      ],
      "stateMutability": "nonpayable",
      "type": "function"
    },
    {
      "inputs": [
        {
          "components": [
            {
              "internalType": "address",
              "name": "trader",
              "type": "address"
            },
            {
              "internalType": "address",
              "name": "baseToken",
              "type": "address"
            },
            {
              "internalType": "bool",
              "name": "isBaseToQuote",
              "type": "bool"
            },
            {
              "internalType": "bool",
              "name": "isExactInput",
              "type": "bool"
            },
            {
              "internalType": "bool",
              "name": "isClose",
              "type": "bool"
            },
            {
              "internalType": "uint256",
              "name": "amount",
              "type": "uint256"
            },
            {
              "internalType": "uint160",
              "name": "sqrtPriceLimitX96",
              "type": "uint160"
            }
          ],
          "internalType": "struct IExchange.SwapParams",
          "name": "params",
          "type": "tuple"
        }
      ],
      "name": "swap",
      "outputs": [
        {
          "components": [
            {
              "internalType": "uint256",
              "name": "base",
              "type": "uint256"
            },
            {
              "internalType": "uint256",
              "name": "quote",
              "type": "uint256"
            },
            {
              "internalType": "int256",
              "name": "exchangedPositionSize",
              "type": "int256"
            },
            {
              "internalType": "int256",
              "name": "exchangedPositionNotional",
              "type": "int256"
            },
            {
              "internalType": "uint256",
              "name": "fee",
              "type": "uint256"
            },
            {
              "internalType": "uint256",
              "name": "insuranceFundFee",
              "type": "uint256"
            },
            {
              "internalType": "int256",
              "name": "pnlToBeRealized",
              "type": "int256"
            },
            {
              "internalType": "uint256",
              "name": "sqrtPriceAfterX96",
              "type": "uint256"
            },
            {
              "internalType": "int24",
              "name": "tick",
              "type": "int24"
            },
            {
              "internalType": "bool",
              "name": "isPartialClose",
              "type": "bool"
            }
          ],
          "internalType": "struct IExchange.SwapResponse",
          "name": "",
          "type": "tuple"
        }
      ],
      "stateMutability": "nonpayable",
      "type": "function"
    },
    {
      "inputs": [
        {
          "internalType": "int256",
          "name": "amount0Delta",
          "type": "int256"
        },
        {
          "internalType": "int256",
          "name": "amount1Delta",
          "type": "int256"
        },
        {
          "internalType": "bytes",
          "name": "data",
          "type": "bytes"
        }
      ],
      "name": "uniswapV3SwapCallback",
      "outputs": [],
      "stateMutability": "nonpayable",
      "type": "function"
    },
    {
      "inputs": [],
      "name": "updateOwner",
      "outputs": [],
      "stateMutability": "nonpayable",
      "type": "function"
    }
  ],
  "transactionHash": "0x0dd43598d612229d070fdff7077530cab180c2889bd1f7f289370d1984b89175",
  "args": [],
  "numDeployments": 1,
  "solcInputHash": "7a16bbbc5c6fea2b6505d4631b28aae2",
  "bytecode": "0x608060405234801561001057600080fd5b50614b6a806100206000396000f3fe608060405234801561001057600080fd5b506004361061014d5760003560e01c806380f57f11116100c3578063c0c53b8b1161007c578063c0c53b8b14610295578063c575ff79146102a8578063c66b8ed2146102b0578063cb379aa2146102b8578063fa461e33146102cb578063ff818011146102de5761014d565b806380f57f111461024f5780638da5cb5b1461026257806399e4a7711461026a578063aa2a82941461027d578063b248c4ef14610285578063bc5920ba1461028d5761014d565b80634314ca1c116101155780634314ca1c146101e4578063449323d8146102045780635eb8a4e6146102175780636896fabf1461022a5780636c8381f81461023f578063715018a6146102475761014d565b80631393a4691461015257806313af40351461017b578063199387cc146101905780631e81ac33146101a357806329386b7b146101c4575b600080fd5b610165610160366004614221565b6102fe565b604051610172919061459f565b60405180910390f35b61018e610189366004613e0c565b610424565b005b61018e61019e366004613e0c565b61057f565b6101b66101b1366004613e44565b610661565b6040516101729291906145e5565b6101d76101d2366004613e0c565b610aeb565b604051610172919061492d565b6101f76101f23660046142e7565b610b0b565b60405161017291906148aa565b61018e610212366004613e0c565b610fd6565b61018e610225366004613ec6565b61107d565b61023261123a565b6040516101729190614478565b610232611249565b61018e611258565b61016561025d366004613e0c565b6112f9565b6102326113cb565b610232610278366004613ef3565b6113da565b610232611470565b61023261147f565b61018e61148e565b61018e6102a3366004613e7c565b61157a565b6102326116bc565b6102326116cb565b6101656102c6366004613e44565b6116da565b61018e6102d93660046140d6565b611891565b6102f16102ec366004613e0c565b611a31565b6040516101729190614594565b60ce54815160208301516040516331997f7b60e11b815260009384936001600160a01b0390911692636332fef69261033a92919060040161448c565b60606040518083038186803b15801561035257600080fd5b505afa158015610366573d6000803e3d6000fd5b505050506040513d601f19601f8201168201806040525081019061038a9190614150565b6020810151815191925090600081156103b05760408601516000808412911214156103b3565b60005b9050806103c1576000610418565b6104186040518060c0016040528088600001516001600160a01b0316815260200188602001516001600160a01b03168152602001848152602001858152602001886040015181526020018860600151815250611b99565b9450505050505b919050565b61042c611c4e565b6001600160a01b031661043d6113cb565b6001600160a01b031614610481576040805162461bcd60e51b8152602060048201526006602482015265534f5f434e4f60d01b604482015290519081900360640190fd5b6001600160a01b0381166104c5576040805162461bcd60e51b81526020600482015260066024820152650534f5f4e57360d41b604482015290519081900360640190fd5b6033546001600160a01b0382811691161415610511576040805162461bcd60e51b8152602060048201526006602482015265534f5f53414f60d01b604482015290519081900360640190fd5b6034546001600160a01b038281169116141561055d576040805162461bcd60e51b8152602060048201526006602482015265534f5f53414360d01b604482015290519081900360640190fd5b603480546001600160a01b0319166001600160a01b0392909216919091179055565b610587611c4e565b6001600160a01b03166105986113cb565b6001600160a01b0316146105dc576040805162461bcd60e51b8152602060048201526006602482015265534f5f434e4f60d01b604482015290519081900360640190fd5b6001600160a01b03811661060b5760405162461bcd60e51b8152600401610602906146a1565b60405180910390fd5b60ce80546001600160a01b0319166001600160a01b0383161790556040517f2b28168781da733c8a034f84683b9c955f156de5e07e24920b1348f51445d3e690610656908390614478565b60405180910390a150565b600061066b613cab565b610673611c52565b609a54604051631246dbf560e01b81526001600160a01b0390911690631246dbf5906106a3908690600401614478565b60206040518083038186803b1580156106bb57600080fd5b505afa1580156106cf573d6000803e3d6000fd5b505050506040513d601f19601f820116820180604052508101906106f3919061407f565b61070f5760405162461bcd60e51b81526004016106029061461b565b826001600160a01b0316631d1a111a60cf60009054906101000a90046001600160a01b03166001600160a01b0316633e742e3b6040518163ffffffff1660e01b815260040160206040518083038186803b15801561076c57600080fd5b505afa158015610780573d6000803e3d6000fd5b505050506040513d601f19601f820116820180604052508101906107a49190614437565b6040518263ffffffff1660e01b81526004016107c0919061494b565b600060405180830381600087803b1580156107da57600080fd5b505af19250505080156107eb575060015b506000806107f885611c8e565b60ce546040516359deb70960e11b8152939650919450925061091691889188916001600160a01b039091169063b3bd6e129061083a908590859060040161448c565b60206040518083038186803b15801561085257600080fd5b505afa158015610866573d6000803e3d6000fd5b505050506040513d601f19601f8201168201806040525081019061088a919061409b565b60ce546040516331997f7b60e11b81526001600160a01b0390911690636332fef6906108bc908d908d9060040161448c565b60606040518083038186803b1580156108d457600080fd5b505afa1580156108e8573d6000803e3d6000fd5b505050506040513d601f19601f8201168201806040525081019061090c9190614150565b604001518761212b565b93506000856001600160a01b03166347535d7b6040518163ffffffff1660e01b815260040160206040518083038186803b15801561095357600080fd5b505afa158015610967573d6000803e3d6000fd5b505050506040513d601f19601f8201168201806040525081019061098b919061407f565b610a0557856001600160a01b031663fe3434616040518163ffffffff1660e01b815260040160206040518083038186803b1580156109c857600080fd5b505afa1580156109dc573d6000803e3d6000fd5b505050506040513d601f19601f82011682018060405250810190610a00919061409b565b610a0d565b610a0d6121cf565b6001600160a01b038716600090815260d260205260409020549091508114610ae1576001600160a01b038616600081815260d36020908152604080832088518984015160d290945293829020600182019390935592835590849055519091907f54e4482fe1d38392effe5d53f0e9e72f60221a75a10cea7abbb684bfb03519bf90610a9b908790879061493d565b60405180910390a2610aac876121d3565b6001600160a01b038816600090815260d060205260409020805460029290920b62ffffff1662ffffff19909216919091179055505b5050509250929050565b6001600160a01b0316600090815260d4602052604090205462ffffff1690565b610b13613cc5565b610b1b611c52565b6020808301516001600160a01b0316600090815260d4909152604090205462ffffff16610b5a5760405162461bcd60e51b81526004016106029061479c565b60ce548251602084015160405163165c4e2960e31b81526000936001600160a01b03169263b2e2714892610b909260040161448c565b60206040518083038186803b158015610ba857600080fd5b505afa158015610bbc573d6000803e3d6000fd5b505050506040513d601f19601f82011682018060405250810190610be0919061409b565b9050600080610bf28560200151612218565b905084608001518015610c0457508215155b15610d44578080610c265750610c268560200151600085128760a00151612230565b15610d3f576000610c356121cf565b86516001600160a01b03908116600090815260d560209081526040808320828c015190941683529290522054909150811415610c835760405162461bcd60e51b81526004016106029061465d565b85516001600160a01b03908116600090815260d560209081526040808320828b015185168452825280832085905560cf548151633a14199b60e11b8152915193941692637428333692600480840193919291829003018186803b158015610ce957600080fd5b505afa158015610cfd573d6000803e3d6000fd5b505050506040513d601f19601f82011682018060405250810190610d21919061441b565b60a0880151909150610d339082612292565b60a08801525060019250505b610d62565b8015610d625760405162461bcd60e51b8152600401610602906145f9565b60ce548551602087015160405163d50d01b760e01b81526000936001600160a01b03169263d50d01b792610d989260040161448c565b60206040518083038186803b158015610db057600080fd5b505afa158015610dc4573d6000803e3d6000fd5b505050506040513d601f19601f82011682018060405250810190610de8919061409b565b90506000610df5876122a7565b90508660800151610e2f57610e1287602001518260c00151612688565b15610e2f5760405162461bcd60e51b81526004016106029061467f565b60008515610e495760408801511515600087121415610e4c565b60005b905060008115610eb057610ead6040518060c001604052808b600001516001600160a01b031681526020018b602001516001600160a01b03168152602001898152602001868152602001856000015181526020018560200151815250611b99565b90505b609a5460208a015160405163bbe4f6db60e01b8152600092610f3f926001600160a01b039091169163bbe4f6db91610eea91600401614478565b60206040518083038186803b158015610f0257600080fd5b505afa158015610f16573d6000803e3d6000fd5b505050506040513d601f19601f82011682018060405250810190610f3a9190613e28565b612711565b5050505050506001600160a01b03169050604051806101400160405280610f6986600001516127a4565b8152602001610f7b86602001516127a4565b81526020018560400151815260200185606001518152602001856080015181526020018560a0015181526020018381526020018281526020018560c0015160020b815260200188151581525098505050505050505050919050565b610fde611c4e565b6001600160a01b0316610fef6113cb565b6001600160a01b031614611033576040805162461bcd60e51b8152602060048201526006602482015265534f5f434e4f60d01b604482015290519081900360640190fd5b606780546001600160a01b0319166001600160a01b0383169081179091556040517fd0654f5900f9e7e4e605a19334306e6a2786bbf960ac0484a4c12feb6428fe2f90600090a250565b611085611c4e565b6001600160a01b03166110966113cb565b6001600160a01b0316146110da576040805162461bcd60e51b8152602060048201526006602482015265534f5f434e4f60d01b604482015290519081900360640190fd5b6110ec826001600160a01b03166127cd565b6111085760405162461bcd60e51b8152600401610602906147bc565b609a54604051631246dbf560e01b81526001600160a01b0390911690631246dbf590611138908590600401614478565b60206040518083038186803b15801561115057600080fd5b505afa158015611164573d6000803e3d6000fd5b505050506040513d601f19601f82011682018060405250810190611188919061407f565b6111a45760405162461bcd60e51b81526004016106029061461b565b6111ac6127d3565b62ffffff168162ffffff1611156111d55760405162461bcd60e51b8152600401610602906146e0565b6001600160a01b038216600081815260d4602052604090819020805462ffffff191662ffffff8516179055517f998d553f208e581d188c66da9e7d19bac5ca64d002753791210c4271c8e955d09061122e90849061492d565b60405180910390a25050565b60ce546001600160a01b031690565b6034546001600160a01b031690565b611260611c4e565b6001600160a01b03166112716113cb565b6001600160a01b0316146112b5576040805162461bcd60e51b8152602060048201526006602482015265534f5f434e4f60d01b604482015290519081900360640190fd5b6033546040516000916001600160a01b031690600080516020614a7c833981519152908390a3603380546001600160a01b0319908116909155603480549091169055565b60ce546040516357ba739b60e11b815260009182916001600160a01b039091169063af74e7369061132e908690600401614478565b60006040518083038186803b15801561134657600080fd5b505afa15801561135a573d6000803e3d6000fd5b505050506040513d6000823e601f3d908101601f191682016040526113829190810190613f20565b805190915060005b818110156113c3576113b96113b2868584815181106113a557fe5b60200260200101516116da565b85906127d9565b935060010161138a565b505050919050565b6033546001600160a01b031690565b609a5460405163bbe4f6db60e01b8152600091611467916001600160a01b039091169063bbe4f6db90611411908790600401614478565b60206040518083038186803b15801561142957600080fd5b505afa15801561143d573d6000803e3d6000fd5b505050506040513d601f19601f820116820180604052508101906114619190613e28565b8361283e565b90505b92915050565b60cf546001600160a01b031690565b60cd546001600160a01b031690565b6034546001600160a01b03166114d3576040805162461bcd60e51b81526020600482015260056024820152640534f5f43360dc1b604482015290519081900360640190fd5b6114db611c4e565b6034546001600160a01b03908116911614611526576040805162461bcd60e51b8152602060048201526006602482015265534f5f434e4360d01b604482015290519081900360640190fd5b6034546033546040516001600160a01b039283169290911690600080516020614a7c83398151915290600090a360348054603380546001600160a01b03199081166001600160a01b03841617909155169055565b600054610100900460ff1680611593575061159361284c565b806115a1575060005460ff16155b6115dc5760405162461bcd60e51b815260040180806020018281038252602e815260200180614a2d602e913960400191505060405180910390fd5b600054610100900460ff16158015611607576000805460ff1961ff0019909116610100171660011790555b61160f61285d565b61161884612907565b61162a836001600160a01b03166127cd565b6116465760405162461bcd60e51b8152600401610602906146c0565b611658826001600160a01b03166127cd565b6116745760405162461bcd60e51b81526004016106029061475c565b60cd80546001600160a01b038086166001600160a01b03199283161790925560cf80549285169290911691909117905580156116b6576000805461ff00191690555b50505050565b6067546001600160a01b031690565b609a546001600160a01b031690565b6000806116e683611c8e565b505060cd546040516347b52fb760e01b81529192506000916001600160a01b03909116906347b52fb790611722908890889087906004016144a6565b60206040518083038186803b15801561173a57600080fd5b505afa15801561174e573d6000803e3d6000fd5b505050506040513d601f19601f82011682018060405250810190611772919061409b565b60ce546040516359deb70960e11b8152919250611888916001600160a01b039091169063b3bd6e12906117ab908990899060040161448c565b60206040518083038186803b1580156117c357600080fd5b505afa1580156117d7573d6000803e3d6000fd5b505050506040513d601f19601f820116820180604052508101906117fb919061409b565b60ce546040516331997f7b60e11b81526001600160a01b0390911690636332fef69061182d908a908a9060040161448c565b60606040518083038186803b15801561184557600080fd5b505afa158015611859573d6000803e3d6000fd5b505050506040513d601f19601f8201168201806040525081019061187d9190614150565b6040015184846129cd565b95945050505050565b600061189b611c4e565b90506000816001600160a01b0316630dfe16816040518163ffffffff1660e01b815260040160206040518083038186803b1580156118d857600080fd5b505afa1580156118ec573d6000803e3d6000fd5b505050506040513d601f19601f820116820180604052508101906119109190613e28565b609a5460405163bbe4f6db60e01b81529192506001600160a01b03169063bbe4f6db90611941908490600401614478565b60206040518083038186803b15801561195957600080fd5b505afa15801561196d573d6000803e3d6000fd5b505050506040513d601f19601f820116820180604052508101906119919190613e28565b6001600160a01b0316826001600160a01b0316146119c15760405162461bcd60e51b815260040161060290614704565b60675460405163fa461e3360e01b81526001600160a01b039091169063fa461e33906119f79089908990899089906004016145a8565b600060405180830381600087803b158015611a1157600080fd5b505af1158015611a25573d6000803e3d6000fd5b50505050505050505050565b600080611a58611a53611a458560006113da565b6001600160a01b0316612a18565b612a32565b90506000836001600160a01b0316631208064760cf60009054906101000a90046001600160a01b03166001600160a01b0316633e742e3b6040518163ffffffff1660e01b815260040160206040518083038186803b158015611ab957600080fd5b505afa158015611acd573d6000803e3d6000fd5b505050506040513d601f19601f82011682018060405250810190611af19190614437565b6040518263ffffffff1660e01b8152600401611b0d919061494b565b60206040518083038186803b158015611b2557600080fd5b505afa158015611b39573d6000803e3d6000fd5b505050506040513d601f19601f82011682018060405250810190611b5d919061409b565b90506000818311611b7757611b728284612a4b565b611b81565b611b818383612a4b565b9050611b908262030d40612292565b10949350505050565b600080611bc7611bac84608001516127a4565b670de0b6b3a7640000611bc286604001516127a4565b612aa8565b90506000670de0b6b3a76400008211611c16576000611bfc611be884612b57565b606087015190670de0b6b3a7640000612ba3565b60a0860151909150611c0e90826127d9565b915050611c47565b60a0840151600090611c3190670de0b6b3a764000085612ba3565b6060860151909150611c4390826127d9565b9150505b9392505050565b3390565b6067546001600160a01b0316611c66611c4e565b6001600160a01b031614611c8c5760405162461bcd60e51b81526004016106029061463c565b565b611c96613cab565b6000806000846001600160a01b03166347535d7b6040518163ffffffff1660e01b815260040160206040518083038186803b158015611cd457600080fd5b505afa158015611ce8573d6000803e3d6000fd5b505050506040513d601f19601f82011682018060405250810190611d0c919061407f565b9050600081611d8b57856001600160a01b031663fe3434616040518163ffffffff1660e01b815260040160206040518083038186803b158015611d4e57600080fd5b505afa158015611d62573d6000803e3d6000fd5b505050506040513d601f19601f82011682018060405250810190611d86919061409b565b611d93565b611d936121cf565b6001600160a01b038716600090815260d160205260408120549192509015611e8d5760cf60009054906101000a90046001600160a01b03166001600160a01b0316633e742e3b6040518163ffffffff1660e01b815260040160206040518083038186803b158015611e0357600080fd5b505afa158015611e17573d6000803e3d6000fd5b505050506040513d601f19601f82011682018060405250810190611e3b9190614437565b6001600160a01b038816600090815260d1602052604081205491925090611e6c90611e67908590612a4b565b612c47565b90508063ffffffff168263ffffffff1611611e875781611e89565b805b9150505b60008315611f2857611ea2611a4589846113da565b604051631208064760e01b81529091506001600160a01b03891690631208064790611ed190859060040161494b565b60206040518083038186803b158015611ee957600080fd5b505afa158015611efd573d6000803e3d6000fd5b505050506040513d601f19601f82011682018060405250810190611f21919061409b565b9450612046565b6000611f3f611e6785611f396121cf565b90612a4b565b609a5460405163bbe4f6db60e01b8152919250611fcf91611a45916001600160a01b03169063bbe4f6db90611f78908e90600401614478565b60206040518083038186803b158015611f9057600080fd5b505afa158015611fa4573d6000803e3d6000fd5b505050506040513d601f19601f82011682018060405250810190611fc89190613e28565b8386612c8c565b9150886001600160a01b0316631c2ab4056040518163ffffffff1660e01b815260040160206040518083038186803b15801561200a57600080fd5b505afa15801561201e573d6000803e3d6000fd5b505050506040513d601f19601f82011682018060405250810190612042919061409b565b9550505b61204f81612a32565b6001600160a01b038916600090815260d2602090815260408083205460d39092529091209197509084821480612083575081155b156120a757604080518082019091528154815260018201546020820152985061211e565b60006120d66120be6120b98886612a4b565b612b57565b6120d0866120cb8c612df1565b612e0a565b90612f14565b82549091506120e590826127d9565b8a5261211761210c82600160601b6120fe8f60006113da565b6001600160a01b0316612ba3565b6001840154906127d9565b60208b0152505b5050505050509193909250565b60cd54604051633fe1339b60e11b815260009182916001600160a01b0390911690637fc2673690612164908a908a9088906004016144a6565b602060405180830381600087803b15801561217e57600080fd5b505af1158015612192573d6000803e3d6000fd5b505050506040513d601f19601f820116820180604052508101906121b6919061409b565b90506121c4858585846129cd565b979650505050505050565b4290565b609a5460405163bbe4f6db60e01b8152600091829161220a916001600160a01b03169063bbe4f6db90610eea908790600401614478565b509398975050505050505050565b600080612224836121d3565b9050611c478382612688565b600061228a846122856040518060a00160405280886001600160a01b031681526020018715151581526020018715151581526020018681526020016122758989612fbd565b6001600160a01b03169052613048565b612688565b949350505050565b6000611467838362ffffff16620f4240612aa8565b6122af613d1d565b609a54602083015160405163033e16f360e21b81526000926001600160a01b031691630cf85bcc916122e49190600401614478565b60806040518083038186803b1580156122fc57600080fd5b505afa158015612310573d6000803e3d6000fd5b505050506040513d601f19601f8201168201806040525081019061233491906141a4565b905060008061235a856040015186606001518760a00151866020015187604001516131f0565b91509150600061236d8660200151611c8e565b50509050600060cd60009054906101000a90046001600160a01b03166001600160a01b031663a3bf0df86040518061010001604052808a602001516001600160a01b031681526020018a60400151151581526020016001151581526020018681526020018a60c001516001600160a01b03168152602001886020015162ffffff168152602001886040015162ffffff168152602001858152506040518263ffffffff1660e01b815260040161242291906147dc565b606060405180830381600087803b15801561243c57600080fd5b505af1158015612450573d6000803e3d6000fd5b505050506040513d601f19601f82011682018060405250810190612474919061428e565b905060006125706040518060e0016040528088600001516001600160a01b03168152602001606760009054906101000a90046001600160a01b03166001600160a01b031681526020018a60400151151581526020018a60600151151581526020018781526020018a60c001516001600160a01b031681526020016040518060a001604052808c600001516001600160a01b031681526020018c602001516001600160a01b031681526020018a600001516001600160a01b031681526020018a6040015162ffffff16815260200186602001518152506040516020016125599190614860565b60405160208183030381529060405281525061327c565b90506000808960400151156125b15761259b61259684600001518a6040015160006134a6565b6134ed565b91506125aa8360200151612b57565b90506125d8565b82516125bc90612b57565b91506125d561259684602001518a6040015160006134a6565b90505b6020808b01516001600160a01b0316600090815260d19091526040902054612621576126026121cf565b6020808c01516001600160a01b0316600090815260d190915260409020555b6040518060e001604052808381526020016126496126428760200151612b57565b8490613501565b81526020018381526020018281526020018560200151815260200185604001518152602001856000015160020b81525098505050505050505050919050565b6001600160a01b038216600090815260d4602090815260408083205460d090925282205462ffffff90911690600290810b9083906126d2906126cd9084900b856127d9565b613566565b905060006126ec6126cd600285900b62ffffff8716613501565b90508060020b8660020b12806121c457508160020b8660020b13979650505050505050565b6000806000806000806000876001600160a01b0316633850c7bd6040518163ffffffff1660e01b815260040160e06040518083038186803b15801561275557600080fd5b505afa158015612769573d6000803e3d6000fd5b505050506040513d601f19601f8201168201806040525081019061278d9190614388565b959e949d50929b5090995097509550909350915050565b6000808212156127c4576127bf6127ba836135a9565b6135d5565b61146a565b61146a826135d5565b3b151590565b6103e890565b60008282018183128015906127ee5750838112155b80612803575060008312801561280357508381125b6114675760405162461bcd60e51b81526004018080602001828103825260218152602001806149e36021913960400191505060405180910390fd5b600061146783600084612c8c565b6000612857306127cd565b15905090565b600054610100900460ff1680612876575061287661284c565b80612884575060005460ff16155b6128bf5760405162461bcd60e51b815260040180806020018281038252602e815260200180614a2d602e913960400191505060405180910390fd5b600054610100900460ff161580156128ea576000805460ff1961ff0019909116610100171660011790555b6128f261362c565b8015612904576000805461ff00191690555b50565b600054610100900460ff1680612920575061292061284c565b8061292e575060005460ff16155b6129695760405162461bcd60e51b815260040180806020018281038252602e815260200180614a2d602e913960400191505060405180910390fd5b600054610100900460ff16158015612994576000805460ff1961ff0019909116610100171660011790555b61299c61371b565b609a80546001600160a01b0319166001600160a01b03841617905580156129c9576000805461ff00191690555b5050565b6000806129f5866129eb87876000015161350190919063ffffffff16565b600160601b612ba3565b9050612a0e62015180612a0885846127d9565b906137b0565b9695505050505050565b600061146a6001600160a01b03831680600160601b612aa8565b600061146a82670de0b6b3a7640000600160601b612aa8565b600082821115612aa2576040805162461bcd60e51b815260206004820152601e60248201527f536166654d6174683a207375627472616374696f6e206f766572666c6f770000604482015290519081900360640190fd5b50900390565b6000808060001985870986860292508281109083900303905080612ade5760008411612ad357600080fd5b508290049050611c47565b808411612aea57600080fd5b6000848688096000868103871696879004966002600389028118808a02820302808a02820302808a02820302808a02820302808a02820302808a02909103029181900381900460010186841190950394909402919094039290920491909117919091029150509392505050565b60006001600160ff1b03821115612b9f5760405162461bcd60e51b8152600401808060200182810382526028815260200180614ae96028913960400191505060405180910390fd5b5090565b60008060008512612bb45784612bbd565b612bbd856135a9565b90506000808512612bce5784612bd7565b612bd7856135a9565b905060008087128015612bea5750600086135b80612c005750600087138015612c005750600086125b612c0b576000612c0e565b60015b90506000612c1d848488612aa8565b905081612c3257612c2d81612b57565b612c3b565b612c3b816134ed565b98975050505050505050565b8063ffffffff8116811461041f5760405162461bcd60e51b8152600401808060200182810382526026815260200180614ac36026913960400191505060405180910390fd5b6000600a8263ffffffff161015612cb8576000612ca885612711565b50949650611c4795505050505050565b60408051600280825260608201835260009260208301908036833701905050905082840181600081518110612ce957fe5b602002602001019063ffffffff16908163ffffffff16815250508381600181518110612d1157fe5b63ffffffff9092166020928302919091019091015260405163883bdbfd60e01b81526000906001600160a01b0387169063883bdbfd90612d5590859060040161454a565b60006040518083038186803b158015612d6d57600080fd5b505afa158015612d81573d6000803e3d6000fd5b505050506040513d6000823e601f3d908101601f19168201604052612da99190810190613fb8565b509050612a0e8463ffffffff1682600081518110612dc357fe5b602002602001015183600181518110612dd857fe5b60200260200101510360060b81612deb57fe5b05613868565b600061146a82600160601b670de0b6b3a7640000612aa8565b60008060cf60009054906101000a90046001600160a01b03166001600160a01b0316636e1d2dd26040518163ffffffff1660e01b815260040160206040518083038186803b158015612e5b57600080fd5b505afa158015612e6f573d6000803e3d6000fd5b505050506040513d601f19601f82011682018060405250810190612e93919061441b565b90506000612ea18483612292565b9050600084861115612ede57612eb78686612a4b565b9050818111612ece57612ec981612b57565b612ed7565b612ed782612b57565b9350612f0b565b612ee88587612a4b565b9050818111612eff57612efa816134ed565b612f08565b612f08826134ed565b93505b50505092915050565b600082612f235750600061146a565b82600019148015612f375750600160ff1b82145b15612f735760405162461bcd60e51b8152600401808060200182810382526027815260200180614a9c6027913960400191505060405180910390fd5b82820282848281612f8057fe5b05146114675760405162461bcd60e51b8152600401808060200182810382526027815260200180614a9c6027913960400191505060405180910390fd5b6001600160a01b038216600090815260d0602090815260408083205460d490925282205460029190910b9062ffffff168284612ffe57600182840303613005565b8183016001015b9050620d89e8600282900b1361301b5780613020565b620d89e85b9050620d89e719600282900b12613037578061303d565b620d89e7195b9050612f0881613868565b609a54815160405163033e16f360e21b815260009283926001600160a01b0390911691630cf85bcc9161307d91600401614478565b60806040518083038186803b15801561309557600080fd5b505afa1580156130a9573d6000803e3d6000fd5b505050506040513d601f19601f820116820180604052508101906130cd91906141a4565b905060008160200151905060008260400151905060006130fc86602001518760400151886060015186866131f0565b60cd5460408051610100810182528a516001600160a01b0390811682526020808d01511515818401526000838501819052606084018790526080808f015184169085015262ffffff808c1660a08601528a1660c08501528451808601865281815291820181905260e08401919091529251631477e1bf60e31b815294965091945091169163a3bf0df891613192916004016147dc565b606060405180830381600087803b1580156131ac57600080fd5b505af11580156131c0573d6000803e3d6000fd5b505050506040513d601f19601f820116820180604052508101906131e4919061428e565b51979650505050505050565b6000808615613222578561320f5761320a858560016134a6565b61321b565b61321b858460016134a6565b915061323d565b8561322d578461323a565b61323a8584866001613b90565b91505b866132505761324b85612b57565b613259565b61325982612b57565b90508561326e57613269816135a9565b613270565b805b90509550959350505050565b613284613cab565b600082606001516132a15761329c83608001516134ed565b6132ae565b6132ae8360800151612b57565b905060008084600001516001600160a01b031663128acb0886602001518760400151868960a001516001600160a01b03166000146132f0578960a0015161331a565b89604001516133135773fffd8963efd1fc6a506488495d951d5263988d2561331a565b6401000276a45b8a60c001516040518663ffffffff1660e01b815260040161333f9594939291906144cb565b6040805180830381600087803b15801561335857600080fd5b505af115801561336c573d6000803e3d6000fd5b505050506040513d601f19601f8201168201806040525081019061339091906140b3565b915091506000806133a0846127a4565b6133a9846127a4565b9150915060008760400151151588606001511515146133c857816133ca565b825b905087606001511580156133e9575060a08801516001600160a01b0316155b1561348a57600a8860800151821161340f57608089015161340a9083612a4b565b61341f565b608089015161341f908390612a4b565b1061343c5760405162461bcd60e51b81526004016106029061477c565b8760400151613463576040518060400160405280896080015181526020018381525061347d565b604051806040016040528084815260200189608001518152505b965050505050505061041f565b5060408051808201909152918252602082015295945050505050565b6000816134d1576134cc846134c3620f424062ffffff8716612a4b565b620f4240612aa8565b61228a565b61228a84620f42406134e88162ffffff8816612a4b565b613bd1565b60006134f882612b57565b60000392915050565b60008183038183128015906135165750838113155b8061352b575060008312801561352b57508381135b6114675760405162461bcd60e51b8152600401808060200182810382526024815260200180614b116024913960400191505060405180910390fd5b80600281900b811461041f5760405162461bcd60e51b8152600401808060200182810382526029815260200180614a046029913960400191505060405180910390fd5b6000600160ff1b82136135ce5760405162461bcd60e51b815260040161060290614725565b5060000390565b600080821215612b9f576040805162461bcd60e51b815260206004820181905260248201527f53616665436173743a2076616c7565206d75737420626520706f736974697665604482015290519081900360640190fd5b600054610100900460ff1680613645575061364561284c565b80613653575060005460ff16155b61368e5760405162461bcd60e51b815260040180806020018281038252602e815260200180614a2d602e913960400191505060405180910390fd5b600054610100900460ff161580156136b9576000805460ff1961ff0019909116610100171660011790555b6136c161371b565b60006136cb611c4e565b603380546001600160a01b0319166001600160a01b03831690811790915560405191925090600090600080516020614a7c833981519152908290a3508015612904576000805461ff001916905550565b600054610100900460ff1680613734575061373461284c565b80613742575060005460ff16155b61377d5760405162461bcd60e51b815260040180806020018281038252602e815260200180614a2d602e913960400191505060405180910390fd5b600054610100900460ff161580156137a8576000805460ff1961ff0019909116610100171660011790555b6128f2613c0b565b600081613804576040805162461bcd60e51b815260206004820181905260248201527f5369676e6564536166654d6174683a206469766973696f6e206279207a65726f604482015290519081900360640190fd5b816000191480156138185750600160ff1b83145b156138545760405162461bcd60e51b8152600401808060200182810382526021815260200180614a5b6021913960400191505060405180910390fd5b600082848161385f57fe5b05949350505050565b60008060008360020b1261387f578260020b613887565b8260020b6000035b9050620d89e88111156138c5576040805162461bcd60e51b81526020600482015260016024820152601560fa1b604482015290519081900360640190fd5b6000600182166138d957600160801b6138eb565b6ffffcb933bd6fad37aa2d162d1a5940015b6001600160881b031690506002821615613915576ffff97272373d413259a46990580e213a0260801c5b6004821615613934576ffff2e50f5f656932ef12357cf3c7fdcc0260801c5b6008821615613953576fffe5caca7e10e4e61c3624eaa0941cd00260801c5b6010821615613972576fffcb9843d60f6159c9db58835c9266440260801c5b6020821615613991576fff973b41fa98c081472e6896dfb254c00260801c5b60408216156139b0576fff2ea16466c96a3843ec78b326b528610260801c5b60808216156139cf576ffe5dee046a99a2a811c461f1969c30530260801c5b6101008216156139ef576ffcbe86c7900a88aedcffc83b479aa3a40260801c5b610200821615613a0f576ff987a7253ac413176f2b074cf7815e540260801c5b610400821615613a2f576ff3392b0822b70005940c7a398e4b70f30260801c5b610800821615613a4f576fe7159475a2c29b7443b29c7fa6e889d90260801c5b611000821615613a6f576fd097f3bdfd2022b8845ad8f792aa58250260801c5b612000821615613a8f576fa9f746462d870fdf8a65dc1f90e061e50260801c5b614000821615613aaf576f70d869a156d2a1b890bb3df62baf32f70260801c5b618000821615613acf576f31be135f97d08fd981231505542fcfa60260801c5b62010000821615613af0576f09aa508b5b7a84e1c677de54f3e99bc90260801c5b62020000821615613b10576e5d6af8dedb81196699c329225ee6040260801c5b62040000821615613b2f576d2216e584f5fa1ea926041bedfe980260801c5b62080000821615613b4c576b048a170391f7dc42444e8fa20260801c5b60008460020b1315613b67578060001981613b6357fe5b0490505b640100000000810615613b7b576001613b7e565b60005b60ff16602082901c0192505050919050565b600080600083613ba1578585613ba4565b84865b90925090506121c487613bbf620f424062ffffff8616612a4b565b6134e8620f424062ffffff8616612a4b565b6000613bde848484612aa8565b905060008280613bea57fe5b8486091115611c47576000198110613c0157600080fd5b6001019392505050565b600054610100900460ff1680613c245750613c2461284c565b80613c32575060005460ff16155b613c6d5760405162461bcd60e51b815260040180806020018281038252602e815260200180614a2d602e913960400191505060405180910390fd5b600054610100900460ff161580156128f2576000805460ff1961ff0019909116610100171660011790558015612904576000805461ff001916905550565b604051806040016040528060008152602001600081525090565b6040518061014001604052806000815260200160008152602001600081526020016000815260200160008152602001600081526020016000815260200160008152602001600060020b81526020016000151581525090565b6040518060e00160405280600081526020016000815260200160008152602001600081526020016000815260200160008152602001600060020b81525090565b803561041f8161499c565b600082601f830112613d78578081fd5b81516020613d8d613d888361497f565b61495c565b8281528181019085830183850287018401881015613da9578586fd5b855b85811015613dd0578151613dbe8161499c565b84529284019290840190600101613dab565b5090979650505050505050565b803561041f816149b1565b8051600281900b811461041f57600080fd5b805161ffff8116811461041f57600080fd5b600060208284031215613e1d578081fd5b81356114678161499c565b600060208284031215613e39578081fd5b81516114678161499c565b60008060408385031215613e56578081fd5b8235613e618161499c565b91506020830135613e718161499c565b809150509250929050565b600080600060608486031215613e90578081fd5b8335613e9b8161499c565b92506020840135613eab8161499c565b91506040840135613ebb8161499c565b809150509250925092565b60008060408385031215613ed8578182fd5b8235613ee38161499c565b91506020830135613e71816149bf565b60008060408385031215613f05578182fd5b8235613f108161499c565b91506020830135613e71816149d0565b60006020808385031215613f32578182fd5b82516001600160401b03811115613f47578283fd5b8301601f81018513613f57578283fd5b8051613f65613d888261497f565b8181528381019083850185840285018601891015613f81578687fd5b8694505b83851015613fac578051613f988161499c565b835260019490940193918501918501613f85565b50979650505050505050565b60008060408385031215613fca578182fd5b82516001600160401b0380821115613fe0578384fd5b818501915085601f830112613ff3578384fd5b81516020614003613d888361497f565b82815281810190858301838502870184018b101561401f578889fd5b8896505b8487101561404f5780518060060b811461403b57898afd5b835260019690960195918301918301614023565b5091880151919650909350505080821115614068578283fd5b5061407585828601613d68565b9150509250929050565b600060208284031215614090578081fd5b8151611467816149b1565b6000602082840312156140ac578081fd5b5051919050565b600080604083850312156140c5578182fd5b505080516020909101519092909150565b600080600080606085870312156140eb578182fd5b843593506020850135925060408501356001600160401b038082111561410f578384fd5b818701915087601f830112614122578384fd5b813581811115614130578485fd5b886020828501011115614141578485fd5b95989497505060200194505050565b600060608284031215614161578081fd5b604051606081018181106001600160401b038211171561417d57fe5b80604052508251815260208301516020820152604083015160408201528091505092915050565b6000608082840312156141b5578081fd5b604051608081018181106001600160401b03821117156141d157fe5b60405282516141df8161499c565b815260208301516141ef816149bf565b60208201526040830151614202816149bf565b60408201526060830151614215816149bf565b60608201529392505050565b600060808284031215614232578081fd5b604051608081018181106001600160401b038211171561424e57fe5b604052823561425c8161499c565b8152602083013561426c8161499c565b6020820152604083810135908201526060928301359281019290925250919050565b60006060828403121561429f578081fd5b604051606081018181106001600160401b03821117156142bb57fe5b6040526142c783613de8565b815260208301516020820152604083015160408201528091505092915050565b600060e082840312156142f8578081fd5b60405160e081018181106001600160401b038211171561431457fe5b60405261432083613d5d565b815261432e60208401613d5d565b602082015261433f60408401613ddd565b604082015261435060608401613ddd565b606082015261436160808401613ddd565b608082015260a083013560a082015261437c60c08401613d5d565b60c08201529392505050565b600080600080600080600060e0888a0312156143a2578485fd5b87516143ad8161499c565b96506143bb60208901613de8565b95506143c960408901613dfa565b94506143d760608901613dfa565b93506143e560808901613dfa565b925060a088015160ff811681146143fa578283fd5b60c089015190925061440b816149b1565b8091505092959891949750929550565b60006020828403121561442c578081fd5b8151611467816149bf565b600060208284031215614448578081fd5b8151611467816149d0565b15159052565b60020b9052565b80518252602090810151910152565b62ffffff169052565b6001600160a01b0391909116815260200190565b6001600160a01b0392831681529116602082015260400190565b6001600160a01b038481168252831660208201526080810161228a6040830184614460565b600060018060a01b038088168352602087151581850152866040850152818616606085015260a06080850152845191508160a0850152825b8281101561451f5785810182015185820160c001528101614503565b82811115614530578360c084870101525b5050601f01601f19169190910160c0019695505050505050565b6020808252825182820181905260009190848201906040850190845b8181101561458857835163ffffffff1683529284019291840191600101614566565b50909695505050505050565b901515815260200190565b90815260200190565b60008582528460208301526060604083015282606083015282846080840137818301608090810191909152601f909201601f191601019392505050565b82815260608101611c476020830184614460565b60208082526008908201526745585f4f504c425360c01b604082015260600190565b60208082526007908201526645585f42544e4560c81b604082015260600190565b6020808252600790820152660869088be9e86960cb1b604082015260600190565b60208082526008908201526745585f414f504c4f60c01b604082015260600190565b60208082526008908201526745585f4f504c415360c01b604082015260600190565b6020808252600590820152640455f4142360dc1b604082015260600190565b602080825260069082015265455f4f424e4360d01b604082015260600190565b6020808252600a908201526922ac2fa6aa21a627a7a960b11b604082015260600190565b6020808252600790820152662aa1a12fa321ab60c91b604082015260600190565b6020808252601c908201527f506572704d6174683a20696e76657273696f6e206f766572666c6f7700000000604082015260600190565b602080825260069082015265455f43484e4360d01b604082015260600190565b60208082526006908201526555425f554f4160d01b604082015260600190565b602080825260069082015265045585f4d49560d41b604082015260600190565b60208082526006908201526545585f424e4360d01b604082015260600190565b60006101208201905060018060a01b03808451168352602084015115156020840152604084015115156040840152606084015160608401528060808501511660808401525060a083015161483360a084018261446f565b5060c083015161484660c084018261446f565b5060e083015161485960e0840182614460565b5092915050565b81516001600160a01b0390811682526020808401518216908301526040808401519091169082015260608083015162ffffff16908201526080918201519181019190915260a00190565b600061014082019050825182526020830151602083015260408301516040830152606083015160608301526080830151608083015260a083015160a083015260c083015160c083015260e083015160e08301526101008084015161491082850182614459565b50506101208084015161492582850182614453565b505092915050565b62ffffff91909116815260200190565b918252602082015260400190565b63ffffffff91909116815260200190565b6040518181016001600160401b038111828210171561497757fe5b604052919050565b60006001600160401b0382111561499257fe5b5060209081020190565b6001600160a01b038116811461290457600080fd5b801515811461290457600080fd5b62ffffff8116811461290457600080fd5b63ffffffff8116811461290457600080fdfe5369676e6564536166654d6174683a206164646974696f6e206f766572666c6f7753616665436173743a2076616c756520646f65736e27742066697420696e20616e2032342062697473496e697469616c697a61626c653a20636f6e747261637420697320616c726561647920696e697469616c697a65645369676e6564536166654d6174683a206469766973696f6e206f766572666c6f778be0079c531659141344cd1fd0a4f28419497f9722a3daafe3b4186f6b6457e05369676e6564536166654d6174683a206d756c7469706c69636174696f6e206f766572666c6f7753616665436173743a2076616c756520646f65736e27742066697420696e203332206269747353616665436173743a2076616c756520646f65736e27742066697420696e20616e20696e743235365369676e6564536166654d6174683a207375627472616374696f6e206f766572666c6f77a264697066735822122083c8202df0c76b058ed5e75f803bb3c92b8ef581b958989e7ec922586a7bba3464736f6c63430007060033",
  "devdoc": {
    "kind": "dev",
    "methods": {
      "candidate()": {
        "details": "Returns the candidate that can become the owner."
      },
      "getAccountBalance()": {
        "returns": {
          "_0": "`AccountBalance` contract address"
        }
      },
      "getAllPendingFundingPayment(address)": {
        "returns": {
          "pendingFundingPayment": "The pending funding payment of the trader. Positive value means the trader pays funding, negative value means the trader receives funding."
        }
      },
      "getClearingHouseConfig()": {
        "returns": {
          "_0": "`ClearingHouseConfig` contract address"
        }
      },
      "getMaxTickCrossedWithinBlock(address)": {
        "params": {
          "baseToken": "Address of the base token"
        },
        "returns": {
          "_0": "The max ticks allowed to be crossed within a block when reducing position"
        }
      },
      "getOrderBook()": {
        "returns": {
          "_0": "`OrderBook` contract address"
        }
      },
      "getPendingFundingPayment(address,address)": {
        "details": "this is the view version of _updateFundingGrowth()",
        "returns": {
          "_0": "The pending funding payment of a trader in one market, including liquidity & balance coefficients. Positive value means the trader pays funding, negative value means the trader receives funding."
        }
      },
      "getPnlToBeRealized((address,address,int256,int256))": {
        "details": "This function normally won't be needed by traders, but it might be useful for 3rd party",
        "params": {
          "params": "The params needed to do the query, encoded as `RealizePnlParams` in calldata"
        },
        "returns": {
          "_0": "The pnl that can be realized if trader reduce position"
        }
      },
      "getSqrtMarkTwapX96(address,uint32)": {
        "details": "The return value is a X96 number",
        "params": {
          "baseToken": "Address of the base token",
          "twapInterval": "The time interval in seconds"
        },
        "returns": {
          "_0": "The square root of the market twap price"
        }
      },
      "isOverPriceSpread(address)": {
        "params": {
          "baseToken": "Address of the base token"
        },
        "returns": {
          "_0": "true if over the maximum price spread"
        }
      },
      "owner()": {
        "details": "Returns the address of the current owner."
      },
      "renounceOwnership()": {
        "details": "Leaves the contract without owner. It will not be possible to call `onlyOwner` functions anymore. Can only be called by the current owner. NOTE: Renouncing ownership will leave the contract without an owner, thereby removing any functionality that is only available to the owner."
      },
      "setAccountBalance(address)": {
        "params": {
          "accountBalanceArg": ": AccountBalance contract address"
        }
      },
      "setMaxTickCrossedWithinBlock(address,uint24)": {
        "details": "Restrict the price impact by setting the ticks can be crossed within a block when trader reducing liquidity. It is used to prevent the malicious behavior of the malicious traders. The restriction is applied in _isOverPriceLimitWithTick()",
        "params": {
          "baseToken": "The base token address",
          "maxTickCrossedWithinBlock": "The maximum ticks can be crossed within a block"
        }
      },
      "setOwner(address)": {
        "details": "Set ownership of the contract to a new account (`newOwner`). Can only be called by the current owner."
      },
      "settleFunding(address,address)": {
        "details": "This function should be called at the beginning of every high-level function, such as `openPosition()`      while it doesn't matter who calls this function      this function 1. settles personal funding payment 2. updates global funding growth      personal funding payment is settled whenever there is pending funding payment      the global funding growth update only happens once per unique timestamp (not blockNumber, due to Arbitrum)",
        "returns": {
          "fundingGrowthGlobal": "the up-to-date globalFundingGrowth, usually used for later calculations",
          "fundingPayment": "the funding payment of a trader in one market should be settled into owned realized Pnl"
        }
      },
      "swap((address,address,bool,bool,bool,uint256,uint160))": {
        "details": "can only be called from ClearingHouse",
        "params": {
          "params": "The parameters of the swap"
        },
        "returns": {
          "_0": "The result of the swap"
        }
      },
      "uniswapV3SwapCallback(int256,int256,bytes)": {
        "details": "This callback is forwarded to ClearingHouse.uniswapV3SwapCallback() because all the tokens are stored in there.",
        "params": {
          "amount0Delta": "The amount of token0 that was sent (negative) or must be received (positive) by the pool by the end of the swap. If positive, the callback must send that amount of token0 to the pool.",
          "amount1Delta": "The amount of token1 that was sent (negative) or must be received (positive) by the pool by the end of the swap. If positive, the callback must send that amount of token1 to the pool.",
          "data": "Any data passed through by the caller via the IUniswapV3PoolActions#swap call"
        }
      },
      "updateOwner()": {
        "details": "Transfers ownership of the contract to a new account (`_candidate`). Can only be called by the new owner."
      }
    },
    "version": 1
  },
  "userdoc": {
    "events": {
      "AccountBalanceChanged(address)": {
        "notice": "Emitted when accountBalance is updated"
      },
      "FundingUpdated(address,uint256,uint256)": {
        "notice": "Emitted when the global funding growth is updated"
      },
      "MaxTickCrossedWithinBlockChanged(address,uint24)": {
        "notice": "Emitted when maxTickCrossedWithinBlock is updated"
      }
    },
    "kind": "user",
    "methods": {
      "getAccountBalance()": {
        "notice": "Get `AccountBalance` contract address"
      },
      "getAllPendingFundingPayment(address)": {
        "notice": "Get all the pending funding payment for a trader"
      },
      "getClearingHouseConfig()": {
        "notice": "Get `ClearingHouseConfig` contract address"
      },
      "getMaxTickCrossedWithinBlock(address)": {
        "notice": "Get the max ticks allowed to be crossed within a block when reducing position"
      },
      "getOrderBook()": {
        "notice": "Get `OrderBook` contract address"
      },
      "getPendingFundingPayment(address,address)": {
        "notice": "Get the pending funding payment for a trader in a given market"
      },
      "getPnlToBeRealized((address,address,int256,int256))": {
        "notice": "Get the pnl that can be realized if trader reduce position"
      },
      "getSqrtMarkTwapX96(address,uint32)": {
        "notice": "Get the square root of the market twap price with the given time interval"
      },
      "isOverPriceSpread(address)": {
        "notice": "Check if current price spread between market price and index twap is over maximum price spread."
      },
      "settleFunding(address,address)": {
        "notice": "Settle the funding payment for the time interval since the last settlement"
      },
      "swap((address,address,bool,bool,bool,uint256,uint160))": {
        "notice": "The actual swap function"
      },
      "uniswapV3SwapCallback(int256,int256,bytes)": {
        "notice": "Called to `msg.sender` after executing a swap via IUniswapV3Pool#swap."
      }
    },
    "version": 1
  },
  "storageLayout": {
    "storage": [
      {
        "astId": 1158,
        "contract": "contracts/Exchange.sol:Exchange",
        "label": "_initialized",
        "offset": 0,
        "slot": "0",
        "type": "t_bool"
      },
      {
        "astId": 1161,
        "contract": "contracts/Exchange.sol:Exchange",
        "label": "_initializing",
        "offset": 1,
        "slot": "0",
        "type": "t_bool"
      },
      {
        "astId": 2475,
        "contract": "contracts/Exchange.sol:Exchange",
        "label": "__gap",
        "offset": 0,
        "slot": "1",
        "type": "t_array(t_uint256)50_storage"
      },
      {
        "astId": 27037,
        "contract": "contracts/Exchange.sol:Exchange",
        "label": "_owner",
        "offset": 0,
        "slot": "51",
        "type": "t_address"
      },
      {
        "astId": 27039,
        "contract": "contracts/Exchange.sol:Exchange",
        "label": "_candidate",
        "offset": 0,
        "slot": "52",
        "type": "t_address"
      },
      {
        "astId": 27043,
        "contract": "contracts/Exchange.sol:Exchange",
        "label": "__gap",
        "offset": 0,
        "slot": "53",
        "type": "t_array(t_uint256)50_storage"
      },
      {
        "astId": 26908,
        "contract": "contracts/Exchange.sol:Exchange",
        "label": "_clearingHouse",
        "offset": 0,
        "slot": "103",
        "type": "t_address"
      },
      {
        "astId": 26912,
        "contract": "contracts/Exchange.sol:Exchange",
        "label": "__gap",
        "offset": 0,
        "slot": "104",
        "type": "t_array(t_uint256)50_storage"
      },
      {
        "astId": 27227,
        "contract": "contracts/Exchange.sol:Exchange",
        "label": "_marketRegistry",
        "offset": 0,
        "slot": "154",
        "type": "t_address"
      },
      {
        "astId": 27231,
        "contract": "contracts/Exchange.sol:Exchange",
        "label": "__gap",
        "offset": 0,
        "slot": "155",
        "type": "t_array(t_uint256)50_storage"
      },
      {
        "astId": 32358,
        "contract": "contracts/Exchange.sol:Exchange",
        "label": "_orderBook",
        "offset": 0,
        "slot": "205",
        "type": "t_address"
      },
      {
        "astId": 32360,
        "contract": "contracts/Exchange.sol:Exchange",
        "label": "_accountBalance",
        "offset": 0,
        "slot": "206",
        "type": "t_address"
      },
      {
        "astId": 32362,
        "contract": "contracts/Exchange.sol:Exchange",
        "label": "_clearingHouseConfig",
        "offset": 0,
        "slot": "207",
        "type": "t_address"
      },
      {
        "astId": 32366,
        "contract": "contracts/Exchange.sol:Exchange",
        "label": "_lastUpdatedTickMap",
        "offset": 0,
        "slot": "208",
        "type": "t_mapping(t_address,t_int24)"
      },
      {
        "astId": 32370,
        "contract": "contracts/Exchange.sol:Exchange",
        "label": "_firstTradedTimestampMap",
        "offset": 0,
        "slot": "209",
        "type": "t_mapping(t_address,t_uint256)"
      },
      {
        "astId": 32374,
        "contract": "contracts/Exchange.sol:Exchange",
        "label": "_lastSettledTimestampMap",
        "offset": 0,
        "slot": "210",
        "type": "t_mapping(t_address,t_uint256)"
      },
      {
        "astId": 32378,
        "contract": "contracts/Exchange.sol:Exchange",
        "label": "_globalFundingGrowthX96Map",
        "offset": 0,
        "slot": "211",
        "type": "t_mapping(t_address,t_struct(Growth)29512_storage)"
      },
      {
        "astId": 32382,
        "contract": "contracts/Exchange.sol:Exchange",
        "label": "_maxTickCrossedWithinBlockMap",
        "offset": 0,
        "slot": "212",
        "type": "t_mapping(t_address,t_uint24)"
      },
      {
        "astId": 32388,
        "contract": "contracts/Exchange.sol:Exchange",
        "label": "_lastOverPriceLimitTimestampMap",
        "offset": 0,
        "slot": "213",
        "type": "t_mapping(t_address,t_mapping(t_address,t_uint256))"
      }
    ],
    "types": {
      "t_address": {
        "encoding": "inplace",
        "label": "address",
        "numberOfBytes": "20"
      },
      "t_array(t_uint256)50_storage": {
        "base": "t_uint256",
        "encoding": "inplace",
        "label": "uint256[50]",
        "numberOfBytes": "1600"
      },
      "t_bool": {
        "encoding": "inplace",
        "label": "bool",
        "numberOfBytes": "1"
      },
      "t_int24": {
        "encoding": "inplace",
        "label": "int24",
        "numberOfBytes": "3"
      },
      "t_int256": {
        "encoding": "inplace",
        "label": "int256",
        "numberOfBytes": "32"
      },
      "t_mapping(t_address,t_int24)": {
        "encoding": "mapping",
        "key": "t_address",
        "label": "mapping(address => int24)",
        "numberOfBytes": "32",
        "value": "t_int24"
      },
      "t_mapping(t_address,t_mapping(t_address,t_uint256))": {
        "encoding": "mapping",
        "key": "t_address",
        "label": "mapping(address => mapping(address => uint256))",
        "numberOfBytes": "32",
        "value": "t_mapping(t_address,t_uint256)"
      },
      "t_mapping(t_address,t_struct(Growth)29512_storage)": {
        "encoding": "mapping",
        "key": "t_address",
        "label": "mapping(address => struct Funding.Growth)",
        "numberOfBytes": "32",
        "value": "t_struct(Growth)29512_storage"
      },
      "t_mapping(t_address,t_uint24)": {
        "encoding": "mapping",
        "key": "t_address",
        "label": "mapping(address => uint24)",
        "numberOfBytes": "32",
        "value": "t_uint24"
      },
      "t_mapping(t_address,t_uint256)": {
        "encoding": "mapping",
        "key": "t_address",
        "label": "mapping(address => uint256)",
        "numberOfBytes": "32",
        "value": "t_uint256"
      },
      "t_struct(Growth)29512_storage": {
        "encoding": "inplace",
        "label": "struct Funding.Growth",
        "members": [
          {
            "astId": 29509,
            "contract": "contracts/Exchange.sol:Exchange",
            "label": "twPremiumX96",
            "offset": 0,
            "slot": "0",
            "type": "t_int256"
          },
          {
            "astId": 29511,
            "contract": "contracts/Exchange.sol:Exchange",
            "label": "twPremiumDivBySqrtPriceX96",
            "offset": 0,
            "slot": "1",
            "type": "t_int256"
          }
        ],
        "numberOfBytes": "64"
      },
      "t_uint24": {
        "encoding": "inplace",
        "label": "uint24",
        "numberOfBytes": "3"
      },
      "t_uint256": {
        "encoding": "inplace",
        "label": "uint256",
        "numberOfBytes": "32"
      }
    }
  }
}