{
  "address": "0x56d23d359fc3f0c509AC8ED2bC9c91789D097AF0",
  "abi": [
    {
      "anonymous": false,
      "inputs": [
        {
          "indexed": true,
          "internalType": "address",
          "name": "clearingHouse",
          "type": "address"
        }
      ],
      "name": "ClearingHouseChanged",
      "type": "event"
    },
    {
      "anonymous": false,
      "inputs": [
        {
          "indexed": true,
          "internalType": "address",
          "name": "trader",
          "type": "address"
        },
        {
          "indexed": true,
          "internalType": "address",
          "name": "collateralToken",
          "type": "address"
        },
        {
          "indexed": true,
          "internalType": "address",
          "name": "liquidator",
          "type": "address"
        },
        {
          "indexed": false,
          "internalType": "uint256",
          "name": "collateral",
          "type": "uint256"
        },
        {
          "indexed": false,
          "internalType": "uint256",
          "name": "repaidSettlementWithoutInsuranceFundFeeX10_S",
          "type": "uint256"
        },
        {
          "indexed": false,
          "internalType": "uint256",
          "name": "insuranceFundFeeX10_S",
          "type": "uint256"
        },
        {
          "indexed": false,
          "internalType": "uint24",
          "name": "discountRatio",
          "type": "uint24"
        }
      ],
      "name": "CollateralLiquidated",
      "type": "event"
    },
    {
      "anonymous": false,
      "inputs": [
        {
          "indexed": true,
          "internalType": "address",
          "name": "collateralManager",
          "type": "address"
        }
      ],
      "name": "CollateralManagerChanged",
      "type": "event"
    },
    {
      "anonymous": false,
      "inputs": [
        {
          "indexed": true,
          "internalType": "address",
          "name": "collateralToken",
          "type": "address"
        },
        {
          "indexed": true,
          "internalType": "address",
          "name": "trader",
          "type": "address"
        },
        {
          "indexed": false,
          "internalType": "uint256",
          "name": "amount",
          "type": "uint256"
        }
      ],
      "name": "Deposited",
      "type": "event"
    },
    {
      "anonymous": false,
      "inputs": [
        {
          "indexed": true,
          "internalType": "address",
          "name": "previousOwner",
          "type": "address"
        },
        {
          "indexed": true,
          "internalType": "address",
          "name": "newOwner",
          "type": "address"
        }
      ],
      "name": "OwnershipTransferred",
      "type": "event"
    },
    {
      "anonymous": false,
      "inputs": [
        {
          "indexed": false,
          "internalType": "address",
          "name": "account",
          "type": "address"
        }
      ],
      "name": "Paused",
      "type": "event"
    },
    {
      "anonymous": false,
      "inputs": [
        {
          "indexed": true,
          "internalType": "address",
          "name": "trustedForwarder",
          "type": "address"
        }
      ],
      "name": "TrustedForwarderChanged",
      "type": "event"
    },
    {
      "anonymous": false,
      "inputs": [
        {
          "indexed": false,
          "internalType": "address",
          "name": "trustedForwarder",
          "type": "address"
        }
      ],
      "name": "TrustedForwarderUpdated",
      "type": "event"
    },
    {
      "anonymous": false,
      "inputs": [
        {
          "indexed": false,
          "internalType": "address",
          "name": "account",
          "type": "address"
        }
      ],
      "name": "Unpaused",
      "type": "event"
    },
    {
      "anonymous": false,
      "inputs": [
        {
          "indexed": true,
          "internalType": "address",
          "name": "WETH9",
          "type": "address"
        }
      ],
      "name": "WETH9Changed",
      "type": "event"
    },
    {
      "anonymous": false,
      "inputs": [
        {
          "indexed": true,
          "internalType": "address",
          "name": "collateralToken",
          "type": "address"
        },
        {
          "indexed": true,
          "internalType": "address",
          "name": "trader",
          "type": "address"
        },
        {
          "indexed": false,
          "internalType": "uint256",
          "name": "amount",
          "type": "uint256"
        }
      ],
      "name": "Withdrawn",
      "type": "event"
    },
    {
      "inputs": [],
      "name": "candidate",
      "outputs": [
        {
          "internalType": "address",
          "name": "",
          "type": "address"
        }
      ],
      "stateMutability": "view",
      "type": "function"
    },
    {
      "inputs": [],
      "name": "decimals",
      "outputs": [
        {
          "internalType": "uint8",
          "name": "",
          "type": "uint8"
        }
      ],
      "stateMutability": "view",
      "type": "function"
    },
    {
      "inputs": [
        {
          "internalType": "address",
          "name": "token",
          "type": "address"
        },
        {
          "internalType": "uint256",
          "name": "amount",
          "type": "uint256"
        }
      ],
      "name": "deposit",
      "outputs": [],
      "stateMutability": "nonpayable",
      "type": "function"
    },
    {
      "inputs": [],
      "name": "depositEther",
      "outputs": [],
      "stateMutability": "payable",
      "type": "function"
    },
    {
      "inputs": [
        {
          "internalType": "address",
          "name": "to",
          "type": "address"
        }
      ],
      "name": "depositEtherFor",
      "outputs": [],
      "stateMutability": "payable",
      "type": "function"
    },
    {
      "inputs": [
        {
          "internalType": "address",
          "name": "to",
          "type": "address"
        },
        {
          "internalType": "address",
          "name": "token",
          "type": "address"
        },
        {
          "internalType": "uint256",
          "name": "amount",
          "type": "uint256"
        }
      ],
      "name": "depositFor",
      "outputs": [],
      "stateMutability": "nonpayable",
      "type": "function"
    },
    {
      "inputs": [],
      "name": "getAccountBalance",
      "outputs": [
        {
          "internalType": "address",
          "name": "",
          "type": "address"
        }
      ],
      "stateMutability": "view",
      "type": "function"
    },
    {
      "inputs": [
        {
          "internalType": "address",
          "name": "trader",
          "type": "address"
        }
      ],
      "name": "getAccountValue",
      "outputs": [
        {
          "internalType": "int256",
          "name": "",
          "type": "int256"
        }
      ],
      "stateMutability": "view",
      "type": "function"
    },
    {
      "inputs": [
        {
          "internalType": "address",
          "name": "trader",
          "type": "address"
        }
      ],
      "name": "getBalance",
      "outputs": [
        {
          "internalType": "int256",
          "name": "",
          "type": "int256"
        }
      ],
      "stateMutability": "view",
      "type": "function"
    },
    {
      "inputs": [
        {
          "internalType": "address",
          "name": "trader",
          "type": "address"
        },
        {
          "internalType": "address",
          "name": "token",
          "type": "address"
        }
      ],
      "name": "getBalanceByToken",
      "outputs": [
        {
          "internalType": "int256",
          "name": "",
          "type": "int256"
        }
      ],
      "stateMutability": "view",
      "type": "function"
    },
    {
      "inputs": [],
      "name": "getClearingHouse",
      "outputs": [
        {
          "internalType": "address",
          "name": "",
          "type": "address"
        }
      ],
      "stateMutability": "view",
      "type": "function"
    },
    {
      "inputs": [],
      "name": "getClearingHouseConfig",
      "outputs": [
        {
          "internalType": "address",
          "name": "",
          "type": "address"
        }
      ],
      "stateMutability": "view",
      "type": "function"
    },
    {
      "inputs": [],
      "name": "getCollateralManager",
      "outputs": [
        {
          "internalType": "address",
          "name": "",
          "type": "address"
        }
      ],
      "stateMutability": "view",
      "type": "function"
    },
    {
      "inputs": [],
      "name": "getCollateralMmRatio",
      "outputs": [
        {
          "internalType": "uint24",
          "name": "",
          "type": "uint24"
        }
      ],
      "stateMutability": "view",
      "type": "function"
    },
    {
      "inputs": [
        {
          "internalType": "address",
          "name": "trader",
          "type": "address"
        }
      ],
      "name": "getCollateralTokens",
      "outputs": [
        {
          "internalType": "address[]",
          "name": "",
          "type": "address[]"
        }
      ],
      "stateMutability": "view",
      "type": "function"
    },
    {
      "inputs": [],
      "name": "getExchange",
      "outputs": [
        {
          "internalType": "address",
          "name": "",
          "type": "address"
        }
      ],
      "stateMutability": "view",
      "type": "function"
    },
    {
      "inputs": [
        {
          "internalType": "address",
          "name": "trader",
          "type": "address"
        }
      ],
      "name": "getFreeCollateral",
      "outputs": [
        {
          "internalType": "uint256",
          "name": "",
          "type": "uint256"
        }
      ],
      "stateMutability": "view",
      "type": "function"
    },
    {
      "inputs": [
        {
          "internalType": "address",
          "name": "trader",
          "type": "address"
        },
        {
          "internalType": "uint24",
          "name": "ratio",
          "type": "uint24"
        }
      ],
      "name": "getFreeCollateralByRatio",
      "outputs": [
        {
          "internalType": "int256",
          "name": "",
          "type": "int256"
        }
      ],
      "stateMutability": "view",
      "type": "function"
    },
    {
      "inputs": [
        {
          "internalType": "address",
          "name": "trader",
          "type": "address"
        },
        {
          "internalType": "address",
          "name": "token",
          "type": "address"
        }
      ],
      "name": "getFreeCollateralByToken",
      "outputs": [
        {
          "internalType": "uint256",
          "name": "",
          "type": "uint256"
        }
      ],
      "stateMutability": "view",
      "type": "function"
    },
    {
      "inputs": [],
      "name": "getInsuranceFund",
      "outputs": [
        {
          "internalType": "address",
          "name": "",
          "type": "address"
        }
      ],
      "stateMutability": "view",
      "type": "function"
    },
    {
      "inputs": [
        {
          "internalType": "address",
          "name": "token",
          "type": "address"
        },
        {
          "internalType": "uint256",
          "name": "settlementX10_S",
          "type": "uint256"
        }
      ],
      "name": "getLiquidatableCollateralBySettlement",
      "outputs": [
        {
          "internalType": "uint256",
          "name": "collateral",
          "type": "uint256"
        }
      ],
      "stateMutability": "view",
      "type": "function"
    },
    {
      "inputs": [
        {
          "internalType": "address",
          "name": "trader",
          "type": "address"
        }
      ],
      "name": "getMarginRequirementForCollateralLiquidation",
      "outputs": [
        {
          "internalType": "int256",
          "name": "",
          "type": "int256"
        }
      ],
      "stateMutability": "view",
      "type": "function"
    },
    {
      "inputs": [
        {
          "internalType": "address",
          "name": "trader",
          "type": "address"
        },
        {
          "internalType": "address",
          "name": "token",
          "type": "address"
        }
      ],
      "name": "getMaxRepaidSettlementAndLiquidatableCollateral",
      "outputs": [
        {
          "internalType": "uint256",
          "name": "maxRepaidSettlementX10_S",
          "type": "uint256"
        },
        {
          "internalType": "uint256",
          "name": "maxLiquidatableCollateral",
          "type": "uint256"
        }
      ],
      "stateMutability": "view",
      "type": "function"
    },
    {
      "inputs": [
        {
          "internalType": "address",
          "name": "token",
          "type": "address"
        },
        {
          "internalType": "uint256",
          "name": "collateral",
          "type": "uint256"
        }
      ],
      "name": "getRepaidSettlementByCollateral",
      "outputs": [
        {
          "internalType": "uint256",
          "name": "settlementX10_S",
          "type": "uint256"
        }
      ],
      "stateMutability": "view",
      "type": "function"
    },
    {
      "inputs": [],
      "name": "getSettlementToken",
      "outputs": [
        {
          "internalType": "address",
          "name": "",
          "type": "address"
        }
      ],
      "stateMutability": "view",
      "type": "function"
    },
    {
      "inputs": [
        {
          "internalType": "address",
          "name": "trader",
          "type": "address"
        }
      ],
      "name": "getSettlementTokenValue",
      "outputs": [
        {
          "internalType": "int256",
          "name": "",
          "type": "int256"
        }
      ],
      "stateMutability": "view",
      "type": "function"
    },
    {
      "inputs": [],
      "name": "getTotalDebt",
      "outputs": [
        {
          "internalType": "uint256",
          "name": "",
          "type": "uint256"
        }
      ],
      "stateMutability": "view",
      "type": "function"
    },
    {
      "inputs": [],
      "name": "getTrustedForwarder",
      "outputs": [
        {
          "internalType": "address",
          "name": "",
          "type": "address"
        }
      ],
      "stateMutability": "view",
      "type": "function"
    },
    {
      "inputs": [],
      "name": "getWETH9",
      "outputs": [
        {
          "internalType": "address",
          "name": "",
          "type": "address"
        }
      ],
      "stateMutability": "view",
      "type": "function"
    },
    {
      "inputs": [
        {
          "internalType": "address",
          "name": "insuranceFundArg",
          "type": "address"
        },
        {
          "internalType": "address",
          "name": "clearingHouseConfigArg",
          "type": "address"
        },
        {
          "internalType": "address",
          "name": "accountBalanceArg",
          "type": "address"
        },
        {
          "internalType": "address",
          "name": "exchangeArg",
          "type": "address"
        }
      ],
      "name": "initialize",
      "outputs": [],
      "stateMutability": "nonpayable",
      "type": "function"
    },
    {
      "inputs": [
        {
          "internalType": "address",
          "name": "trader",
          "type": "address"
        }
      ],
      "name": "isLiquidatable",
      "outputs": [
        {
          "internalType": "bool",
          "name": "",
          "type": "bool"
        }
      ],
      "stateMutability": "view",
      "type": "function"
    },
    {
      "inputs": [
        {
          "internalType": "address",
          "name": "forwarder",
          "type": "address"
        }
      ],
      "name": "isTrustedForwarder",
      "outputs": [
        {
          "internalType": "bool",
          "name": "",
          "type": "bool"
        }
      ],
      "stateMutability": "view",
      "type": "function"
    },
    {
      "inputs": [
        {
          "internalType": "address",
          "name": "trader",
          "type": "address"
        },
        {
          "internalType": "address",
          "name": "token",
          "type": "address"
        },
        {
          "internalType": "uint256",
          "name": "amount",
          "type": "uint256"
        },
        {
          "internalType": "bool",
          "name": "isDenominatedInSettlementToken",
          "type": "bool"
        }
      ],
      "name": "liquidateCollateral",
      "outputs": [
        {
          "internalType": "uint256",
          "name": "",
          "type": "uint256"
        }
      ],
      "stateMutability": "nonpayable",
      "type": "function"
    },
    {
      "inputs": [],
      "name": "owner",
      "outputs": [
        {
          "internalType": "address",
          "name": "",
          "type": "address"
        }
      ],
      "stateMutability": "view",
      "type": "function"
    },
    {
      "inputs": [],
      "name": "pause",
      "outputs": [],
      "stateMutability": "nonpayable",
      "type": "function"
    },
    {
      "inputs": [],
      "name": "paused",
      "outputs": [
        {
          "internalType": "bool",
          "name": "",
          "type": "bool"
        }
      ],
      "stateMutability": "view",
      "type": "function"
    },
    {
      "inputs": [],
      "name": "renounceOwnership",
      "outputs": [],
      "stateMutability": "nonpayable",
      "type": "function"
    },
    {
      "inputs": [
        {
          "internalType": "address",
          "name": "clearingHouseArg",
          "type": "address"
        }
      ],
      "name": "setClearingHouse",
      "outputs": [],
      "stateMutability": "nonpayable",
      "type": "function"
    },
    {
      "inputs": [
        {
          "internalType": "address",
          "name": "collateralManagerArg",
          "type": "address"
        }
      ],
      "name": "setCollateralManager",
      "outputs": [],
      "stateMutability": "nonpayable",
      "type": "function"
    },
    {
      "inputs": [
        {
          "internalType": "address",
          "name": "newOwner",
          "type": "address"
        }
      ],
      "name": "setOwner",
      "outputs": [],
      "stateMutability": "nonpayable",
      "type": "function"
    },
    {
      "inputs": [
        {
          "internalType": "address",
          "name": "trustedForwarderArg",
          "type": "address"
        }
      ],
      "name": "setTrustedForwarder",
      "outputs": [],
      "stateMutability": "nonpayable",
      "type": "function"
    },
    {
      "inputs": [
        {
          "internalType": "address",
          "name": "WETH9Arg",
          "type": "address"
        }
      ],
      "name": "setWETH9",
      "outputs": [],
      "stateMutability": "nonpayable",
      "type": "function"
    },
    {
      "inputs": [],
      "name": "unpause",
      "outputs": [],
      "stateMutability": "nonpayable",
      "type": "function"
    },
    {
      "inputs": [],
      "name": "updateOwner",
      "outputs": [],
      "stateMutability": "nonpayable",
      "type": "function"
    },
    {
      "inputs": [],
      "name": "versionRecipient",
      "outputs": [
        {
          "internalType": "string",
          "name": "",
          "type": "string"
        }
      ],
      "stateMutability": "pure",
      "type": "function"
    },
    {
      "inputs": [
        {
          "internalType": "address",
          "name": "token",
          "type": "address"
        },
        {
          "internalType": "uint256",
          "name": "amount",
          "type": "uint256"
        }
      ],
      "name": "withdraw",
      "outputs": [],
      "stateMutability": "nonpayable",
      "type": "function"
    },
    {
      "inputs": [
        {
          "internalType": "address",
          "name": "token",
          "type": "address"
        }
      ],
      "name": "withdrawAll",
      "outputs": [
        {
          "internalType": "uint256",
          "name": "amount",
          "type": "uint256"
        }
      ],
      "stateMutability": "nonpayable",
      "type": "function"
    },
    {
      "inputs": [],
      "name": "withdrawAllEther",
      "outputs": [
        {
          "internalType": "uint256",
          "name": "amount",
          "type": "uint256"
        }
      ],
      "stateMutability": "nonpayable",
      "type": "function"
    },
    {
      "inputs": [
        {
          "internalType": "uint256",
          "name": "amount",
          "type": "uint256"
        }
      ],
      "name": "withdrawEther",
      "outputs": [],
      "stateMutability": "nonpayable",
      "type": "function"
    },
    {
      "stateMutability": "payable",
      "type": "receive"
    }
  ],
  "transactionHash": "0x49aa9c8df53cedd402da105b598dd219152d13dac264257305d91eca2d6e1008",
  "args": [],
  "numDeployments": 1,
  "solcInputHash": "7a16bbbc5c6fea2b6505d4631b28aae2",
  "bytecode": "0x608060405234801561001057600080fd5b5061580a80620000216000396000f3fe6080604052600436106102a25760003560e01c8063842a05d411610165578063c3b66b31116100cc578063dfa441be11610085578063dfa441be1461075f578063ed903f7a14610774578063f3fef3a3146107a1578063f807cd22146107c1578063f8b2cb4f146107d6578063f8c8765e146107f6578063fa09e63014610816576102a9565b8063c3b66b31146106c0578063c575ff79146106e0578063ca91e18c146106f5578063ce1b815f14610715578063d9fd870b1461072a578063da7422281461073f576102a9565b8063ac4531bd1161011e578063ac4531bd14610609578063b3db428b1461062b578063b800a6b31461064b578063bc5920ba1461066b578063c0e695b814610680578063c3999444146106a0576102a9565b8063842a05d4146105745780638456cb59146105945780638da5cb5b146105a957806398ea5fca146105be578063a9b786b2146105c6578063aa2a8294146105f4576102a9565b80633ffd1303116102095780635ae80951116101c25780635ae80951146104e05780635c975abb146105005780636896fabf146105155780636c8381f81461052a578063715018a61461053f57806371b6a5bb14610554576102a9565b80633ffd13031461042b578063449323d81461044b57806347e7ef241461046b578063486ff0cd1461048b5780634faa8a26146104ad578063572b6c05146104c0576102a9565b80632e40a51b1161025b5780632e40a51b1461038a578063313ce567146103aa57806331c91117146103cc57806334ce998a146103e15780633bed33ce146103f65780633f4ba83a14610416576102a9565b8063042e02cf146102ae57806308511abb146102e457806312803c7d1461031157806312ca1d171461033357806313af403514610353578063158626f714610375576102a9565b366102a957005b600080fd5b3480156102ba57600080fd5b506102ce6102c9366004614ef8565b610836565b6040516102db9190615273565b60405180910390f35b3480156102f057600080fd5b506103046102ff366004615003565b610a1f565b6040516102db919061527e565b34801561031d57600080fd5b50610326610ba6565b6040516102db91906151f3565b34801561033f57600080fd5b5061030461034e366004614f30565b610bbc565b34801561035f57600080fd5b5061037361036e366004614ef8565b610d28565b005b34801561038157600080fd5b50610326610e83565b34801561039657600080fd5b506103046103a5366004614f30565b610e93565b3480156103b657600080fd5b506103bf610ebf565b6040516102db9190615624565b3480156103d857600080fd5b50610304610ec9565b3480156103ed57600080fd5b50610304610fa4565b34801561040257600080fd5b50610373610411366004615196565b610fab565b34801561042257600080fd5b50610373611069565b34801561043757600080fd5b5061030461044636600461504a565b6110d0565b34801561045757600080fd5b50610373610466366004614ef8565b6110f5565b34801561047757600080fd5b50610373610486366004615077565b6111cb565b34801561049757600080fd5b506104a06112c9565b6040516102db9190615287565b6103736104bb366004614ef8565b6112e8565b3480156104cc57600080fd5b506102ce6104db366004614ef8565b6113b6565b3480156104ec57600080fd5b506103046104fb366004614ef8565b6113ca565b34801561050c57600080fd5b506102ce6113ec565b34801561052157600080fd5b506103266113f5565b34801561053657600080fd5b50610326611405565b34801561054b57600080fd5b50610373611414565b34801561056057600080fd5b5061030461056f366004614ef8565b6114b5565b34801561058057600080fd5b5061037361058f366004614ef8565b61154b565b3480156105a057600080fd5b50610373611621565b3480156105b557600080fd5b50610326611686565b610373611695565b3480156105d257600080fd5b506105e66105e1366004614f30565b611742565b6040516102db9291906155f6565b34801561060057600080fd5b50610326611888565b34801561061557600080fd5b5061061e611898565b6040516102db91906155e6565b34801561063757600080fd5b50610373610646366004614fc3565b611995565b34801561065757600080fd5b50610304610666366004615077565b611aba565b34801561067757600080fd5b50610373611b96565b34801561068c57600080fd5b5061030461069b366004615077565b611c82565b3480156106ac57600080fd5b506103046106bb366004614ef8565b611d4c565b3480156106cc57600080fd5b506103046106db366004614ef8565b611d63565b3480156106ec57600080fd5b50610326611d7a565b34801561070157600080fd5b50610373610710366004614ef8565b611d8a565b34801561072157600080fd5b50610326611e60565b34801561073657600080fd5b50610326611e6f565b34801561074b57600080fd5b5061037361075a366004614ef8565b611e7f565b34801561076b57600080fd5b50610326611f4a565b34801561078057600080fd5b5061079461078f366004614ef8565b611f5a565b6040516102db9190615226565b3480156107ad57600080fd5b506103736107bc366004615077565b611fd1565b3480156107cd57600080fd5b506103266120c4565b3480156107e257600080fd5b506103046107f1366004614ef8565b6120d4565b34801561080257600080fd5b50610373610811366004614f68565b612107565b34801561082257600080fd5b50610304610831366004614ef8565b6123c8565b6001600160a01b038116600090815261013a60205260408120805461085f576000915050610a1a565b600061086a846124d4565b509050610876846114b5565b81121561088857600192505050610a1a565b60006108938561257b565b905060008082126108a55760006108b6565b6108b66108b1836125a0565b6125cc565b905061095161013860009054906101000a90046001600160a01b03166001600160a01b031663b6113be66040518163ffffffff1660e01b815260040160206040518083038186803b15801561090a57600080fd5b505afa15801561091e573d6000803e3d6000fd5b505050506040513d601f19601f82011682018060405250810190610942919061517a565b61094b88612627565b90612783565b811115610965576001945050505050610a1a565b61013860009054906101000a90046001600160a01b03166001600160a01b031663b2eae8386040518163ffffffff1660e01b815260040160206040518083038186803b1580156109b457600080fd5b505afa1580156109c8573d6000803e3d6000fd5b505050506040513d601f19601f820116820180604052508101906109ec91906150be565b610130546109fe90839060ff16612798565b1115610a11576001945050505050610a1a565b60009450505050505b919050565b6000610a296113ec565b15610a6e576040805162461bcd60e51b815260206004820152601060248201526f14185d5cd8589b194e881c185d5cd95960821b604482015290519081900360640190fd5b60026001541415610ab4576040805162461bcd60e51b815260206004820152601f6024820152600080516020615667833981519152604482015290519081900360640190fd5b6002600155610ac285610836565b610ae75760405162461bcd60e51b8152600401610ade906154e7565b60405180910390fd5b600080610af48787611742565b9150915060008060008615610b485787915084821115610b265760405162461bcd60e51b8152600401610ade906154a7565b848214610b3c57610b378983611aba565b610b3e565b835b9250829050610b89565b87925083831115610b6b5760405162461bcd60e51b8152600401610ade90615391565b838314610b8157610b7c8984611c82565b610b83565b845b91508190505b610b958a8a84866127ae565b600180559998505050505050505050565b6101305461010090046001600160a01b03165b90565b600080610bc88461257b565b1215610bd657506000610d22565b6000610be1846129ab565b905080610bf2576000915050610d22565b610130546001600160a01b03848116610100909204161415610c59576000610c1985612a4a565b5090506000811315610c4d5761013054610c489060ff16610c4284610c3d856125cc565b612ba3565b90612798565b610c50565b60005b92505050610d22565b600080610c6585612bb9565b61013854604051631ed4896760e31b81529294509092506000916001600160a01b039091169063f6a44b3890610c9f9089906004016151f3565b60806040518083038186803b158015610cb757600080fd5b505afa158015610ccb573d6000803e3d6000fd5b505050506040513d601f19601f82011682018060405250810190610cef9190615103565b602001519050610d1b610d0e82610d0889888888612d43565b90612d9d565b610c3d6108b18a8a610e93565b9450505050505b92915050565b610d30612db2565b6001600160a01b0316610d41611686565b6001600160a01b031614610d85576040805162461bcd60e51b8152602060048201526006602482015265534f5f434e4f60d01b604482015290519081900360640190fd5b6001600160a01b038116610dc9576040805162461bcd60e51b81526020600482015260066024820152650534f5f4e57360d41b604482015290519081900360640190fd5b6065546001600160a01b0382811691161415610e15576040805162461bcd60e51b8152602060048201526006602482015265534f5f53414f60d01b604482015290519081900360640190fd5b6066546001600160a01b0382811691161415610e61576040805162461bcd60e51b8152602060048201526006602482015265534f5f53414360d01b604482015290519081900360640190fd5b606680546001600160a01b0319166001600160a01b0392909216919091179055565b610133546001600160a01b031690565b6001600160a01b0391821660009081526101376020908152604080832093909416825291909152205490565b6101305460ff1690565b6000610ed36113ec565b15610f18576040805162461bcd60e51b815260206004820152601060248201526f14185d5cd8589b194e881c185d5cd95960821b604482015290519081900360640190fd5b60026001541415610f5e576040805162461bcd60e51b815260206004820152601f6024820152600080516020615667833981519152604482015290519081900360640190fd5b6002600155610f6b612dc1565b6000610f75612db2565b61013954909150610f909082906001600160a01b0316610bbc565b9150610f9c8183612df3565b506001805590565b6101365490565b610fb36113ec565b15610ff8576040805162461bcd60e51b815260206004820152601060248201526f14185d5cd8589b194e881c185d5cd95960821b604482015290519081900360640190fd5b6002600154141561103e576040805162461bcd60e51b815260206004820152601f6024820152600080516020615667833981519152604482015290519081900360640190fd5b600260015561104b612dc1565b6000611055612db2565b90506110618183612df3565b505060018055565b611071612db2565b6001600160a01b0316611082611686565b6001600160a01b0316146110c6576040805162461bcd60e51b8152602060048201526006602482015265534f5f434e4f60d01b604482015290519081900360640190fd5b6110ce612ec3565b565b610130546000906110ee9060ff166110e88585612f63565b90612f99565b9392505050565b6110fd612db2565b6001600160a01b031661110e611686565b6001600160a01b031614611152576040805162461bcd60e51b8152602060048201526006602482015265534f5f434e4f60d01b604482015290519081900360640190fd5b611164816001600160a01b0316612fe2565b6111805760405162461bcd60e51b8152600401610ade906153d1565b61013580546001600160a01b0319166001600160a01b0383169081179091556040517fd0654f5900f9e7e4e605a19334306e6a2786bbf960ac0484a4c12feb6428fe2f90600090a250565b6111d36113ec565b15611218576040805162461bcd60e51b815260206004820152601060248201526f14185d5cd8589b194e881c185d5cd95960821b604482015290519081900360640190fd5b6002600154141561125e576040805162461bcd60e51b815260206004820152601f6024820152600080516020615667833981519152604482015290519081900360640190fd5b60026001556101305482906001600160a01b0380831661010090920416148061128b575061128b81612fe8565b6112a75760405162461bcd60e51b8152600401610ade906153b1565b60006112b1612db2565b90506112bf8182868661306a565b5050600180555050565b6040805180820190915260058152640322e302e360dc1b602082015290565b6112f06113ec565b15611335576040805162461bcd60e51b815260206004820152601060248201526f14185d5cd8589b194e881c185d5cd95960821b604482015290519081900360640190fd5b6002600154141561137b576040805162461bcd60e51b815260206004820152601f6024820152600080516020615667833981519152604482015290519081900360640190fd5b60026001556001600160a01b0381166113a65760405162461bcd60e51b8152600401610ade906153f1565b6113af816130a6565b5060018055565b60fd546001600160a01b0390811691161490565b6000806113d6836124d4565b50610130549091506110ee90829060ff16612f99565b60995460ff1690565b610132546001600160a01b031690565b6066546001600160a01b031690565b61141c612db2565b6001600160a01b031661142d611686565b6001600160a01b031614611471576040805162461bcd60e51b8152602060048201526006602482015265534f5f434e4f60d01b604482015290519081900360640190fd5b6065546040516000916001600160a01b031690600080516020615718833981519152908390a3606580546001600160a01b0319908116909155606680549091169055565b6000610d226115466114c5611898565b61013254604051633666e41760e11b81526001600160a01b0390911690636ccdc82e906114f69088906004016151f3565b60206040518083038186803b15801561150e57600080fd5b505afa158015611522573d6000803e3d6000fd5b505050506040513d601f19601f8201168201806040525081019061094b91906150be565b613140565b611553612db2565b6001600160a01b0316611564611686565b6001600160a01b0316146115a8576040805162461bcd60e51b8152602060048201526006602482015265534f5f434e4f60d01b604482015290519081900360640190fd5b6115ba816001600160a01b0316612fe2565b6115d65760405162461bcd60e51b8152600401610ade90615565565b61013880546001600160a01b0319166001600160a01b0383169081179091556040517f7f1f6e997b7238fb3f4ee953b0630eda9d99527ae013f1e84bd916457e0a9dd490600090a250565b611629612db2565b6001600160a01b031661163a611686565b6001600160a01b03161461167e576040805162461bcd60e51b8152602060048201526006602482015265534f5f434e4f60d01b604482015290519081900360640190fd5b6110ce613188565b6065546001600160a01b031690565b61169d6113ec565b156116e2576040805162461bcd60e51b815260206004820152601060248201526f14185d5cd8589b194e881c185d5cd95960821b604482015290519081900360640190fd5b60026001541415611728576040805162461bcd60e51b815260206004820152601f6024820152600080516020615667833981519152604482015290519081900360640190fd5b60026001556000611737612db2565b90506113af816130a6565b60008061174e83612fe8565b61176a5760405162461bcd60e51b8152600401610ade90615524565b60006117758561320b565b61013854604051631ed4896760e31b81529192506000916001600160a01b039091169063f6a44b38906117ac9088906004016151f3565b60806040518083038186803b1580156117c457600080fd5b505afa1580156117d8573d6000803e3d6000fd5b505050506040513d601f19601f820116820180604052508101906117fc9190615103565b60400151905060008061180e87612bb9565b9092509050600061182c611825620f4240866134a5565b8490612783565b905061183a88868385612d43565b9550600061184b6108b18b8b610e93565b90508087111561186757809650611864898884866134d7565b95505b6101305461187990879060ff16612798565b97505050505050509250929050565b610131546001600160a01b031690565b6101385460408051633bc1d7ab60e01b8152905160009283926001600160a01b039091169163648cff3a918391633bc1d7ab91600480820192602092909190829003018186803b1580156118eb57600080fd5b505afa1580156118ff573d6000803e3d6000fd5b505050506040513d601f19601f82011682018060405250810190611923919061517a565b6040518263ffffffff1660e01b815260040161193f91906155e6565b60206040518083038186803b15801561195757600080fd5b505afa15801561196b573d6000803e3d6000fd5b505050506040513d601f19601f8201168201806040525081019061198f919061517a565b91505090565b61199d6113ec565b156119e2576040805162461bcd60e51b815260206004820152601060248201526f14185d5cd8589b194e881c185d5cd95960821b604482015290519081900360640190fd5b60026001541415611a28576040805162461bcd60e51b815260206004820152601f6024820152600080516020615667833981519152604482015290519081900360640190fd5b60026001556101305482906001600160a01b03808316610100909204161480611a555750611a5581612fe8565b611a715760405162461bcd60e51b8152600401610ade906153b1565b6001600160a01b038416611a975760405162461bcd60e51b8152600401610ade906153f1565b6000611aa1612db2565b9050611aaf8186868661306a565b505060018055505050565b61013854604051631ed4896760e31b815260009182916001600160a01b039091169063f6a44b3890611af09087906004016151f3565b60806040518083038186803b158015611b0857600080fd5b505afa158015611b1c573d6000803e3d6000fd5b505050506040513d601f19601f82011682018060405250810190611b409190615103565b604001519050600080611b5286612bb9565b610130549193509150611b8c908790611b6f90889060ff16613525565b611b86611b7f620f4240886134a5565b8690612783565b84612d43565b9695505050505050565b6066546001600160a01b0316611bdb576040805162461bcd60e51b81526020600482015260056024820152640534f5f43360dc1b604482015290519081900360640190fd5b611be3612db2565b6066546001600160a01b03908116911614611c2e576040805162461bcd60e51b8152602060048201526006602482015265534f5f434e4360d01b604482015290519081900360640190fd5b6066546065546040516001600160a01b03928316929091169060008051602061571883398151915290600090a360668054606580546001600160a01b03199081166001600160a01b03841617909155169055565b61013854604051631ed4896760e31b815260009182916001600160a01b039091169063f6a44b3890611cb89087906004016151f3565b60806040518083038186803b158015611cd057600080fd5b505afa158015611ce4573d6000803e3d6000fd5b505050506040513d601f19601f82011682018060405250810190611d089190615103565b604001519050600080611d1a86612bb9565b610130549193509150611b8c9060ff16610c428888611d46611d3f620f42408a6134a5565b8890612783565b866134d7565b61013054600090610d229060ff16610c42846129ab565b61013054600090610d229060ff166110e88461257b565b610135546001600160a01b031690565b611d92612db2565b6001600160a01b0316611da3611686565b6001600160a01b031614611de7576040805162461bcd60e51b8152602060048201526006602482015265534f5f434e4f60d01b604482015290519081900360640190fd5b611df9816001600160a01b0316612fe2565b611e155760405162461bcd60e51b8152600401610ade90615505565b61013980546001600160a01b0319166001600160a01b0383169081179091556040517f058d4d3b4c34c38d2a57d5abcbfceff6b01f10883bb6a6033f394a98ffbc6ed190600090a250565b60fd546001600160a01b031690565b610139546001600160a01b031690565b611e87612db2565b6001600160a01b0316611e98611686565b6001600160a01b031614611edc576040805162461bcd60e51b8152602060048201526006602482015265534f5f434e4f60d01b604482015290519081900360640190fd5b611eee816001600160a01b0316612fe2565b611f0a5760405162461bcd60e51b8152600401610ade906154c7565b611f138161353b565b6040516001600160a01b038216907f871264f4293af7d2865ae7eae628b228f4991c57cb45b39c99f0b774ebe2901890600090a250565b610138546001600160a01b031690565b6001600160a01b038116600090815261013a6020908152604091829020805483518184028101840190945280845260609392830182828015611fc557602002820191906000526020600020905b81546001600160a01b03168152600190910190602001808311611fa7575b50505050509050919050565b611fd96113ec565b1561201e576040805162461bcd60e51b815260206004820152601060248201526f14185d5cd8589b194e881c185d5cd95960821b604482015290519081900360640190fd5b60026001541415612064576040805162461bcd60e51b815260206004820152601f6024820152600080516020615667833981519152604482015290519081900360640190fd5b60026001556101305482906001600160a01b03808316610100909204161480612091575061209181612fe8565b6120ad5760405162461bcd60e51b8152600401610ade906153b1565b60006120b7612db2565b90506112bf81858561358f565b610134546001600160a01b031690565b6001600160a01b039081166000908152610137602090815260408083206101305461010090049094168352929052205490565b600054610100900460ff168061212057506121206135e8565b8061212e575060005460ff16155b6121695760405162461bcd60e51b815260040180806020018281038252602e8152602001806156a8602e913960400191505060405180910390fd5b600054610100900460ff16158015612194576000805460ff1961ff0019909116610100171660011790555b6000856001600160a01b03166321df0da76040518163ffffffff1660e01b815260040160206040518083038186803b1580156121cf57600080fd5b505afa1580156121e3573d6000803e3d6000fd5b505050506040513d601f19601f820116820180604052508101906122079190614f14565b90506000816001600160a01b031663313ce5676040518163ffffffff1660e01b815260040160206040518083038186803b15801561224457600080fd5b505afa158015612258573d6000803e3d6000fd5b505050506040513d601f19601f8201168201806040525081019061227c91906151d2565b905060128160ff1611156122a25760405162461bcd60e51b8152600401610ade906155c6565b6122b4866001600160a01b0316612fe2565b6122d05760405162461bcd60e51b8152600401610ade906152da565b6122e2856001600160a01b0316612fe2565b6122fe5760405162461bcd60e51b8152600401610ade906155a6565b612310846001600160a01b0316612fe2565b61232c5760405162461bcd60e51b8152600401610ade90615451565b6123346135f9565b61233c6136a3565b610130805460ff191660ff9290921691909117610100600160a81b0319166101006001600160a01b039384160217905561013380546001600160a01b0319908116888416179091556101318054821687841617905561013280548216868416179055610134805490911691841691909117905580156123c1576000805461ff00191690555b5050505050565b60006123d26113ec565b15612417576040805162461bcd60e51b815260206004820152601060248201526f14185d5cd8589b194e881c185d5cd95960821b604482015290519081900360640190fd5b6002600154141561245d576040805162461bcd60e51b815260206004820152601f6024820152600080516020615667833981519152604482015290519081900360640190fd5b60026001556101305482906001600160a01b0380831661010090920416148061248a575061248a81612fe8565b6124a65760405162461bcd60e51b8152600401610ade906153b1565b60006124b0612db2565b90506124bc8185610bbc565b92506124c981858561358f565b505060018055919050565b6101325460405163bba85bcf60e01b8152600091829182916001600160a01b03169063bba85bcf9061250a9087906004016151f3565b60606040518083038186803b15801561252257600080fd5b505afa158015612536573d6000803e3d6000fd5b505050506040513d601f19601f8201168201806040525081019061255a91906150d6565b5091505061256784613740565b91506125738282613769565b925050915091565b600080600061258984612a4a565b90925090506125988282613769565b949350505050565b6000600160ff1b82136125c55760405162461bcd60e51b8152600401610ade90615470565b5060000390565b600080821215612623576040805162461bcd60e51b815260206004820181905260248201527f53616665436173743a2076616c7565206d75737420626520706f736974697665604482015290519081900360640190fd5b5090565b6001600160a01b038116600090815261013a602090815260408083208054825181850281018501909352808352849383018282801561268f57602002820191906000526020600020905b81546001600160a01b03168152600190910190602001808311612671575b505083519394506000925050505b8181101561277b5760008382815181106126b357fe5b6020026020010151905060006126c987836137ce565b61013854604051631ed4896760e31b81529192506000916001600160a01b039091169063f6a44b38906127009086906004016151f3565b60806040518083038186803b15801561271857600080fd5b505afa15801561272c573d6000803e3d6000fd5b505050506040513d601f19601f820116820180604052508101906127509190615103565b60200151905061276a6127638383612783565b8890613801565b9650506001909201915061269d9050565b505050919050565b60006110ee838362ffffff16620f424061385b565b60006110ee8360ff601285900316600a0a61390a565b60006127b8612db2565b6101305490915061010090046001600160a01b03166127d8818386613971565b6127eb86866127e686613aa2565b613ab6565b610138546040805163ddb1381360e01b815290516000926001600160a01b03169163ddb13813916004808301926020929190829003018186803b15801561283157600080fd5b505afa158015612845573d6000803e3d6000fd5b505050506040513d601f19601f82011682018060405250810190612869919061517a565b905060006128778683612783565b61013354909150612895906001600160a01b0316846127e684613140565b60006128a18783613d3f565b90506128b189856127e684613140565b6128bc888688613d96565b61013854604051631ed4896760e31b81526000916001600160a01b03169063f6a44b38906128ee908c906004016151f3565b60806040518083038186803b15801561290657600080fd5b505afa15801561291a573d6000803e3d6000fd5b505050506040513d601f19601f8201168201806040525081019061293e9190615103565b604001519050856001600160a01b0316896001600160a01b03168b6001600160a01b03167fbd3320c61b99a54ed3537dce8a75020f70b61d6dd124b6aa28738d1bab9bf77d8a8688876040516129979493929190615604565b60405180910390a450505050505050505050565b6000610d226108b1612a438461013160009054906101000a90046001600160a01b03166001600160a01b031663543ce73a6040518163ffffffff1660e01b815260040160206040518083038186803b158015612a0657600080fd5b505afa158015612a1a573d6000803e3d6000fd5b505050506040513d601f19601f82011682018060405250810190612a3e919061517a565b612f63565b6000613de8565b610134546040516380f57f1160e01b8152600091829182916001600160a01b0316906380f57f1190612a809087906004016151f3565b60206040518083038186803b158015612a9857600080fd5b505afa158015612aac573d6000803e3d6000fd5b505050506040513d601f19601f82011682018060405250810190612ad091906150be565b6101325460405163bba85bcf60e01b815291925060009182916001600160a01b03169063bba85bcf90612b079089906004016151f3565b60606040518083038186803b158015612b1f57600080fd5b505afa158015612b33573d6000803e3d6000fd5b505050506040513d601f19601f82011682018060405250810190612b5791906150d6565b9095509092509050612b99612b7f83612b7986612b7386613140565b90613df8565b90613769565b61013054612b799060ff16612b938a6120d4565b90613e5d565b9450505050915091565b6000818310612bb257816110ee565b5090919050565b610138546101315460408051633e742e3b60e01b8152905160009384936001600160a01b039182169363449e815d93889390921691633e742e3b91600480820192602092909190829003018186803b158015612c1457600080fd5b505afa158015612c28573d6000803e3d6000fd5b505050506040513d601f19601f82011682018060405250810190612c4c91906151ae565b6040518363ffffffff1660e01b8152600401612c69929190615207565b60206040518083038186803b158015612c8157600080fd5b505afa158015612c95573d6000803e3d6000fd5b505050506040513d601f19601f82011682018060405250810190612cb991906150be565b61013854604051638c8557d960e01b81526001600160a01b0390911690638c8557d990612cea9087906004016151f3565b60206040518083038186803b158015612d0257600080fd5b505afa158015612d16573d6000803e3d6000fd5b505050506040513d601f19601f82011682018060405250810190612d3a91906151d2565b91509150915091565b600080612d4f86613e73565b905060128160ff1611612d7f57612d7a601282612d738860ff8816600a0a89613ee6565b9190613f20565b611b8c565b611b8c60ff8416600a0a85612d9688601286613f20565b9190613ee6565b60006110ee83620f42408462ffffff1661385b565b6000612dbc613f6d565b905090565b61013954612dd7906001600160a01b0316612fe8565b6110ce5760405162461bcd60e51b8152600401610ade90615585565b610139546001600160a01b0316612e0b838284613f9d565b604051632e1a7d4d60e01b81526001600160a01b03821690632e1a7d4d90612e3790859060040161527e565b600060405180830381600087803b158015612e5157600080fd5b505af1158015612e65573d6000803e3d6000fd5b50505050612e73838361420e565b826001600160a01b0316816001600160a01b03167fd1c19fbcd4551a5edfb66d43d2e337c04837afda3482b42bdf569a8fccdae5fb84604051612eb6919061527e565b60405180910390a3505050565b612ecb6113ec565b612f13576040805162461bcd60e51b815260206004820152601460248201527314185d5cd8589b194e881b9bdd081c185d5cd95960621b604482015290519081900360640190fd5b6099805460ff191690557f5db9ee0a495bf2e6ff9c91a7834c1ba4fdd244a5e8aa4e537bd38aeae4b073aa612f46612db2565b604080516001600160a01b039092168252519081900360200190a1565b6000806000612f71856124d4565b915091506000612f8186866142fd565b9050611b8c612f8f82613140565b612b73848661438f565b600060ff601283900316600a0a818085128015612fc15750818560000381612fbd57fe5b0615155b15612fcb57506000195b612fd981612b79878561439e565b95945050505050565b3b151590565b610138546040516303b8879560e21b81526000916001600160a01b031690630ee21e549061301a9085906004016151f3565b60206040518083038186803b15801561303257600080fd5b505afa158015613046573d6000803e3d6000fd5b505050506040513d601f19601f82011682018060405250810190610d2291906150a2565b6000811161308a5760405162461bcd60e51b8152600401610ade90615433565b613095828583613971565b6130a0828483614456565b50505050565b34806130c45760405162461bcd60e51b8152600401610ade90615433565b6130cc612dc1565b6101395460408051630d0e30db60e41b815290516001600160a01b0390921691829163d0e30db091859160048082019260009290919082900301818588803b15801561311757600080fd5b505af115801561312b573d6000803e3d6000fd5b505050505061313b818484614456565b505050565b60006001600160ff1b038211156126235760405162461bcd60e51b815260040180806020018281038252602881526020018061575f6028913960400191505060405180910390fd5b6131906113ec565b156131d5576040805162461bcd60e51b815260206004820152601060248201526f14185d5cd8589b194e881c185d5cd95960821b604482015290519081900360640190fd5b6099805460ff191660011790557f62e78cea01bee320cd4e420270b5ea74000d11b0c9f74754ebdbfc544b05a258612f46612db2565b6000806132178361257b565b90506000808212613229576000613235565b6132356108b1836125a0565b905060006132c98561013160009054906101000a90046001600160a01b03166001600160a01b031663543ce73a6040518163ffffffff1660e01b815260040160206040518083038186803b15801561328c57600080fd5b505afa1580156132a0573d6000803e3d6000fd5b505050506040513d601f19601f820116820180604052508101906132c4919061517a565b6142fd565b905060006132d78383614709565b6101305461013854604080516348896fcd60e01b8152905193945060009361336a9360ff16926001600160a01b0316916348896fcd916004808301926020929190829003018186803b15801561332c57600080fd5b505afa158015613340573d6000803e3d6000fd5b505050506040513d601f19601f8201168201806040525081019061336491906150be565b90613525565b9050600081831161337b57826133f9565b610138546040805162db540160e11b815290516133f9926001600160a01b0316916301b6a802916004808301926020929190829003018186803b1580156133c157600080fd5b505afa1580156133d5573d6000803e3d6000fd5b505050506040513d601f19601f82011682018060405250810190611825919061517a565b905061349961349261013860009054906101000a90046001600160a01b03166001600160a01b031663ddb138136040518163ffffffff1660e01b815260040160206040518083038186803b15801561345057600080fd5b505afa158015613464573d6000803e3d6000fd5b505050506040513d601f19601f82011682018060405250810190613488919061517a565b620f4240906134a5565b8290612d9d565b98975050505050505050565b60008262ffffff168262ffffff1611156134d15760405162461bcd60e51b8152600401610ade9061531a565b50900390565b6000806134e386613e73565b905060128160ff161161350e57612d7a8460ff8516600a0a61350788856012613f20565b919061385b565b611b8c816012612d73888860ff8916600a0a61385b565b60006110ee8360ff601285900316600a0a614719565b60fd80546001600160a01b0383166001600160a01b0319909116811790915560408051918252517fa4388ecc389b1390354ae0c65a856c0d7dd4fb648419f5d3ac0b99e38f46fd119181900360200190a150565b61359a838383613f9d565b6135a5828483613d96565b826001600160a01b0316826001600160a01b03167fd1c19fbcd4551a5edfb66d43d2e337c04837afda3482b42bdf569a8fccdae5fb83604051612eb6919061527e565b60006135f330612fe2565b15905090565b600054610100900460ff168061361257506136126135e8565b80613620575060005460ff16155b61365b5760405162461bcd60e51b815260040180806020018281038252602e8152602001806156a8602e913960400191505060405180910390fd5b600054610100900460ff16158015613686576000805460ff1961ff0019909116610100171660011790555b61368e614772565b80156136a0576000805461ff00191690555b50565b600054610100900460ff16806136bc57506136bc6135e8565b806136ca575060005460ff16155b6137055760405162461bcd60e51b815260040180806020018281038252602e8152602001806156a8602e913960400191505060405180910390fd5b600054610100900460ff16158015613730576000805460ff1961ff0019909116610100171660011790555b613738614817565b61368e614906565b60008061374c83612a4a565b509050600061375a84612627565b905061259882612b7983613140565b600082820181831280159061377e5750838112155b80613793575060008312801561379357508381125b6110ee5760405162461bcd60e51b81526004018080602001828103825260218152602001806156876021913960400191505060405180910390fd5b6000806137db8484610e93565b90506000806137e985612bb9565b91509150611b8c856137fa856125cc565b84846134d7565b6000828201838110156110ee576040805162461bcd60e51b815260206004820152601b60248201527f536166654d6174683a206164646974696f6e206f766572666c6f770000000000604482015290519081900360640190fd5b6000808060001985870986860292508281109083900303905080613891576000841161388657600080fd5b5082900490506110ee565b80841161389d57600080fd5b6000848688096000868103871696879004966002600389028118808a02820302808a02820302808a02820302808a02820302808a02820302808a02909103029181900381900460010186841190950394909402919094039290920491909117919091029150509392505050565b6000808211613960576040805162461bcd60e51b815260206004820152601a60248201527f536166654d6174683a206469766973696f6e206279207a65726f000000000000604482015290519081900360640190fd5b81838161396957fe5b049392505050565b6040516370a0823160e01b81526000906001600160a01b038516906370a08231906139a09030906004016151f3565b60206040518083038186803b1580156139b857600080fd5b505afa1580156139cc573d6000803e3d6000fd5b505050506040513d601f19601f820116820180604052508101906139f091906150be565b90506139fe848430856149a3565b81613a8582866001600160a01b03166370a08231306040518263ffffffff1660e01b8152600401613a2f91906151f3565b60206040518083038186803b158015613a4757600080fd5b505afa158015613a5b573d6000803e3d6000fd5b505050506040513d601f19601f82011682018060405250810190613a7f91906150be565b90613d3f565b146130a05760405162461bcd60e51b8152600401610ade906152fb565b6000613aad82613140565b60000392915050565b6001600160a01b0380841660009081526101376020908152604080832093861683529290529081205490613aea8284613769565b6001600160a01b03808716600090815261013760209081526040808320898516808552925290912083905561013054929350610100909204161415613b3057505061313b565b8115801590613b3d575080155b15613c4d576001600160a01b038516600090815261013a60205260408120805490916000198201905b82811015613c4457876001600160a01b0316848281548110613b8457fe5b6000918252602090912001546001600160a01b03161415613c3c57818114613c0b57838281548110613bb257fe5b9060005260206000200160009054906101000a90046001600160a01b0316848281548110613bdc57fe5b9060005260206000200160006101000a8154816001600160a01b0302191690836001600160a01b031602179055505b83805480613c1557fe5b600082815260209020810160001990810180546001600160a01b0319169055019055613c44565b600101613b66565b505050506123c1565b81158015613c5a57508015155b156123c1576001600160a01b03858116600090815261013a6020908152604080832080546001810182558185529383902090930180546001600160a01b031916898616179055610138548151630262771f60e01b8152915193941692630262771f92600480840193919291829003018186803b158015613cd957600080fd5b505afa158015613ced573d6000803e3d6000fd5b505050506040513d601f19601f82011682018060405250810190613d1191906151d2565b60ff1681805490501115613d375760405162461bcd60e51b8152600401610ade90615371565b505050505050565b6000828211156134d1576040805162461bcd60e51b815260206004820152601e60248201527f536166654d6174683a207375627472616374696f6e206f766572666c6f770000604482015290519081900360640190fd5b604080516001600160a01b038416602482015260448082018490528251808303909101815260649091019091526020810180516001600160e01b031663a9059cbb60e01b17905261313b9084906149f9565b600081831215612bb257816110ee565b6000818303818312801590613e0d5750838113155b80613e225750600083128015613e2257508381135b6110ee5760405162461bcd60e51b81526004018080602001828103825260248152602001806157876024913960400191505060405180910390fd5b60006110ee8360ff601285900316600a0a614aaa565b6000816001600160a01b031663313ce5676040518163ffffffff1660e01b815260040160206040518083038186803b158015613eae57600080fd5b505afa158015613ec2573d6000803e3d6000fd5b505050506040513d601f19601f82011682018060405250810190610d2291906151d2565b6000613ef384848461385b565b905060008280613eff57fe5b84860911156110ee576000198110613f1657600080fd5b6001019392505050565b60008160ff168360ff161415613f375750826110ee565b8160ff168360ff1611613f5b57613f568460ff85850316600a0a614719565b612598565b6125988460ff84860316600a0a61390a565b600060143610801590613f845750613f84336113b6565b15613f98575060131936013560601c610bb9565b503390565b610135546040516375cdc89760e11b81526001600160a01b039091169063eb9b912e90613fce9086906004016151f3565b600060405180830381600087803b158015613fe857600080fd5b505af1158015613ffc573d6000803e3d6000fd5b50505050600061400c8484610bbc565b90508181101561402e5760405162461bcd60e51b8152600401610ade90615545565b600061404161403c84613140565b6125a0565b610130549091506001600160a01b03858116610100909204161415614203576040516370a0823160e01b81526000906001600160a01b038616906370a082319061408f9030906004016151f3565b60206040518083038186803b1580156140a757600080fd5b505afa1580156140bb573d6000803e3d6000fd5b505050506040513d601f19601f820116820180604052508101906140df91906150be565b90508381101561415a576101335460405163317afabb60e21b8152828603916001600160a01b03169063c5ebeaec9061411c90849060040161527e565b600060405180830381600087803b15801561413657600080fd5b505af115801561414a573d6000803e3d6000fd5b5050610136805490930190925550505b6101325460405163fd6ceee560e01b81526000916001600160a01b03169063fd6ceee59061418c908a906004016151f3565b602060405180830381600087803b1580156141a657600080fd5b505af11580156141ba573d6000803e3d6000fd5b505050506040513d601f19601f820116820180604052508101906141de91906150be565b610130549091506141fe906141f790839060ff16612f99565b8490613769565b925050505b6123c1858583613ab6565b604080516000808252602082019092526001600160a01b0384169083906040518082805190602001908083835b6020831061425a5780518252601f19909201916020918201910161423b565b6001836020036101000a03801982511681845116808217855250505050505090500191505060006040518083038185875af1925050503d80600081146142bc576040519150601f19603f3d011682016040523d82523d6000602084013e6142c1565b606091505b505090508061313b576040805162461bcd60e51b815260206004820152600360248201526253544560e81b604482015290519081900360640190fd5b6101325460405163293a507760e01b815260009182916001600160a01b039091169063293a5077906143339087906004016151f3565b60206040518083038186803b15801561434b57600080fd5b505afa15801561435f573d6000803e3d6000fd5b505050506040513d601f19601f8201168201806040525081019061438391906150be565b90506125988184612783565b6000818312612bb257816110ee565b6000816143f2576040805162461bcd60e51b815260206004820181905260248201527f5369676e6564536166654d6174683a206469766973696f6e206279207a65726f604482015290519081900360640190fd5b816000191480156144065750600160ff1b83145b156144425760405162461bcd60e51b81526004018080602001828103825260218152602001806156d66021913960400191505060405180910390fd5b600082848161444d57fe5b05949350505050565b610130546001600160a01b038481166101009092041614156145935761013154604080516385eacc7760e01b815290516000926001600160a01b0316916385eacc77916004808301926020929190829003018186803b1580156144b857600080fd5b505afa1580156144cc573d6000803e3d6000fd5b505050506040513d601f19601f820116820180604052508101906144f091906150be565b905080846001600160a01b03166370a08231306040518263ffffffff1660e01b815260040161451f91906151f3565b60206040518083038186803b15801561453757600080fd5b505afa15801561454b573d6000803e3d6000fd5b505050506040513d601f19601f8201168201806040525081019061456f91906150be565b111561458d5760405162461bcd60e51b8152600401610ade90615411565b506146b8565b61013854604051631ed4896760e31b81526000916001600160a01b03169063f6a44b38906145c59087906004016151f3565b60806040518083038186803b1580156145dd57600080fd5b505afa1580156145f1573d6000803e3d6000fd5b505050506040513d601f19601f820116820180604052508101906146159190615103565b60600151905080846001600160a01b03166370a08231306040518263ffffffff1660e01b815260040161464891906151f3565b60206040518083038186803b15801561466057600080fd5b505afa158015614674573d6000803e3d6000fd5b505050506040513d601f19601f8201168201806040525081019061469891906150be565b11156146b65760405162461bcd60e51b8152600401610ade90615351565b505b6146c682846127e684613140565b816001600160a01b0316836001600160a01b03167f8752a472e571a816aea92eec8dae9baf628e840f4929fbcc2d155e6233ff68a783604051612eb6919061527e565b600081831015612bb257816110ee565b60008261472857506000610d22565b8282028284828161473557fe5b04146110ee5760405162461bcd60e51b81526004018080602001828103825260218152602001806156f76021913960400191505060405180910390fd5b600054610100900460ff168061478b575061478b6135e8565b80614799575060005460ff16155b6147d45760405162461bcd60e51b815260040180806020018281038252602e8152602001806156a8602e913960400191505060405180910390fd5b600054610100900460ff161580156147ff576000805460ff1961ff0019909116610100171660011790555b6001805580156136a0576000805461ff001916905550565b600054610100900460ff168061483057506148306135e8565b8061483e575060005460ff16155b6148795760405162461bcd60e51b815260040180806020018281038252602e8152602001806156a8602e913960400191505060405180910390fd5b600054610100900460ff161580156148a4576000805460ff1961ff0019909116610100171660011790555b6148ac614b53565b60006148b6612db2565b606580546001600160a01b0319166001600160a01b03831690811790915560405191925090600090600080516020615718833981519152908290a35080156136a0576000805461ff001916905550565b600054610100900460ff168061491f575061491f6135e8565b8061492d575060005460ff16155b6149685760405162461bcd60e51b815260040180806020018281038252602e8152602001806156a8602e913960400191505060405180910390fd5b600054610100900460ff16158015614993576000805460ff1961ff0019909116610100171660011790555b61499b614be4565b61368e614c84565b604080516001600160a01b0380861660248301528416604482015260648082018490528251808303909101815260849091019091526020810180516001600160e01b03166323b872dd60e01b1790526130a09085905b6000614a4e826040518060400160405280602081526020017f5361666545524332303a206c6f772d6c6576656c2063616c6c206661696c6564815250856001600160a01b0316614d2f9092919063ffffffff16565b80519091501561313b57808060200190516020811015614a6d57600080fd5b505161313b5760405162461bcd60e51b815260040180806020018281038252602a8152602001806157ab602a913960400191505060405180910390fd5b600082614ab957506000610d22565b82600019148015614acd5750600160ff1b82145b15614b095760405162461bcd60e51b81526004018080602001828103825260278152602001806157386027913960400191505060405180910390fd5b82820282848281614b1657fe5b05146110ee5760405162461bcd60e51b81526004018080602001828103825260278152602001806157386027913960400191505060405180910390fd5b600054610100900460ff1680614b6c5750614b6c6135e8565b80614b7a575060005460ff16155b614bb55760405162461bcd60e51b815260040180806020018281038252602e8152602001806156a8602e913960400191505060405180910390fd5b600054610100900460ff16158015614be0576000805460ff1961ff0019909116610100171660011790555b61368e5b600054610100900460ff1680614bfd5750614bfd6135e8565b80614c0b575060005460ff16155b614c465760405162461bcd60e51b815260040180806020018281038252602e8152602001806156a8602e913960400191505060405180910390fd5b600054610100900460ff1615801561368e576000805460ff1961ff00199091166101001716600117905580156136a0576000805461ff001916905550565b600054610100900460ff1680614c9d5750614c9d6135e8565b80614cab575060005460ff16155b614ce65760405162461bcd60e51b815260040180806020018281038252602e8152602001806156a8602e913960400191505060405180910390fd5b600054610100900460ff16158015614d11576000805460ff1961ff0019909116610100171660011790555b6099805460ff1916905580156136a0576000805461ff001916905550565b6060612598848460008585614d4385612fe2565b614d94576040805162461bcd60e51b815260206004820152601d60248201527f416464726573733a2063616c6c20746f206e6f6e2d636f6e7472616374000000604482015290519081900360640190fd5b600080866001600160a01b031685876040518082805190602001908083835b60208310614dd25780518252601f199092019160209182019101614db3565b6001836020036101000a03801982511681845116808217855250505050505090500191505060006040518083038185875af1925050503d8060008114614e34576040519150601f19603f3d011682016040523d82523d6000602084013e614e39565b606091505b5091509150614e49828286614e54565b979650505050505050565b60608315614e635750816110ee565b825115614e735782518084602001fd5b8160405162461bcd60e51b81526004018080602001828103825283818151815260200191508051906020019080838360005b83811015614ebd578181015183820152602001614ea5565b50505050905090810190601f168015614eea5780820380516001836020036101000a031916815260200191505b509250505060405180910390fd5b600060208284031215614f09578081fd5b81356110ee81615632565b600060208284031215614f25578081fd5b81516110ee81615632565b60008060408385031215614f42578081fd5b8235614f4d81615632565b91506020830135614f5d81615632565b809150509250929050565b60008060008060808587031215614f7d578182fd5b8435614f8881615632565b93506020850135614f9881615632565b92506040850135614fa881615632565b91506060850135614fb881615632565b939692955090935050565b600080600060608486031215614fd7578283fd5b8335614fe281615632565b92506020840135614ff281615632565b929592945050506040919091013590565b60008060008060808587031215615018578384fd5b843561502381615632565b9350602085013561503381615632565b9250604085013591506060850135614fb881615647565b6000806040838503121561505c578182fd5b823561506781615632565b91506020830135614f5d81615655565b60008060408385031215615089578182fd5b823561509481615632565b946020939093013593505050565b6000602082840312156150b3578081fd5b81516110ee81615647565b6000602082840312156150cf578081fd5b5051919050565b6000806000606084860312156150ea578283fd5b8351925060208401519150604084015190509250925092565b600060808284031215615114578081fd5b6040516080810181811067ffffffffffffffff8211171561513157fe5b604052825161513f81615632565b8152602083015161514f81615655565b6020820152604083015161516281615655565b60408201526060928301519281019290925250919050565b60006020828403121561518b578081fd5b81516110ee81615655565b6000602082840312156151a7578081fd5b5035919050565b6000602082840312156151bf578081fd5b815163ffffffff811681146110ee578182fd5b6000602082840312156151e3578081fd5b815160ff811681146110ee578182fd5b6001600160a01b0391909116815260200190565b6001600160a01b0392909216825263ffffffff16602082015260400190565b6020808252825182820181905260009190848201906040850190845b818110156152675783516001600160a01b031683529284019291840191600101615242565b50909695505050505050565b901515815260200190565b90815260200190565b6000602080835283518082850152825b818110156152b357858101830151858201604001528201615297565b818111156152c45783604083870101525b50601f01601f1916929092016040019392505050565b602080825260079082015266565f4348434e4360c81b604082015260600190565b602080825260059082015264565f49424160d81b604082015260600190565b6020808252601e908201527f506572704d6174683a207375627472616374696f6e206f766572666c6f770000604082015260600190565b602080825260069082015265565f4754444360d01b604082015260600190565b602080825260069082015265565f43544e4560d01b604082015260600190565b602080825260069082015265565f4d43414560d01b604082015260600190565b6020808252600690820152651597d3d4d0d560d21b604082015260600190565b602080825260069082015265565f43484e4360d01b604082015260600190565b602080825260069082015265565f44465a4160d01b604082015260600190565b602080825260089082015267565f47545354424360c01b604082015260600190565b602080825260049082015263565f5a4160e01b604082015260600190565b602080825260059082015264565f454e4360d81b604082015260600190565b6020808252601c908201527f506572704d6174683a20696e76657273696f6e206f766572666c6f7700000000604082015260600190565b602080825260069082015265565f4d53414560d01b604082015260600190565b602080825260069082015265565f54464e4360d01b604082015260600190565b6020808252600490820152631597d39360e21b604082015260600190565b602080825260059082015264565f574e4360d81b604082015260600190565b602080825260079082015266565f54494e414360c81b604082015260600190565b602080825260069082015265565f4e45464360d01b604082015260600190565b602080825260069082015265565f434d4e4360d01b604082015260600190565b602080825260079082015266565f57494e414360c81b604082015260600190565b602080825260069082015265565f41424e4360d01b604082015260600190565b6020808252600690820152651597d254d51160d21b604082015260600190565b62ffffff91909116815260200190565b918252602082015260400190565b9384526020840192909252604083015262ffffff16606082015260800190565b60ff91909116815260200190565b6001600160a01b03811681146136a057600080fd5b80151581146136a057600080fd5b62ffffff811681146136a057600080fdfe5265656e7472616e637947756172643a207265656e7472616e742063616c6c005369676e6564536166654d6174683a206164646974696f6e206f766572666c6f77496e697469616c697a61626c653a20636f6e747261637420697320616c726561647920696e697469616c697a65645369676e6564536166654d6174683a206469766973696f6e206f766572666c6f77536166654d6174683a206d756c7469706c69636174696f6e206f766572666c6f778be0079c531659141344cd1fd0a4f28419497f9722a3daafe3b4186f6b6457e05369676e6564536166654d6174683a206d756c7469706c69636174696f6e206f766572666c6f7753616665436173743a2076616c756520646f65736e27742066697420696e20616e20696e743235365369676e6564536166654d6174683a207375627472616374696f6e206f766572666c6f775361666545524332303a204552433230206f7065726174696f6e20646964206e6f742073756363656564a2646970667358221220067732f4537085a452a95dfde61a1af2487a9b46cd54aa25f12c5df1db2d40ba64736f6c63430007060033",
  "devdoc": {
    "kind": "dev",
    "methods": {
      "candidate()": {
        "details": "Returns the candidate that can become the owner."
      },
      "decimals()": {
        "details": "cached the settlement token's decimal for gas optimization",
        "returns": {
          "_0": "The decimals of settlement token"
        }
      },
      "deposit(address,uint256)": {
        "params": {
          "amount": "The amount of the token to deposit",
          "token": "The address of the token to deposit"
        }
      },
      "depositEtherFor(address)": {
        "params": {
          "to": "The address of the account to deposit to"
        }
      },
      "depositFor(address,address,uint256)": {
        "params": {
          "amount": "The amount of the token to deposit",
          "to": "The address of the account to deposit to",
          "token": "The address of collateral token"
        }
      },
      "getAccountBalance()": {
        "returns": {
          "_0": "The address of `AccountBalance` contract"
        }
      },
      "getAccountValue(address)": {
        "params": {
          "trader": "The address of the trader"
        },
        "returns": {
          "_0": "account value (in settlement token's decimals)"
        }
      },
      "getBalance(address)": {
        "details": "The function is equivalent to `getBalanceByToken(trader, settlementToken)`      We keep this function solely for backward-compatibility with the older single-collateral system.      In practical applications, the developer might want to use `getSettlementTokenValue()` instead      because the latter includes pending fee, funding payment etc.      and therefore more accurately reflects a trader's settlement (ex. USDC) balance",
        "returns": {
          "_0": "The balance amount (in settlement token's decimals)"
        }
      },
      "getBalanceByToken(address,address)": {
        "params": {
          "token": "The address of the collateral token",
          "trader": "The address of the trader"
        },
        "returns": {
          "_0": "The balance amount (in its native decimals)"
        }
      },
      "getClearingHouse()": {
        "returns": {
          "_0": "The address of `ClearingHouse` contract"
        }
      },
      "getClearingHouseConfig()": {
        "returns": {
          "_0": "The address of `ClearingHouseConfig` contract"
        }
      },
      "getCollateralManager()": {
        "returns": {
          "_0": "The address of `CollateralManager` contract"
        }
      },
      "getCollateralMmRatio()": {
        "returns": {
          "_0": "The maintenance margin ratio for collateral liquidation"
        }
      },
      "getCollateralTokens(address)": {
        "returns": {
          "_0": "array of collateral token addresses"
        }
      },
      "getExchange()": {
        "returns": {
          "_0": "The address of `Exchange` contract"
        }
      },
      "getFreeCollateral(address)": {
        "params": {
          "trader": "The address of the trader"
        },
        "returns": {
          "_0": "the value (in settlement token's decimals) of free collateral available         for withdraw or opening new positions or orders)"
        }
      },
      "getFreeCollateralByRatio(address,uint24)": {
        "details": "There are three configurations for different insolvency risk tolerances:      **conservative, moderate &aggressive**. We will start with the **conservative** one      and gradually move to **aggressive** to increase capital efficiency",
        "params": {
          "ratio": "The margin requirement ratio, imRatio or mmRatio",
          "trader": "The address of the trader"
        },
        "returns": {
          "_0": "freeCollateral (in settlement token's decimals), by using the         input margin requirement ratio; can be negative"
        }
      },
      "getFreeCollateralByToken(address,address)": {
        "details": "getFreeCollateralByToken(token) = (getSettlementTokenValue() >= 0)   ? min(getFreeCollateral() / indexPrice[token], getBalanceByToken(token))   : 0if token is settlementToken, then indexPrice[token] = 1",
        "params": {
          "token": "The address of the collateral token",
          "trader": "The address of the trader"
        },
        "returns": {
          "_0": "amount of that token (in the token's native decimals)"
        }
      },
      "getInsuranceFund()": {
        "returns": {
          "_0": "The address of `InsuranceFund` contract"
        }
      },
      "getLiquidatableCollateralBySettlement(address,uint256)": {
        "params": {
          "settlementX10_S": "The amount of settlement token the liquidator wants to pay",
          "token": "The address of the token of the trader's collateral"
        },
        "returns": {
          "collateral": "The collateral amount(in its native decimals) the liquidator can get"
        }
      },
      "getMarginRequirementForCollateralLiquidation(address)": {
        "details": "this value is compared with `ClearingHouse.getAccountValue()` (int)",
        "params": {
          "trader": "The address of the trader"
        },
        "returns": {
          "_0": "margin requirement (in 18 decimals)"
        }
      },
      "getMaxRepaidSettlementAndLiquidatableCollateral(address,address)": {
        "details": "formula: maxRepaidSettlement = maxLiquidatableCollateral * (indexTwap * (1 - discountRatio)) maxLiquidatableCollateral =     min(maxRepaidSettlement / (indexTwap * (1 - discountRatio)), getBalanceByToken(trader, token))",
        "params": {
          "token": "The address of the token of the trader's collateral",
          "trader": "The address of the trader"
        },
        "returns": {
          "maxLiquidatableCollateral": "The maximum liquidatable collateral amount         (in the collateral token's native decimals) of a trader",
          "maxRepaidSettlementX10_S": "The maximum settlement amount(in settlement token's decimals)         the liquidator needs to pay to liquidate a trader's collateral token"
        }
      },
      "getRepaidSettlementByCollateral(address,uint256)": {
        "params": {
          "collateral": "The amount of collateral token the liquidator wants to get",
          "token": "The address of the token of the trader's collateral"
        },
        "returns": {
          "settlementX10_S": "The settlement amount(in settlement token's decimals) the liquidator needs to pay"
        }
      },
      "getSettlementToken()": {
        "details": "We assume the settlement token should match the denominator of the price oracle.      i.e. if the settlement token is USDC, then the oracle should be priced in USD",
        "returns": {
          "_0": "The address of the settlement token"
        }
      },
      "getSettlementTokenValue(address)": {
        "details": "Note the difference between `settlementTokenBalanceX10_S`, `getSettlementTokenValue()` and `getBalance()`:      They are all settlement token balances but with or without      pending fee, funding payment, owed realized PnL, unrealized PnL, respectively      In practical applications, we use `getSettlementTokenValue()` to get the trader's debt (if < 0)",
        "params": {
          "trader": "The address of the trader"
        },
        "returns": {
          "_0": "The balance amount (in settlement token's decimals)"
        }
      },
      "getTotalDebt()": {
        "returns": {
          "_0": "The debt amount (in settlement token's decimals)"
        }
      },
      "getWETH9()": {
        "returns": {
          "_0": "The address of `WETH9` contract"
        }
      },
      "isLiquidatable(address)": {
        "params": {
          "trader": "The address of the trader"
        },
        "returns": {
          "_0": "If the trader can be liquidated"
        }
      },
      "liquidateCollateral(address,address,uint256,bool)": {
        "params": {
          "amount": "The amount of settlement token that the liquidator will repay for trader or               the amount of non-settlement collateral token that the liquidator will charge from trader",
          "isDenominatedInSettlementToken": "Whether the amount is denominated in settlement token or not",
          "token": "The address of non settlement collateral token that the trader will be liquidated",
          "trader": "The address of trader that will be liquidated"
        },
        "returns": {
          "_0": "The amount of a non-settlement token (in its native decimals) that is liquidated         when `isDenominatedInSettlementToken` is true or the amount of settlement token that is repaid         when `isDenominatedInSettlementToken` is false"
        }
      },
      "owner()": {
        "details": "Returns the address of the current owner."
      },
      "paused()": {
        "details": "Returns true if the contract is paused, and false otherwise."
      },
      "renounceOwnership()": {
        "details": "Leaves the contract without owner. It will not be possible to call `onlyOwner` functions anymore. Can only be called by the current owner. NOTE: Renouncing ownership will leave the contract without an owner, thereby removing any functionality that is only available to the owner."
      },
      "setOwner(address)": {
        "details": "Set ownership of the contract to a new account (`newOwner`). Can only be called by the current owner."
      },
      "updateOwner()": {
        "details": "Transfers ownership of the contract to a new account (`_candidate`). Can only be called by the new owner."
      },
      "withdraw(address,uint256)": {
        "params": {
          "amount": "The amount of the token to withdraw",
          "token": "The address of the token to withdraw"
        }
      },
      "withdrawAll(address)": {
        "params": {
          "token": "The address of the token to withdraw"
        },
        "returns": {
          "amount": "The amount of the token withdrawn"
        }
      },
      "withdrawAllEther()": {
        "returns": {
          "amount": "The amount of ETH withdrawn"
        }
      },
      "withdrawEther(uint256)": {
        "params": {
          "amount": "The amount of the ETH to withdraw"
        }
      }
    },
    "version": 1
  },
  "userdoc": {
    "events": {
      "ClearingHouseChanged(address)": {
        "notice": "Emitted when clearingHouse is changed"
      },
      "CollateralLiquidated(address,address,address,uint256,uint256,uint256,uint24)": {
        "notice": "Emitted when a trader's collateral is liquidated"
      },
      "CollateralManagerChanged(address)": {
        "notice": "Emitted when collateralManager is changed"
      },
      "Deposited(address,address,uint256)": {
        "notice": "Emitted when trader deposit collateral into vault"
      },
      "TrustedForwarderChanged(address)": {
        "notice": "Emitted when trustedForwarder is changed"
      },
      "WETH9Changed(address)": {
        "notice": "Emitted when WETH9 is changed"
      },
      "Withdrawn(address,address,uint256)": {
        "notice": "Emitted when trader withdraw collateral from vault"
      }
    },
    "kind": "user",
    "methods": {
      "decimals()": {
        "notice": "Get settlement token decimals"
      },
      "deposit(address,uint256)": {
        "notice": "Deposit collateral into vault"
      },
      "depositEther()": {
        "notice": "Deposit ETH as collateral into vault"
      },
      "depositEtherFor(address)": {
        "notice": "Deposit ETH as collateral for specified account"
      },
      "depositFor(address,address,uint256)": {
        "notice": "Deposit the collateral token for other account"
      },
      "getAccountBalance()": {
        "notice": "Get `AccountBalance` contract address"
      },
      "getAccountValue(address)": {
        "notice": "Get account value of the specified trader"
      },
      "getBalance(address)": {
        "notice": "Get the specified trader's settlement token balance, without pending fee, funding payment         and owed realized PnL"
      },
      "getBalanceByToken(address,address)": {
        "notice": "Get the balance of Vault of the specified collateral token and trader"
      },
      "getClearingHouse()": {
        "notice": "Get `ClearingHouse` contract address"
      },
      "getClearingHouseConfig()": {
        "notice": "Get `ClearingHouseConfig` contract address"
      },
      "getCollateralManager()": {
        "notice": "Get `CollateralManager` contract address"
      },
      "getCollateralMmRatio()": {
        "notice": "Get the maintenance margin ratio for collateral liquidation"
      },
      "getCollateralTokens(address)": {
        "notice": "Get they array of collateral token addresses that a trader has"
      },
      "getExchange()": {
        "notice": "Get `Exchange` contract address"
      },
      "getFreeCollateral(address)": {
        "notice": "Get the free collateral value denominated in the settlement token of the specified trader"
      },
      "getFreeCollateralByRatio(address,uint24)": {
        "notice": "Get the free collateral amount of the specified trader and collateral ratio"
      },
      "getFreeCollateralByToken(address,address)": {
        "notice": "Get the free collateral amount of the specified collateral token of specified trader"
      },
      "getInsuranceFund()": {
        "notice": "Get `InsuranceFund` contract address"
      },
      "getLiquidatableCollateralBySettlement(address,uint256)": {
        "notice": "Get a trader's liquidatable collateral amount by a given settlement amount"
      },
      "getMarginRequirementForCollateralLiquidation(address)": {
        "notice": "get the margin requirement for collateral liquidation of a trader"
      },
      "getMaxRepaidSettlementAndLiquidatableCollateral(address,address)": {
        "notice": "Get a trader's max repaid settlement & max liquidatable collateral by a given collateral token"
      },
      "getRepaidSettlementByCollateral(address,uint256)": {
        "notice": "Get a trader's repaid settlement amount by a given collateral amount"
      },
      "getSettlementToken()": {
        "notice": "Get the settlement token address"
      },
      "getSettlementTokenValue(address)": {
        "notice": "Get the specified trader's settlement value, including pending fee, funding payment,         owed realized PnL and unrealized PnL"
      },
      "getTotalDebt()": {
        "notice": "Get the borrowed settlement token amount from insurance fund"
      },
      "getWETH9()": {
        "notice": "Get `WETH9` contract address"
      },
      "isTrustedForwarder(address)": {
        "notice": "return if the forwarder is trusted to forward relayed transactions to us. the forwarder is required to verify the sender's signature, and verify the call is not a replay."
      },
      "liquidateCollateral(address,address,uint256,bool)": {
        "notice": "Liquidate trader's collateral by given settlement token amount or non settlement token amount"
      },
      "withdraw(address,uint256)": {
        "notice": "Withdraw collateral from vault"
      },
      "withdrawAll(address)": {
        "notice": "Withdraw all free collateral from vault"
      },
      "withdrawAllEther()": {
        "notice": "Withdraw all free collateral of ETH from vault"
      },
      "withdrawEther(uint256)": {
        "notice": "Withdraw ETH from vault"
      }
    },
    "version": 1
  },
  "storageLayout": {
    "storage": [
      {
        "astId": 1158,
        "contract": "contracts/Vault.sol:Vault",
        "label": "_initialized",
        "offset": 0,
        "slot": "0",
        "type": "t_bool"
      },
      {
        "astId": 1161,
        "contract": "contracts/Vault.sol:Vault",
        "label": "_initializing",
        "offset": 1,
        "slot": "0",
        "type": "t_bool"
      },
      {
        "astId": 3095,
        "contract": "contracts/Vault.sol:Vault",
        "label": "_status",
        "offset": 0,
        "slot": "1",
        "type": "t_uint256"
      },
      {
        "astId": 3138,
        "contract": "contracts/Vault.sol:Vault",
        "label": "__gap",
        "offset": 0,
        "slot": "2",
        "type": "t_array(t_uint256)49_storage"
      },
      {
        "astId": 2475,
        "contract": "contracts/Vault.sol:Vault",
        "label": "__gap",
        "offset": 0,
        "slot": "51",
        "type": "t_array(t_uint256)50_storage"
      },
      {
        "astId": 27037,
        "contract": "contracts/Vault.sol:Vault",
        "label": "_owner",
        "offset": 0,
        "slot": "101",
        "type": "t_address"
      },
      {
        "astId": 27039,
        "contract": "contracts/Vault.sol:Vault",
        "label": "_candidate",
        "offset": 0,
        "slot": "102",
        "type": "t_address"
      },
      {
        "astId": 27043,
        "contract": "contracts/Vault.sol:Vault",
        "label": "__gap",
        "offset": 0,
        "slot": "103",
        "type": "t_array(t_uint256)50_storage"
      },
      {
        "astId": 2989,
        "contract": "contracts/Vault.sol:Vault",
        "label": "_paused",
        "offset": 0,
        "slot": "153",
        "type": "t_bool"
      },
      {
        "astId": 3080,
        "contract": "contracts/Vault.sol:Vault",
        "label": "__gap",
        "offset": 0,
        "slot": "154",
        "type": "t_array(t_uint256)49_storage"
      },
      {
        "astId": 26976,
        "contract": "contracts/Vault.sol:Vault",
        "label": "__gap",
        "offset": 0,
        "slot": "203",
        "type": "t_array(t_uint256)50_storage"
      },
      {
        "astId": 27292,
        "contract": "contracts/Vault.sol:Vault",
        "label": "_trustedForwarder",
        "offset": 0,
        "slot": "253",
        "type": "t_address"
      },
      {
        "astId": 27296,
        "contract": "contracts/Vault.sol:Vault",
        "label": "__gap",
        "offset": 0,
        "slot": "254",
        "type": "t_array(t_uint256)50_storage"
      },
      {
        "astId": 32461,
        "contract": "contracts/Vault.sol:Vault",
        "label": "_decimals",
        "offset": 0,
        "slot": "304",
        "type": "t_uint8"
      },
      {
        "astId": 32463,
        "contract": "contracts/Vault.sol:Vault",
        "label": "_settlementToken",
        "offset": 1,
        "slot": "304",
        "type": "t_address"
      },
      {
        "astId": 32465,
        "contract": "contracts/Vault.sol:Vault",
        "label": "_clearingHouseConfig",
        "offset": 0,
        "slot": "305",
        "type": "t_address"
      },
      {
        "astId": 32467,
        "contract": "contracts/Vault.sol:Vault",
        "label": "_accountBalance",
        "offset": 0,
        "slot": "306",
        "type": "t_address"
      },
      {
        "astId": 32469,
        "contract": "contracts/Vault.sol:Vault",
        "label": "_insuranceFund",
        "offset": 0,
        "slot": "307",
        "type": "t_address"
      },
      {
        "astId": 32471,
        "contract": "contracts/Vault.sol:Vault",
        "label": "_exchange",
        "offset": 0,
        "slot": "308",
        "type": "t_address"
      },
      {
        "astId": 32473,
        "contract": "contracts/Vault.sol:Vault",
        "label": "_clearingHouse",
        "offset": 0,
        "slot": "309",
        "type": "t_address"
      },
      {
        "astId": 32475,
        "contract": "contracts/Vault.sol:Vault",
        "label": "_totalDebt",
        "offset": 0,
        "slot": "310",
        "type": "t_uint256"
      },
      {
        "astId": 32481,
        "contract": "contracts/Vault.sol:Vault",
        "label": "_balance",
        "offset": 0,
        "slot": "311",
        "type": "t_mapping(t_address,t_mapping(t_address,t_int256))"
      },
      {
        "astId": 32486,
        "contract": "contracts/Vault.sol:Vault",
        "label": "_collateralManager",
        "offset": 0,
        "slot": "312",
        "type": "t_address"
      },
      {
        "astId": 32488,
        "contract": "contracts/Vault.sol:Vault",
        "label": "_WETH9",
        "offset": 0,
        "slot": "313",
        "type": "t_address"
      },
      {
        "astId": 32493,
        "contract": "contracts/Vault.sol:Vault",
        "label": "_collateralTokensMap",
        "offset": 0,
        "slot": "314",
        "type": "t_mapping(t_address,t_array(t_address)dyn_storage)"
      }
    ],
    "types": {
      "t_address": {
        "encoding": "inplace",
        "label": "address",
        "numberOfBytes": "20"
      },
      "t_array(t_address)dyn_storage": {
        "base": "t_address",
        "encoding": "dynamic_array",
        "label": "address[]",
        "numberOfBytes": "32"
      },
      "t_array(t_uint256)49_storage": {
        "base": "t_uint256",
        "encoding": "inplace",
        "label": "uint256[49]",
        "numberOfBytes": "1568"
      },
      "t_array(t_uint256)50_storage": {
        "base": "t_uint256",
        "encoding": "inplace",
        "label": "uint256[50]",
        "numberOfBytes": "1600"
      },
      "t_bool": {
        "encoding": "inplace",
        "label": "bool",
        "numberOfBytes": "1"
      },
      "t_int256": {
        "encoding": "inplace",
        "label": "int256",
        "numberOfBytes": "32"
      },
      "t_mapping(t_address,t_array(t_address)dyn_storage)": {
        "encoding": "mapping",
        "key": "t_address",
        "label": "mapping(address => address[])",
        "numberOfBytes": "32",
        "value": "t_array(t_address)dyn_storage"
      },
      "t_mapping(t_address,t_int256)": {
        "encoding": "mapping",
        "key": "t_address",
        "label": "mapping(address => int256)",
        "numberOfBytes": "32",
        "value": "t_int256"
      },
      "t_mapping(t_address,t_mapping(t_address,t_int256))": {
        "encoding": "mapping",
        "key": "t_address",
        "label": "mapping(address => mapping(address => int256))",
        "numberOfBytes": "32",
        "value": "t_mapping(t_address,t_int256)"
      },
      "t_uint256": {
        "encoding": "inplace",
        "label": "uint256",
        "numberOfBytes": "32"
      },
      "t_uint8": {
        "encoding": "inplace",
        "label": "uint8",
        "numberOfBytes": "1"
      }
    }
  }
}